{
  "contractName": "EHR",
  "abi": [
    {
      "inputs": [],
      "stateMutability": "nonpayable",
      "type": "constructor"
    },
    {
      "anonymous": false,
      "inputs": [
        {
          "indexed": false,
          "internalType": "uint256",
          "name": "appointmentId",
          "type": "uint256"
        },
        {
          "indexed": false,
          "internalType": "uint256",
          "name": "patientId",
          "type": "uint256"
        },
        {
          "indexed": false,
          "internalType": "uint256",
          "name": "doctorId",
          "type": "uint256"
        },
        {
          "indexed": false,
          "internalType": "string",
          "name": "datetime",
          "type": "string"
        }
      ],
      "name": "AppointmentBooked",
      "type": "event"
    },
    {
      "anonymous": false,
      "inputs": [
        {
          "indexed": false,
          "internalType": "uint256",
          "name": "patientId",
          "type": "uint256"
        },
        {
          "indexed": false,
          "internalType": "uint256",
          "name": "recordId",
          "type": "uint256"
        },
        {
          "indexed": false,
          "internalType": "string",
          "name": "filePath",
          "type": "string"
        }
      ],
      "name": "MedicalRecordAdded",
      "type": "event"
    },
    {
      "anonymous": false,
      "inputs": [
        {
          "indexed": false,
          "internalType": "uint256",
          "name": "patientId",
          "type": "uint256"
        }
      ],
      "name": "PatientRecordAdded",
      "type": "event"
    },
    {
      "inputs": [],
      "name": "admin",
      "outputs": [
        {
          "internalType": "address",
          "name": "",
          "type": "address"
        }
      ],
      "stateMutability": "view",
      "type": "function",
      "constant": true
    },
    {
      "inputs": [
        {
          "internalType": "uint256",
          "name": "",
          "type": "uint256"
        }
      ],
      "name": "appointmentIds",
      "outputs": [
        {
          "internalType": "uint256",
          "name": "",
          "type": "uint256"
        }
      ],
      "stateMutability": "view",
      "type": "function",
      "constant": true
    },
    {
      "inputs": [
        {
          "internalType": "uint256",
          "name": "",
          "type": "uint256"
        }
      ],
      "name": "appointments",
      "outputs": [
        {
          "internalType": "uint256",
          "name": "id",
          "type": "uint256"
        },
        {
          "internalType": "uint256",
          "name": "patientId",
          "type": "uint256"
        },
        {
          "internalType": "uint256",
          "name": "doctorId",
          "type": "uint256"
        },
        {
          "internalType": "string",
          "name": "datetime",
          "type": "string"
        },
        {
          "internalType": "string",
          "name": "status",
          "type": "string"
        }
      ],
      "stateMutability": "view",
      "type": "function",
      "constant": true
    },
    {
      "inputs": [
        {
          "internalType": "uint256",
          "name": "",
          "type": "uint256"
        },
        {
          "internalType": "uint256",
          "name": "",
          "type": "uint256"
        }
      ],
      "name": "medicalRecords",
      "outputs": [
        {
          "internalType": "uint256",
          "name": "recordId",
          "type": "uint256"
        },
        {
          "internalType": "uint256",
          "name": "patientId",
          "type": "uint256"
        },
        {
          "internalType": "string",
          "name": "filePath",
          "type": "string"
        },
        {
          "internalType": "string",
          "name": "date",
          "type": "string"
        },
        {
          "internalType": "string",
          "name": "description",
          "type": "string"
        }
      ],
      "stateMutability": "view",
      "type": "function",
      "constant": true
    },
    {
      "inputs": [
        {
          "internalType": "uint256",
          "name": "",
          "type": "uint256"
        }
      ],
      "name": "patientIds",
      "outputs": [
        {
          "internalType": "uint256",
          "name": "",
          "type": "uint256"
        }
      ],
      "stateMutability": "view",
      "type": "function",
      "constant": true
    },
    {
      "inputs": [
        {
          "internalType": "uint256",
          "name": "",
          "type": "uint256"
        }
      ],
      "name": "patientRecords",
      "outputs": [
        {
          "internalType": "string",
          "name": "filename",
          "type": "string"
        },
        {
          "internalType": "uint256",
          "name": "patientId",
          "type": "uint256"
        },
        {
          "internalType": "uint256",
          "name": "age",
          "type": "uint256"
        },
        {
          "internalType": "string",
          "name": "joinedDate",
          "type": "string"
        },
        {
          "internalType": "string",
          "name": "healthConditions",
          "type": "string"
        },
        {
          "internalType": "string",
          "name": "medications",
          "type": "string"
        },
        {
          "internalType": "string",
          "name": "doctorNotes",
          "type": "string"
        }
      ],
      "stateMutability": "view",
      "type": "function",
      "constant": true
    },
    {
      "inputs": [],
      "name": "recordCounter",
      "outputs": [
        {
          "internalType": "uint256",
          "name": "",
          "type": "uint256"
        }
      ],
      "stateMutability": "view",
      "type": "function",
      "constant": true
    },
    {
      "inputs": [
        {
          "internalType": "uint256",
          "name": "patient",
          "type": "uint256"
        },
        {
          "internalType": "uint256",
          "name": "doctor",
          "type": "uint256"
        },
        {
          "internalType": "string",
          "name": "date",
          "type": "string"
        }
      ],
      "name": "bookAppointment",
      "outputs": [],
      "stateMutability": "nonpayable",
      "type": "function"
    },
    {
      "inputs": [
        {
          "internalType": "uint256",
          "name": "appointmentId",
          "type": "uint256"
        },
        {
          "internalType": "string",
          "name": "status",
          "type": "string"
        }
      ],
      "name": "updateAppointment",
      "outputs": [],
      "stateMutability": "nonpayable",
      "type": "function"
    },
    {
      "inputs": [
        {
          "internalType": "uint256",
          "name": "appointmentId",
          "type": "uint256"
        },
        {
          "internalType": "string",
          "name": "status",
          "type": "string"
        },
        {
          "internalType": "string",
          "name": "datetime",
          "type": "string"
        }
      ],
      "name": "updateAppointmentWithDate",
      "outputs": [],
      "stateMutability": "nonpayable",
      "type": "function"
    },
    {
      "inputs": [
        {
          "internalType": "uint256",
          "name": "appointmentId",
          "type": "uint256"
        }
      ],
      "name": "getAppointment",
      "outputs": [
        {
          "internalType": "uint256",
          "name": "",
          "type": "uint256"
        },
        {
          "internalType": "uint256",
          "name": "",
          "type": "uint256"
        },
        {
          "internalType": "uint256",
          "name": "",
          "type": "uint256"
        },
        {
          "internalType": "string",
          "name": "",
          "type": "string"
        },
        {
          "internalType": "string",
          "name": "",
          "type": "string"
        }
      ],
      "stateMutability": "view",
      "type": "function",
      "constant": true
    },
    {
      "inputs": [],
      "name": "getAllAppointmentIds",
      "outputs": [
        {
          "internalType": "uint256[]",
          "name": "",
          "type": "uint256[]"
        }
      ],
      "stateMutability": "view",
      "type": "function",
      "constant": true
    },
    {
      "inputs": [
        {
          "internalType": "string",
          "name": "filename",
          "type": "string"
        },
        {
          "internalType": "uint256",
          "name": "patientId",
          "type": "uint256"
        },
        {
          "internalType": "uint256",
          "name": "age",
          "type": "uint256"
        },
        {
          "internalType": "string",
          "name": "joinedDate",
          "type": "string"
        },
        {
          "internalType": "string",
          "name": "healthConditions",
          "type": "string"
        },
        {
          "internalType": "string",
          "name": "medications",
          "type": "string"
        },
        {
          "internalType": "string",
          "name": "doctorNotes",
          "type": "string"
        }
      ],
      "name": "addPatientRecord",
      "outputs": [],
      "stateMutability": "nonpayable",
      "type": "function"
    },
    {
      "inputs": [
        {
          "internalType": "uint256",
          "name": "patientId",
          "type": "uint256"
        }
      ],
      "name": "getPatientRecord",
      "outputs": [
        {
          "internalType": "string",
          "name": "",
          "type": "string"
        },
        {
          "internalType": "uint256",
          "name": "",
          "type": "uint256"
        },
        {
          "internalType": "string",
          "name": "",
          "type": "string"
        },
        {
          "internalType": "string",
          "name": "",
          "type": "string"
        },
        {
          "internalType": "string",
          "name": "",
          "type": "string"
        },
        {
          "internalType": "string",
          "name": "",
          "type": "string"
        }
      ],
      "stateMutability": "view",
      "type": "function",
      "constant": true
    },
    {
      "inputs": [],
      "name": "getAllPatientIds",
      "outputs": [
        {
          "internalType": "uint256[]",
          "name": "",
          "type": "uint256[]"
        }
      ],
      "stateMutability": "view",
      "type": "function",
      "constant": true
    },
    {
      "inputs": [
        {
          "internalType": "uint256",
          "name": "patientId",
          "type": "uint256"
        }
      ],
      "name": "deletePatientRecord",
      "outputs": [],
      "stateMutability": "nonpayable",
      "type": "function"
    },
    {
      "inputs": [
        {
          "internalType": "uint256",
          "name": "patientId",
          "type": "uint256"
        },
        {
          "internalType": "uint256",
          "name": "age",
          "type": "uint256"
        },
        {
          "internalType": "string",
          "name": "joinedDate",
          "type": "string"
        },
        {
          "internalType": "string",
          "name": "healthConditions",
          "type": "string"
        },
        {
          "internalType": "string",
          "name": "medications",
          "type": "string"
        },
        {
          "internalType": "string",
          "name": "doctorNotes",
          "type": "string"
        }
      ],
      "name": "editPatientRecord",
      "outputs": [],
      "stateMutability": "nonpayable",
      "type": "function"
    },
    {
      "inputs": [
        {
          "internalType": "uint256",
          "name": "patId",
          "type": "uint256"
        },
        {
          "internalType": "string",
          "name": "filePath",
          "type": "string"
        },
        {
          "internalType": "string",
          "name": "date",
          "type": "string"
        },
        {
          "internalType": "string",
          "name": "desc",
          "type": "string"
        }
      ],
      "name": "addMedicalRecord",
      "outputs": [],
      "stateMutability": "nonpayable",
      "type": "function"
    },
    {
      "inputs": [
        {
          "internalType": "uint256",
          "name": "patId",
          "type": "uint256"
        }
      ],
      "name": "getMedicalRecords",
      "outputs": [
        {
          "components": [
            {
              "internalType": "uint256",
              "name": "recordId",
              "type": "uint256"
            },
            {
              "internalType": "uint256",
              "name": "patientId",
              "type": "uint256"
            },
            {
              "internalType": "string",
              "name": "filePath",
              "type": "string"
            },
            {
              "internalType": "string",
              "name": "date",
              "type": "string"
            },
            {
              "internalType": "string",
              "name": "description",
              "type": "string"
            }
          ],
          "internalType": "struct EHR.MedicalRecord[]",
          "name": "",
          "type": "tuple[]"
        }
      ],
      "stateMutability": "view",
      "type": "function",
      "constant": true
    },
    {
      "inputs": [
        {
          "internalType": "uint256",
          "name": "patId",
          "type": "uint256"
        },
        {
          "internalType": "uint256",
          "name": "recordId",
          "type": "uint256"
        }
      ],
      "name": "getMedicalRecordById",
      "outputs": [
        {
          "internalType": "uint256",
          "name": "",
          "type": "uint256"
        },
        {
          "internalType": "uint256",
          "name": "",
          "type": "uint256"
        },
        {
          "internalType": "string",
          "name": "",
          "type": "string"
        },
        {
          "internalType": "string",
          "name": "",
          "type": "string"
        },
        {
          "internalType": "string",
          "name": "",
          "type": "string"
        }
      ],
      "stateMutability": "view",
      "type": "function",
      "constant": true
    },
    {
      "inputs": [],
      "name": "getAllMedicalRecords",
      "outputs": [
        {
          "components": [
            {
              "internalType": "uint256",
              "name": "recordId",
              "type": "uint256"
            },
            {
              "internalType": "uint256",
              "name": "patientId",
              "type": "uint256"
            },
            {
              "internalType": "string",
              "name": "filePath",
              "type": "string"
            },
            {
              "internalType": "string",
              "name": "date",
              "type": "string"
            },
            {
              "internalType": "string",
              "name": "description",
              "type": "string"
            }
          ],
          "internalType": "struct EHR.MedicalRecord[]",
          "name": "",
          "type": "tuple[]"
        }
      ],
      "stateMutability": "view",
      "type": "function",
      "constant": true
    }
  ],
  "bytecode": "0x608060405234801561001057600080fd5b5033600560006101000a81548173ffffffffffffffffffffffffffffffffffffffff021916908373ffffffffffffffffffffffffffffffffffffffff16021790555060006002819055506000600181905550613c69806100716000396000f3fe608060405234801561001057600080fd5b50600436106101365760003560e01c80638aa58d29116100b8578063d3d188a11161007c578063d3d188a11461035c578063e747428b14610392578063ee961379146103c2578063f2b20398146103f6578063f851a44014610412578063ffbcfac21461043057610136565b80638aa58d291461029b578063b9fff11b146102b9578063c9757766146102ee578063cff0572d14610322578063d2e2e62c1461034057610136565b80631fa2266e116100ff5780631fa2266e1461020b57806321238aa314610229578063373bf354146102455780635ea473d2146102615780637599be5d1461027d57610136565b8062ee98061461013b57806308366877146101575780630d943da21461017357806312dc9013146101a757806315802c6a146101db575b600080fd5b61015560048036038101906101509190612813565b610460565b005b610171600480360381019061016c91906128ce565b6105ff565b005b61018d60048036038101906101889190612959565b6106e9565b60405161019e959493929190612a14565b60405180910390f35b6101c160048036038101906101bc9190612959565b6108db565b6040516101d2959493929190612a14565b60405180910390f35b6101f560048036038101906101f09190612959565b610a21565b6040516102029190612a75565b60405180910390f35b610213610a45565b6040516102209190612b4e565b60405180910390f35b610243600480360381019061023e9190612b70565b610a9d565b005b61025f600480360381019061025a9190612c6d565b610bf7565b005b61027b60048036038101906102769190612d9b565b610e1a565b005b61028561102d565b6040516102929190612a75565b60405180910390f35b6102a3611033565b6040516102b09190612f9a565b60405180910390f35b6102d360048036038101906102ce9190612959565b6113e3565b6040516102e596959493929190612fbc565b60405180910390f35b61030860048036038101906103039190613040565b61178a565b604051610319959493929190613080565b60405180910390f35b61032a611afe565b6040516103379190612b4e565b60405180910390f35b61035a60048036038101906103559190612959565b611b56565b005b61037660048036038101906103719190612959565b611d80565b60405161038997969594939291906130e8565b60405180910390f35b6103ac60048036038101906103a79190612959565b61206a565b6040516103b99190612a75565b60405180910390f35b6103dc60048036038101906103d79190613040565b61208e565b6040516103ed959493929190613080565b60405180910390f35b610410600480360381019061040b919061317a565b612279565b005b61041a61233e565b6040516104279190613217565b60405180910390f35b61044a60048036038101906104459190612959565b612364565b6040516104579190612f9a565b60405180910390f35b600084116104a3576040517f08c379a000000000000000000000000000000000000000000000000000000000815260040161049a9061327e565b60405180910390fd5b60008351116104e7576040517f08c379a00000000000000000000000000000000000000000000000000000000081526004016104de906132ea565b60405180910390fd5b60018060008282546104f99190613339565b925050819055506000808581526020019081526020016000206040518060a0016040528060015481526020018681526020018581526020018481526020018381525090806001815401808255809150506001900390600052602060002090600502016000909190919091506000820151816000015560208201518160010155604082015181600201908161058d9190613579565b5060608201518160030190816105a39190613579565b5060808201518160040190816105b99190613579565b5050507f1f30f38b4f871adca727d3828cdd92e1d3ba6c231a941a699585e7a2ac79672684600154856040516105f19392919061364b565b60405180910390a150505050565b6000600660008581526020019081526020016000206000015403610658576040517f08c379a000000000000000000000000000000000000000000000000000000000815260040161064f906136d5565b60405180910390fd5b600082511161069c576040517f08c379a000000000000000000000000000000000000000000000000000000000815260040161069390613741565b60405180910390fd5b816006600085815260200190815260200160002060040190816106bf9190613579565b50806006600085815260200190815260200160002060030190816106e39190613579565b50505050565b6000806000606080600060066000888152602001908152602001600020600001540361074a576040517f08c379a0000000000000000000000000000000000000000000000000000000008152600401610741906136d5565b60405180910390fd5b6000600660008881526020019081526020016000206040518060a00160405290816000820154815260200160018201548152602001600282015481526020016003820180546107989061339c565b80601f01602080910402602001604051908101604052809291908181526020018280546107c49061339c565b80156108115780601f106107e657610100808354040283529160200191610811565b820191906000526020600020905b8154815290600101906020018083116107f457829003601f168201915b5050505050815260200160048201805461082a9061339c565b80601f01602080910402602001604051908101604052809291908181526020018280546108569061339c565b80156108a35780601f10610878576101008083540402835291602001916108a3565b820191906000526020600020905b81548152906001019060200180831161088657829003601f168201915b505050505081525050905080600001518160200151826040015183606001518460800151955095509550955095505091939590929450565b60066020528060005260406000206000915090508060000154908060010154908060020154908060030180546109109061339c565b80601f016020809104026020016040519081016040528092919081815260200182805461093c9061339c565b80156109895780601f1061095e57610100808354040283529160200191610989565b820191906000526020600020905b81548152906001019060200180831161096c57829003601f168201915b50505050509080600401805461099e9061339c565b80601f01602080910402602001604051908101604052809291908181526020018280546109ca9061339c565b8015610a175780601f106109ec57610100808354040283529160200191610a17565b820191906000526020600020905b8154815290600101906020018083116109fa57829003601f168201915b5050505050905085565b60048181548110610a3157600080fd5b906000526020600020016000915090505481565b60606007805480602002602001604051908101604052809291908181526020018280548015610a9357602002820191906000526020600020905b815481526020019060010190808311610a7f575b5050505050905090565b600560009054906101000a900473ffffffffffffffffffffffffffffffffffffffff1673ffffffffffffffffffffffffffffffffffffffff163373ffffffffffffffffffffffffffffffffffffffff1614610b2d576040517f08c379a0000000000000000000000000000000000000000000000000000000008152600401610b24906137d3565b60405180910390fd5b6000600360008881526020019081526020016000206001015403610b86576040517f08c379a0000000000000000000000000000000000000000000000000000000008152600401610b7d9061383f565b60405180910390fd5b600060036000888152602001908152602001600020905085816002018190555084816003019081610bb79190613579565b5083816004019081610bc99190613579565b5082816005019081610bdb9190613579565b5081816006019081610bed9190613579565b5050505050505050565b600560009054906101000a900473ffffffffffffffffffffffffffffffffffffffff1673ffffffffffffffffffffffffffffffffffffffff163373ffffffffffffffffffffffffffffffffffffffff1614610c87576040517f08c379a0000000000000000000000000000000000000000000000000000000008152600401610c7e906137d3565b60405180910390fd5b6000600360008881526020019081526020016000206001015414610ce0576040517f08c379a0000000000000000000000000000000000000000000000000000000008152600401610cd7906138ab565b60405180910390fd5b60006040518060e0016040528089815260200188815260200187815260200186815260200185815260200184815260200183815250905080600360008981526020019081526020016000206000820151816000019081610d409190613579565b5060208201518160010155604082015181600201556060820151816003019081610d6a9190613579565b506080820151816004019081610d809190613579565b5060a0820151816005019081610d969190613579565b5060c0820151816006019081610dac9190613579565b5090505060048790806001815401808255809150506001900390600052602060002001600090919091909150557fa2c04eb24898c8eeea47a5c6ccf8254363d9cf531b5c6b88b266a5037617bf4d87604051610e089190612a75565b60405180910390a15050505050505050565b60008311610e5d576040517f08c379a0000000000000000000000000000000000000000000000000000000008152600401610e549061327e565b60405180910390fd5b60008211610ea0576040517f08c379a0000000000000000000000000000000000000000000000000000000008152600401610e9790613917565b60405180910390fd5b6000815111610ee4576040517f08c379a0000000000000000000000000000000000000000000000000000000008152600401610edb90613983565b60405180910390fd5b600160026000828254610ef79190613339565b925050819055506040518060a0016040528060025481526020018481526020018381526020018281526020016040518060400160405280600781526020017f70656e64696e67000000000000000000000000000000000000000000000000008152508152506006600060025481526020019081526020016000206000820151816000015560208201518160010155604082015181600201556060820151816003019081610fa49190613579565b506080820151816004019081610fba9190613579565b50905050600760025490806001815401808255809150506001900390600052602060002001600090919091909150557f13546a77ac4cb5b16c2e6fcf78e7dda36b58e6635ef6a2f7a65c77fbb496986160025484848460405161102094939291906139a3565b60405180910390a1505050565b60015481565b60606000805b60048054905081101561109a576000806004838154811061105d5761105c6139ef565b5b9060005260206000200154815260200190815260200160002080549050826110859190613339565b9150808061109290613a1e565b915050611039565b5060008167ffffffffffffffff8111156110b7576110b66126e8565b5b6040519080825280602002602001820160405280156110f057816020015b6110dd6125f7565b8152602001906001900390816110d55790505b5090506000805b6004805490508110156113d95760006004828154811061111a576111196139ef565b5b906000526020600020015490506000806000838152602001908152602001600020805480602002602001604051908101604052809291908181526020016000905b8282101561135757838290600052602060002090600502016040518060a001604052908160008201548152602001600182015481526020016002820180546111a29061339c565b80601f01602080910402602001604051908101604052809291908181526020018280546111ce9061339c565b801561121b5780601f106111f05761010080835404028352916020019161121b565b820191906000526020600020905b8154815290600101906020018083116111fe57829003601f168201915b505050505081526020016003820180546112349061339c565b80601f01602080910402602001604051908101604052809291908181526020018280546112609061339c565b80156112ad5780601f10611282576101008083540402835291602001916112ad565b820191906000526020600020905b81548152906001019060200180831161129057829003601f168201915b505050505081526020016004820180546112c69061339c565b80601f01602080910402602001604051908101604052809291908181526020018280546112f29061339c565b801561133f5780601f106113145761010080835404028352916020019161133f565b820191906000526020600020905b81548152906001019060200180831161132257829003601f168201915b5050505050815250508152602001906001019061115b565b50505050905060005b81518110156113c35781818151811061137c5761137b6139ef565b5b6020026020010151868681518110611397576113966139ef565b5b602002602001018190525084806113ad90613a1e565b95505080806113bb90613a1e565b915050611360565b50505080806113d190613a1e565b9150506110f7565b5081935050505090565b606060006060806060806000600360008981526020019081526020016000206001015403611446576040517f08c379a000000000000000000000000000000000000000000000000000000000815260040161143d90613ab2565b60405180910390fd5b6000600360008981526020019081526020016000206040518060e00160405290816000820180546114769061339c565b80601f01602080910402602001604051908101604052809291908181526020018280546114a29061339c565b80156114ef5780601f106114c4576101008083540402835291602001916114ef565b820191906000526020600020905b8154815290600101906020018083116114d257829003601f168201915b50505050508152602001600182015481526020016002820154815260200160038201805461151c9061339c565b80601f01602080910402602001604051908101604052809291908181526020018280546115489061339c565b80156115955780601f1061156a57610100808354040283529160200191611595565b820191906000526020600020905b81548152906001019060200180831161157857829003601f168201915b505050505081526020016004820180546115ae9061339c565b80601f01602080910402602001604051908101604052809291908181526020018280546115da9061339c565b80156116275780601f106115fc57610100808354040283529160200191611627565b820191906000526020600020905b81548152906001019060200180831161160a57829003601f168201915b505050505081526020016005820180546116409061339c565b80601f016020809104026020016040519081016040528092919081815260200182805461166c9061339c565b80156116b95780601f1061168e576101008083540402835291602001916116b9565b820191906000526020600020905b81548152906001019060200180831161169c57829003601f168201915b505050505081526020016006820180546116d29061339c565b80601f01602080910402602001604051908101604052809291908181526020018280546116fe9061339c565b801561174b5780601f106117205761010080835404028352916020019161174b565b820191906000526020600020905b81548152906001019060200180831161172e57829003601f168201915b505050505081525050905080600001518160400151826060015183608001518460a001518560c001519650965096509650965096505091939550919395565b60008060608060606000806000898152602001908152602001600020805480602002602001604051908101604052809291908181526020016000905b828210156119c257838290600052602060002090600502016040518060a0016040529081600082015481526020016001820154815260200160028201805461180d9061339c565b80601f01602080910402602001604051908101604052809291908181526020018280546118399061339c565b80156118865780601f1061185b57610100808354040283529160200191611886565b820191906000526020600020905b81548152906001019060200180831161186957829003601f168201915b5050505050815260200160038201805461189f9061339c565b80601f01602080910402602001604051908101604052809291908181526020018280546118cb9061339c565b80156119185780601f106118ed57610100808354040283529160200191611918565b820191906000526020600020905b8154815290600101906020018083116118fb57829003601f168201915b505050505081526020016004820180546119319061339c565b80601f016020809104026020016040519081016040528092919081815260200182805461195d9061339c565b80156119aa5780601f1061197f576101008083540402835291602001916119aa565b820191906000526020600020905b81548152906001019060200180831161198d57829003601f168201915b505050505081525050815260200190600101906117c6565b50505050905060005b8151811015611ab857878282815181106119e8576119e76139ef565b5b60200260200101516000015103611aa557818181518110611a0c57611a0b6139ef565b5b602002602001015160000151828281518110611a2b57611a2a6139ef565b5b602002602001015160200151838381518110611a4a57611a496139ef565b5b602002602001015160400151848481518110611a6957611a686139ef565b5b602002602001015160600151858581518110611a8857611a876139ef565b5b602002602001015160800151965096509650965096505050611af4565b8080611ab090613a1e565b9150506119cb565b506040517f08c379a0000000000000000000000000000000000000000000000000000000008152600401611aeb90613b1e565b60405180910390fd5b9295509295909350565b60606004805480602002602001604051908101604052809291908181526020018280548015611b4c57602002820191906000526020600020905b815481526020019060010190808311611b38575b5050505050905090565b600560009054906101000a900473ffffffffffffffffffffffffffffffffffffffff1673ffffffffffffffffffffffffffffffffffffffff163373ffffffffffffffffffffffffffffffffffffffff1614611be6576040517f08c379a0000000000000000000000000000000000000000000000000000000008152600401611bdd906137d3565b60405180910390fd5b6000600360008381526020019081526020016000206001015403611c3f576040517f08c379a0000000000000000000000000000000000000000000000000000000008152600401611c369061383f565b60405180910390fd5b6003600082815260200190815260200160002060008082016000611c639190612626565b60018201600090556002820160009055600382016000611c839190612626565b600482016000611c939190612626565b600582016000611ca39190612626565b600682016000611cb39190612626565b505060005b600480549050811015611d7c578160048281548110611cda57611cd96139ef565b5b906000526020600020015403611d695760046001600480549050611cfe9190613b3e565b81548110611d0f57611d0e6139ef565b5b906000526020600020015460048281548110611d2e57611d2d6139ef565b5b90600052602060002001819055506004805480611d4e57611d4d613b72565b5b60019003818190600052602060002001600090559055611d7c565b8080611d7490613a1e565b915050611cb8565b5050565b6003602052806000526040600020600091509050806000018054611da39061339c565b80601f0160208091040260200160405190810160405280929190818152602001828054611dcf9061339c565b8015611e1c5780601f10611df157610100808354040283529160200191611e1c565b820191906000526020600020905b815481529060010190602001808311611dff57829003601f168201915b505050505090806001015490806002015490806003018054611e3d9061339c565b80601f0160208091040260200160405190810160405280929190818152602001828054611e699061339c565b8015611eb65780601f10611e8b57610100808354040283529160200191611eb6565b820191906000526020600020905b815481529060010190602001808311611e9957829003601f168201915b505050505090806004018054611ecb9061339c565b80601f0160208091040260200160405190810160405280929190818152602001828054611ef79061339c565b8015611f445780601f10611f1957610100808354040283529160200191611f44565b820191906000526020600020905b815481529060010190602001808311611f2757829003601f168201915b505050505090806005018054611f599061339c565b80601f0160208091040260200160405190810160405280929190818152602001828054611f859061339c565b8015611fd25780601f10611fa757610100808354040283529160200191611fd2565b820191906000526020600020905b815481529060010190602001808311611fb557829003601f168201915b505050505090806006018054611fe79061339c565b80601f01602080910402602001604051908101604052809291908181526020018280546120139061339c565b80156120605780601f1061203557610100808354040283529160200191612060565b820191906000526020600020905b81548152906001019060200180831161204357829003601f168201915b5050505050905087565b6007818154811061207a57600080fd5b906000526020600020016000915090505481565b600060205281600052604060002081815481106120aa57600080fd5b9060005260206000209060050201600091509150508060000154908060010154908060020180546120da9061339c565b80601f01602080910402602001604051908101604052809291908181526020018280546121069061339c565b80156121535780601f1061212857610100808354040283529160200191612153565b820191906000526020600020905b81548152906001019060200180831161213657829003601f168201915b5050505050908060030180546121689061339c565b80601f01602080910402602001604051908101604052809291908181526020018280546121949061339c565b80156121e15780601f106121b6576101008083540402835291602001916121e1565b820191906000526020600020905b8154815290600101906020018083116121c457829003601f168201915b5050505050908060040180546121f69061339c565b80601f01602080910402602001604051908101604052809291908181526020018280546122229061339c565b801561226f5780601f106122445761010080835404028352916020019161226f565b820191906000526020600020905b81548152906001019060200180831161225257829003601f168201915b5050505050905085565b60006006600084815260200190815260200160002060000154036122d2576040517f08c379a00000000000000000000000000000000000000000000000000000000081526004016122c9906136d5565b60405180910390fd5b6000815111612316576040517f08c379a000000000000000000000000000000000000000000000000000000000815260040161230d90613741565b60405180910390fd5b806006600084815260200190815260200160002060040190816123399190613579565b505050565b600560009054906101000a900473ffffffffffffffffffffffffffffffffffffffff1681565b6060600080600084815260200190815260200160002080549050116123be576040517f08c379a00000000000000000000000000000000000000000000000000000000081526004016123b590613c13565b60405180910390fd5b600080838152602001908152602001600020805480602002602001604051908101604052809291908181526020016000905b828210156125ec57838290600052602060002090600502016040518060a001604052908160008201548152602001600182015481526020016002820180546124379061339c565b80601f01602080910402602001604051908101604052809291908181526020018280546124639061339c565b80156124b05780601f10612485576101008083540402835291602001916124b0565b820191906000526020600020905b81548152906001019060200180831161249357829003601f168201915b505050505081526020016003820180546124c99061339c565b80601f01602080910402602001604051908101604052809291908181526020018280546124f59061339c565b80156125425780601f1061251757610100808354040283529160200191612542565b820191906000526020600020905b81548152906001019060200180831161252557829003601f168201915b5050505050815260200160048201805461255b9061339c565b80601f01602080910402602001604051908101604052809291908181526020018280546125879061339c565b80156125d45780601f106125a9576101008083540402835291602001916125d4565b820191906000526020600020905b8154815290600101906020018083116125b757829003601f168201915b505050505081525050815260200190600101906123f0565b505050509050919050565b6040518060a0016040528060008152602001600081526020016060815260200160608152602001606081525090565b5080546126329061339c565b6000825580601f106126445750612663565b601f0160209004906000526020600020908101906126629190612666565b5b50565b5b8082111561267f576000816000905550600101612667565b5090565b6000604051905090565b600080fd5b600080fd5b6000819050919050565b6126aa81612697565b81146126b557600080fd5b50565b6000813590506126c7816126a1565b92915050565b600080fd5b600080fd5b6000601f19601f8301169050919050565b7f4e487b7100000000000000000000000000000000000000000000000000000000600052604160045260246000fd5b612720826126d7565b810181811067ffffffffffffffff8211171561273f5761273e6126e8565b5b80604052505050565b6000612752612683565b905061275e8282612717565b919050565b600067ffffffffffffffff82111561277e5761277d6126e8565b5b612787826126d7565b9050602081019050919050565b82818337600083830152505050565b60006127b66127b184612763565b612748565b9050828152602081018484840111156127d2576127d16126d2565b5b6127dd848285612794565b509392505050565b600082601f8301126127fa576127f96126cd565b5b813561280a8482602086016127a3565b91505092915050565b6000806000806080858703121561282d5761282c61268d565b5b600061283b878288016126b8565b945050602085013567ffffffffffffffff81111561285c5761285b612692565b5b612868878288016127e5565b935050604085013567ffffffffffffffff81111561288957612888612692565b5b612895878288016127e5565b925050606085013567ffffffffffffffff8111156128b6576128b5612692565b5b6128c2878288016127e5565b91505092959194509250565b6000806000606084860312156128e7576128e661268d565b5b60006128f5868287016126b8565b935050602084013567ffffffffffffffff81111561291657612915612692565b5b612922868287016127e5565b925050604084013567ffffffffffffffff81111561294357612942612692565b5b61294f868287016127e5565b9150509250925092565b60006020828403121561296f5761296e61268d565b5b600061297d848285016126b8565b91505092915050565b61298f81612697565b82525050565b600081519050919050565b600082825260208201905092915050565b60005b838110156129cf5780820151818401526020810190506129b4565b60008484015250505050565b60006129e682612995565b6129f081856129a0565b9350612a008185602086016129b1565b612a09816126d7565b840191505092915050565b600060a082019050612a296000830188612986565b612a366020830187612986565b612a436040830186612986565b8181036060830152612a5581856129db565b90508181036080830152612a6981846129db565b90509695505050505050565b6000602082019050612a8a6000830184612986565b92915050565b600081519050919050565b600082825260208201905092915050565b6000819050602082019050919050565b612ac581612697565b82525050565b6000612ad78383612abc565b60208301905092915050565b6000602082019050919050565b6000612afb82612a90565b612b058185612a9b565b9350612b1083612aac565b8060005b83811015612b41578151612b288882612acb565b9750612b3383612ae3565b925050600181019050612b14565b5085935050505092915050565b60006020820190508181036000830152612b688184612af0565b905092915050565b60008060008060008060c08789031215612b8d57612b8c61268d565b5b6000612b9b89828a016126b8565b9650506020612bac89828a016126b8565b955050604087013567ffffffffffffffff811115612bcd57612bcc612692565b5b612bd989828a016127e5565b945050606087013567ffffffffffffffff811115612bfa57612bf9612692565b5b612c0689828a016127e5565b935050608087013567ffffffffffffffff811115612c2757612c26612692565b5b612c3389828a016127e5565b92505060a087013567ffffffffffffffff811115612c5457612c53612692565b5b612c6089828a016127e5565b9150509295509295509295565b600080600080600080600060e0888a031215612c8c57612c8b61268d565b5b600088013567ffffffffffffffff811115612caa57612ca9612692565b5b612cb68a828b016127e5565b9750506020612cc78a828b016126b8565b9650506040612cd88a828b016126b8565b955050606088013567ffffffffffffffff811115612cf957612cf8612692565b5b612d058a828b016127e5565b945050608088013567ffffffffffffffff811115612d2657612d25612692565b5b612d328a828b016127e5565b93505060a088013567ffffffffffffffff811115612d5357612d52612692565b5b612d5f8a828b016127e5565b92505060c088013567ffffffffffffffff811115612d8057612d7f612692565b5b612d8c8a828b016127e5565b91505092959891949750929550565b600080600060608486031215612db457612db361268d565b5b6000612dc2868287016126b8565b9350506020612dd3868287016126b8565b925050604084013567ffffffffffffffff811115612df457612df3612692565b5b612e00868287016127e5565b9150509250925092565b600081519050919050565b600082825260208201905092915050565b6000819050602082019050919050565b600082825260208201905092915050565b6000612e5282612995565b612e5c8185612e36565b9350612e6c8185602086016129b1565b612e75816126d7565b840191505092915050565b600060a083016000830151612e986000860182612abc565b506020830151612eab6020860182612abc565b5060408301518482036040860152612ec38282612e47565b91505060608301518482036060860152612edd8282612e47565b91505060808301518482036080860152612ef78282612e47565b9150508091505092915050565b6000612f108383612e80565b905092915050565b6000602082019050919050565b6000612f3082612e0a565b612f3a8185612e15565b935083602082028501612f4c85612e26565b8060005b85811015612f885784840389528151612f698582612f04565b9450612f7483612f18565b925060208a01995050600181019050612f50565b50829750879550505050505092915050565b60006020820190508181036000830152612fb48184612f25565b905092915050565b600060c0820190508181036000830152612fd681896129db565b9050612fe56020830188612986565b8181036040830152612ff781876129db565b9050818103606083015261300b81866129db565b9050818103608083015261301f81856129db565b905081810360a083015261303381846129db565b9050979650505050505050565b600080604083850312156130575761305661268d565b5b6000613065858286016126b8565b9250506020613076858286016126b8565b9150509250929050565b600060a0820190506130956000830188612986565b6130a26020830187612986565b81810360408301526130b481866129db565b905081810360608301526130c881856129db565b905081810360808301526130dc81846129db565b90509695505050505050565b600060e0820190508181036000830152613102818a6129db565b90506131116020830189612986565b61311e6040830188612986565b818103606083015261313081876129db565b9050818103608083015261314481866129db565b905081810360a083015261315881856129db565b905081810360c083015261316c81846129db565b905098975050505050505050565b600080604083850312156131915761319061268d565b5b600061319f858286016126b8565b925050602083013567ffffffffffffffff8111156131c0576131bf612692565b5b6131cc858286016127e5565b9150509250929050565b600073ffffffffffffffffffffffffffffffffffffffff82169050919050565b6000613201826131d6565b9050919050565b613211816131f6565b82525050565b600060208201905061322c6000830184613208565b92915050565b7f496e76616c69642070617469656e742049440000000000000000000000000000600082015250565b60006132686012836129a0565b915061327382613232565b602082019050919050565b600060208201905081810360008301526132978161325b565b9050919050565b7f496e76616c69642066696c652070617468000000000000000000000000000000600082015250565b60006132d46011836129a0565b91506132df8261329e565b602082019050919050565b60006020820190508181036000830152613303816132c7565b9050919050565b7f4e487b7100000000000000000000000000000000000000000000000000000000600052601160045260246000fd5b600061334482612697565b915061334f83612697565b92508282019050808211156133675761336661330a565b5b92915050565b7f4e487b7100000000000000000000000000000000000000000000000000000000600052602260045260246000fd5b600060028204905060018216806133b457607f821691505b6020821081036133c7576133c661336d565b5b50919050565b60008190508160005260206000209050919050565b60006020601f8301049050919050565b600082821b905092915050565b60006008830261342f7fffffffffffffffffffffffffffffffffffffffffffffffffffffffffffffffff826133f2565b61343986836133f2565b95508019841693508086168417925050509392505050565b6000819050919050565b600061347661347161346c84612697565b613451565b612697565b9050919050565b6000819050919050565b6134908361345b565b6134a461349c8261347d565b8484546133ff565b825550505050565b600090565b6134b96134ac565b6134c4818484613487565b505050565b5b818110156134e8576134dd6000826134b1565b6001810190506134ca565b5050565b601f82111561352d576134fe816133cd565b613507846133e2565b81016020851015613516578190505b61352a613522856133e2565b8301826134c9565b50505b505050565b600082821c905092915050565b600061355060001984600802613532565b1980831691505092915050565b6000613569838361353f565b9150826002028217905092915050565b61358282612995565b67ffffffffffffffff81111561359b5761359a6126e8565b5b6135a5825461339c565b6135b08282856134ec565b600060209050601f8311600181146135e357600084156135d1578287015190505b6135db858261355d565b865550613643565b601f1984166135f1866133cd565b60005b82811015613619578489015182556001820191506020850194506020810190506135f4565b868310156136365784890151613632601f89168261353f565b8355505b6001600288020188555050505b505050505050565b60006060820190506136606000830186612986565b61366d6020830185612986565b818103604083015261367f81846129db565b9050949350505050565b7f4170706f696e746d656e74206e6f7420666f756e640000000000000000000000600082015250565b60006136bf6015836129a0565b91506136ca82613689565b602082019050919050565b600060208201905081810360008301526136ee816136b2565b9050919050565b7f496e76616c696420737461747573000000000000000000000000000000000000600082015250565b600061372b600e836129a0565b9150613736826136f5565b602082019050919050565b6000602082019050818103600083015261375a8161371e565b9050919050565b7f4f6e6c792061646d696e2063616e20706572666f726d2074686973206163746960008201527f6f6e000000000000000000000000000000000000000000000000000000000000602082015250565b60006137bd6022836129a0565b91506137c882613761565b604082019050919050565b600060208201905081810360008301526137ec816137b0565b9050919050565b7f50617469656e7420646f6573206e6f7420657869737400000000000000000000600082015250565b60006138296016836129a0565b9150613834826137f3565b602082019050919050565b600060208201905081810360008301526138588161381c565b9050919050565b7f50617469656e74207265636f726420616c726561647920657869737473000000600082015250565b6000613895601d836129a0565b91506138a08261385f565b602082019050919050565b600060208201905081810360008301526138c481613888565b9050919050565b7f496e76616c696420646f63746f72204944000000000000000000000000000000600082015250565b60006139016011836129a0565b915061390c826138cb565b602082019050919050565b60006020820190508181036000830152613930816138f4565b9050919050565b7f496e76616c6964206461746520616e642074696d650000000000000000000000600082015250565b600061396d6015836129a0565b915061397882613937565b602082019050919050565b6000602082019050818103600083015261399c81613960565b9050919050565b60006080820190506139b86000830187612986565b6139c56020830186612986565b6139d26040830185612986565b81810360608301526139e481846129db565b905095945050505050565b7f4e487b7100000000000000000000000000000000000000000000000000000000600052603260045260246000fd5b6000613a2982612697565b91507fffffffffffffffffffffffffffffffffffffffffffffffffffffffffffffffff8203613a5b57613a5a61330a565b5b600182019050919050565b7f50617469656e74207265636f7264206e6f7420666f756e640000000000000000600082015250565b6000613a9c6018836129a0565b9150613aa782613a66565b602082019050919050565b60006020820190508181036000830152613acb81613a8f565b9050919050565b7f4d65646963616c207265636f7264206e6f7420666f756e640000000000000000600082015250565b6000613b086018836129a0565b9150613b1382613ad2565b602082019050919050565b60006020820190508181036000830152613b3781613afb565b9050919050565b6000613b4982612697565b9150613b5483612697565b9250828203905081811115613b6c57613b6b61330a565b5b92915050565b7f4e487b7100000000000000000000000000000000000000000000000000000000600052603160045260246000fd5b7f4e6f206d65646963616c207265636f72647320666f756e6420666f722074686960008201527f732070617469656e740000000000000000000000000000000000000000000000602082015250565b6000613bfd6029836129a0565b9150613c0882613ba1565b604082019050919050565b60006020820190508181036000830152613c2c81613bf0565b905091905056fea264697066735822122001e6983ad6ddbdc1ff9ff70614ba4edd7d889da3bf5d9b4f97aad607a7596acb64736f6c63430008130033",
  "immutableReferences": {},
  "source": "// SPDX-License-Identifier: MIT\npragma solidity >=0.4.22 <0.9.0;\n\ncontract EHR {\n    struct PatientRecord {\n        string filename;          // File name of the uploaded health record\n        uint patientId;           // Patient ID\n        uint age;                 // Patient's age\n        string joinedDate;        // Date the patient joined\n        string healthConditions;  // Known health conditions\n        string medications;       // Current medications\n        string doctorNotes;       // Doctor's notes\n    }\n\n    struct AppointmentRecord {\n        uint id;\n        uint patientId;\n        uint doctorId;\n        string datetime;\n        string status;\n    }\n\n    struct MedicalRecord {\n        uint recordId;     // Unique ID for the record\n        uint patientId;    // ID of the patient\n        string filePath;   // Path to the medical record file\n        string date;\n        string description;\n    }\n\n    mapping(uint => MedicalRecord[]) public medicalRecords; // Mapping from patient ID to a list of medical records\n    uint public recordCounter;                             // Counter for unique record IDs\n\n    event MedicalRecordAdded(uint patientId, uint recordId, string filePath);\n\n    uint appId;\n    mapping(uint => PatientRecord) public patientRecords; // Mapping of patient ID to records\n    uint[] public patientIds;                             // List of patient IDs (for iteration)\n    address public admin;                                 // Contract admin\n\n    event PatientRecordAdded(uint patientId);\n\n    mapping(uint => AppointmentRecord) public appointments; // Mapping to store appointments by their ID\n    uint[] public appointmentIds; // Array to keep track of all appointment IDs\n\n    // Event to emit when an appointment is booked\n    event AppointmentBooked(uint appointmentId, uint patientId, uint doctorId, string datetime);\n\n    constructor() {\n        admin = msg.sender; // Set the deployer as the admin\n        appId=0;\n        recordCounter = 0; // Initialize record counter\n    }\n\n    modifier onlyAdmin() {\n        require(msg.sender == admin, \"Only admin can perform this action\");\n        _;\n    }\n\n    function bookAppointment(uint patient, uint doctor, string memory date) public {\n        require(patient > 0, \"Invalid patient ID\");\n        require(doctor > 0, \"Invalid doctor ID\");\n        require(bytes(date).length > 0, \"Invalid date and time\");\n\n        // Increment the appointment ID counter\n        appId += 1;\n\n        // Create a new appointment record\n        appointments[appId] = AppointmentRecord({\n            id: appId,\n            patientId: patient,\n            doctorId: doctor,\n            datetime: date,\n            status: \"pending\"\n        });\n\n        // Add the appointment ID to the list\n        appointmentIds.push(appId);\n\n        // Emit the event\n        emit AppointmentBooked(appId, patient, doctor, date);\n    }\n\n    function updateAppointment(uint appointmentId, string memory status) public {\n        // Ensure the appointment exists\n        require(appointments[appointmentId].id != 0, \"Appointment not found\");\n        require(bytes(status).length > 0, \"Invalid status\");\n\n        // Update the status of the appointment\n        appointments[appointmentId].status = status;\n    }\n\n    function updateAppointmentWithDate(uint appointmentId, string memory status,string memory datetime) public {\n        // Ensure the appointment exists\n        require(appointments[appointmentId].id != 0, \"Appointment not found\");\n        require(bytes(status).length > 0, \"Invalid status\");\n\n        // Update the status of the appointment\n        appointments[appointmentId].status = status;\n        appointments[appointmentId].datetime = datetime;\n    }\n\n    function getAppointment(uint appointmentId) public view returns (\n        uint, uint, uint, string memory, string memory\n    ) {\n        require(appointments[appointmentId].id != 0, \"Appointment not found\");\n\n        AppointmentRecord memory appointment = appointments[appointmentId];\n        return (\n            appointment.id,\n            appointment.patientId,\n            appointment.doctorId,\n            appointment.datetime,\n            appointment.status\n        );\n    }\n\n    // Function to get all appointment IDs\n    function getAllAppointmentIds() public view returns (uint[] memory) {\n        return appointmentIds;\n    }\n\n    // Add a new patient record\n    function addPatientRecord(\n        string memory filename,\n        uint patientId,\n        uint age,\n        string memory joinedDate,\n        string memory healthConditions,\n        string memory medications,\n        string memory doctorNotes\n    ) public onlyAdmin {\n        require(patientRecords[patientId].patientId == 0, \"Patient record already exists\"); // Ensure unique patient ID\n\n        PatientRecord memory newRecord = PatientRecord(\n            filename,\n            patientId,\n            age,\n            joinedDate,\n            healthConditions,\n            medications,\n            doctorNotes\n        );\n\n        patientRecords[patientId] = newRecord;\n        patientIds.push(patientId);\n\n        emit PatientRecordAdded(patientId);\n    }\n\n    // Retrieve a patient's record by ID\n    function getPatientRecord(uint patientId) public view returns (\n        string memory,\n        uint,\n        string memory,\n        string memory,\n        string memory,\n        string memory\n    ) {\n        require(patientRecords[patientId].patientId != 0, \"Patient record not found\");\n        PatientRecord memory record = patientRecords[patientId];\n        return (\n            record.filename,\n            record.age,\n            record.joinedDate,\n            record.healthConditions,\n            record.medications,\n            record.doctorNotes\n        );\n    }\n\n    // Retrieve all patient IDs\n    function getAllPatientIds() public view returns (uint[] memory) {\n        return patientIds;\n    }\n\n    function deletePatientRecord(uint patientId) public onlyAdmin {\n        require(patientRecords[patientId].patientId != 0, \"Patient does not exist\");\n\n        delete patientRecords[patientId];\n\n        // Remove patientId from the list\n        for (uint i = 0; i < patientIds.length; i++) {\n            if (patientIds[i] == patientId) {\n                patientIds[i] = patientIds[patientIds.length - 1];\n                patientIds.pop();\n                break;\n            }\n        }\n    }\n\n    function editPatientRecord(\n        uint patientId,\n        uint age,\n        string memory joinedDate,\n        string memory healthConditions,\n        string memory medications,\n        string memory doctorNotes\n    ) public onlyAdmin {\n        require(patientRecords[patientId].patientId != 0, \"Patient does not exist\");\n\n        PatientRecord storage record = patientRecords[patientId];\n        record.age = age;\n        record.joinedDate = joinedDate;\n        record.healthConditions = healthConditions;\n        record.medications = medications;\n        record.doctorNotes = doctorNotes;\n    }\n\n    // Function to add a medical record for a patient\n    function addMedicalRecord(uint patId, string memory filePath,string memory date,string memory desc) public {\n        require(patId > 0, \"Invalid patient ID\");\n        require(bytes(filePath).length > 0, \"Invalid file path\");\n\n        // Increment the record counter\n        recordCounter += 1;\n\n        // Create and add the medical record\n        medicalRecords[patId].push(MedicalRecord({\n            recordId: recordCounter,\n            patientId: patId,\n            filePath: filePath,\n            date: date,\n            description: desc\n        }));\n\n        // Emit the event\n        emit MedicalRecordAdded(patId, recordCounter, filePath);\n    }\n\n    // Function to retrieve all medical records for a specific patient\n    function getMedicalRecords(uint patId) public view returns (MedicalRecord[] memory) {\n        require(medicalRecords[patId].length > 0, \"No medical records found for this patient\");\n        return medicalRecords[patId];\n    }\n\n    // Function to retrieve a specific medical record by record ID\n    function getMedicalRecordById(uint patId, uint recordId) public view returns (uint, uint, string memory,string memory,string memory) {\n        MedicalRecord[] memory records = medicalRecords[patId];\n        for (uint i = 0; i < records.length; i++) {\n            if (records[i].recordId == recordId) {\n                return (records[i].recordId, records[i].patientId, records[i].filePath,records[i].date,records[i].description);\n            }\n        }\n        revert(\"Medical record not found\");\n    }\n\n    function getAllMedicalRecords() public view returns (MedicalRecord[] memory) {\n        uint totalRecordsCount = 0;\n\n        // Calculate the total number of records\n        for (uint i = 0; i < patientIds.length; i++) {\n            totalRecordsCount += medicalRecords[patientIds[i]].length;\n        }\n\n        // Create an array to hold all records\n        MedicalRecord[] memory allRecords = new MedicalRecord[](totalRecordsCount);\n\n        // Add all records to the array\n        uint currentIndex = 0;\n        for (uint i = 0; i < patientIds.length; i++) {\n            uint patientId = patientIds[i];\n            MedicalRecord[] memory records = medicalRecords[patientId];\n            for (uint j = 0; j < records.length; j++) {\n                allRecords[currentIndex] = records[j];\n                currentIndex++;\n            }\n        }\n\n        return allRecords;\n    }\n\n}",
  "sourcePath": "/Users/ms/Downloads/mediplus/contracts/EHR.sol",
  "compiler": {
    "name": "solc",
    "version": "0.8.19+commit.7dd6d404.Emscripten.clang"
  },
  "schemaVersion": "3.4.16",
  "updatedAt": "2025-01-17T11:15:03.321Z",
  "networkType": "ethereum",
  "devdoc": {
    "kind": "dev",
    "methods": {},
    "version": 1
  },
  "userdoc": {
    "kind": "user",
    "methods": {},
    "version": 1
  }
}