{
  "contractName": "NotificationManagement",
  "abi": [
    {
      "inputs": [],
      "stateMutability": "nonpayable",
      "type": "constructor"
    },
    {
      "anonymous": false,
      "inputs": [
        {
          "indexed": false,
          "internalType": "uint256",
          "name": "notId",
          "type": "uint256"
        },
        {
          "indexed": false,
          "internalType": "uint256",
          "name": "notTo",
          "type": "uint256"
        },
        {
          "indexed": false,
          "internalType": "string",
          "name": "notTitle",
          "type": "string"
        }
      ],
      "name": "NotificationAdded",
      "type": "event"
    },
    {
      "inputs": [
        {
          "internalType": "string",
          "name": "notTitle",
          "type": "string"
        },
        {
          "internalType": "string",
          "name": "notDescription",
          "type": "string"
        },
        {
          "internalType": "string",
          "name": "notDate",
          "type": "string"
        },
        {
          "internalType": "uint256",
          "name": "notTo",
          "type": "uint256"
        }
      ],
      "name": "addNotification",
      "outputs": [],
      "stateMutability": "nonpayable",
      "type": "function"
    },
    {
      "inputs": [
        {
          "internalType": "uint256",
          "name": "userId",
          "type": "uint256"
        }
      ],
      "name": "getNotifications",
      "outputs": [
        {
          "components": [
            {
              "internalType": "uint256",
              "name": "notId",
              "type": "uint256"
            },
            {
              "internalType": "string",
              "name": "notTitle",
              "type": "string"
            },
            {
              "internalType": "string",
              "name": "notDescription",
              "type": "string"
            },
            {
              "internalType": "string",
              "name": "notDate",
              "type": "string"
            },
            {
              "internalType": "uint256",
              "name": "notTo",
              "type": "uint256"
            },
            {
              "internalType": "bool",
              "name": "readStatus",
              "type": "bool"
            }
          ],
          "internalType": "struct NotificationManagement.Notification[]",
          "name": "",
          "type": "tuple[]"
        }
      ],
      "stateMutability": "view",
      "type": "function",
      "constant": true
    },
    {
      "inputs": [
        {
          "internalType": "uint256",
          "name": "userId",
          "type": "uint256"
        },
        {
          "internalType": "uint256",
          "name": "notId",
          "type": "uint256"
        }
      ],
      "name": "markAsRead",
      "outputs": [],
      "stateMutability": "nonpayable",
      "type": "function"
    },
    {
      "inputs": [
        {
          "internalType": "uint256",
          "name": "userId",
          "type": "uint256"
        }
      ],
      "name": "getUnreadNotifications",
      "outputs": [
        {
          "components": [
            {
              "internalType": "uint256",
              "name": "notId",
              "type": "uint256"
            },
            {
              "internalType": "string",
              "name": "notTitle",
              "type": "string"
            },
            {
              "internalType": "string",
              "name": "notDescription",
              "type": "string"
            },
            {
              "internalType": "string",
              "name": "notDate",
              "type": "string"
            },
            {
              "internalType": "uint256",
              "name": "notTo",
              "type": "uint256"
            },
            {
              "internalType": "bool",
              "name": "readStatus",
              "type": "bool"
            }
          ],
          "internalType": "struct NotificationManagement.Notification[]",
          "name": "",
          "type": "tuple[]"
        }
      ],
      "stateMutability": "view",
      "type": "function",
      "constant": true
    }
  ],
  "bytecode": "0x608060405234801561001057600080fd5b50600080819055506114cc806100276000396000f3fe608060405234801561001057600080fd5b506004361061004c5760003560e01c806311f2de761461005157806320322580146100815780632ec63a0e146100b1578063c7d2e94d146100cd575b600080fd5b61006b60048036038101906100669190610a39565b6100e9565b6040516100789190610c79565b60405180910390f35b61009b60048036038101906100969190610a39565b610340565b6040516100a89190610c79565b60405180910390f35b6100cb60048036038101906100c69190610c9b565b6106be565b005b6100e760048036038101906100e29190610e10565b6107a6565b005b606060016000838152602001908152602001600020805480602002602001604051908101604052809291908181526020016000905b8282101561033557838290600052602060002090600602016040518060c00160405290816000820154815260200160018201805461015b90610efa565b80601f016020809104026020016040519081016040528092919081815260200182805461018790610efa565b80156101d45780601f106101a9576101008083540402835291602001916101d4565b820191906000526020600020905b8154815290600101906020018083116101b757829003601f168201915b505050505081526020016002820180546101ed90610efa565b80601f016020809104026020016040519081016040528092919081815260200182805461021990610efa565b80156102665780601f1061023b57610100808354040283529160200191610266565b820191906000526020600020905b81548152906001019060200180831161024957829003601f168201915b5050505050815260200160038201805461027f90610efa565b80601f01602080910402602001604051908101604052809291908181526020018280546102ab90610efa565b80156102f85780601f106102cd576101008083540402835291602001916102f8565b820191906000526020600020905b8154815290600101906020018083116102db57829003601f168201915b50505050508152602001600482015481526020016005820160009054906101000a900460ff1615151515815250508152602001906001019061011e565b505050509050919050565b606060006001600084815260200190815260200160002090506000805b82805490508110156103c15782818154811061037c5761037b610f2b565b5b906000526020600020906006020160050160009054906101000a900460ff166103ae5781806103aa90610f89565b9250505b80806103b990610f89565b91505061035d565b5060008167ffffffffffffffff8111156103de576103dd610ce5565b5b60405190808252806020026020018201604052801561041757816020015b6104046109b7565b8152602001906001900390816103fc5790505b5090506000805b84805490508110156106b15784818154811061043d5761043c610f2b565b5b906000526020600020906006020160050160009054906101000a900460ff1661069e5784818154811061047357610472610f2b565b5b90600052602060002090600602016040518060c0016040529081600082015481526020016001820180546104a690610efa565b80601f01602080910402602001604051908101604052809291908181526020018280546104d290610efa565b801561051f5780601f106104f45761010080835404028352916020019161051f565b820191906000526020600020905b81548152906001019060200180831161050257829003601f168201915b5050505050815260200160028201805461053890610efa565b80601f016020809104026020016040519081016040528092919081815260200182805461056490610efa565b80156105b15780601f10610586576101008083540402835291602001916105b1565b820191906000526020600020905b81548152906001019060200180831161059457829003601f168201915b505050505081526020016003820180546105ca90610efa565b80601f01602080910402602001604051908101604052809291908181526020018280546105f690610efa565b80156106435780601f1061061857610100808354040283529160200191610643565b820191906000526020600020905b81548152906001019060200180831161062657829003601f168201915b50505050508152602001600482015481526020016005820160009054906101000a900460ff16151515158152505083838151811061068457610683610f2b565b5b6020026020010181905250818061069a90610f89565b9250505b80806106a990610f89565b91505061041e565b5081945050505050919050565b600060016000848152602001908152602001600020905060005b818054905081101561076657828282815481106106f8576106f7610f2b565b5b9060005260206000209060060201600001540361075357600182828154811061072457610723610f2b565b5b906000526020600020906006020160050160006101000a81548160ff02191690831515021790555050506107a2565b808061075e90610f89565b9150506106d8565b506040517f08c379a00000000000000000000000000000000000000000000000000000000081526004016107999061102e565b60405180910390fd5b5050565b600081116107e9576040517f08c379a00000000000000000000000000000000000000000000000000000000081526004016107e09061109a565b60405180910390fd5b600084511161082d576040517f08c379a000000000000000000000000000000000000000000000000000000000815260040161082490611106565b60405180910390fd5b6000825111610871576040517f08c379a000000000000000000000000000000000000000000000000000000000815260040161086890611172565b60405180910390fd5b60008081548092919061088390610f89565b919050555060006040518060c0016040528060005481526020018681526020018581526020018481526020018381526020016000151581525090506001600083815260200190815260200160002081908060018154018082558091505060019003906000526020600020906006020160009091909190915060008201518160000155602082015181600101908161091a919061133e565b506040820151816002019081610930919061133e565b506060820151816003019081610946919061133e565b506080820151816004015560a08201518160050160006101000a81548160ff02191690831515021790555050507fed0def5d1ab3044fcb9dff7a3cb2d56de0d60573ed88988ff66c60887a91b93960005483876040516109a893929190611458565b60405180910390a15050505050565b6040518060c0016040528060008152602001606081526020016060815260200160608152602001600081526020016000151581525090565b6000604051905090565b600080fd5b600080fd5b6000819050919050565b610a1681610a03565b8114610a2157600080fd5b50565b600081359050610a3381610a0d565b92915050565b600060208284031215610a4f57610a4e6109f9565b5b6000610a5d84828501610a24565b91505092915050565b600081519050919050565b600082825260208201905092915050565b6000819050602082019050919050565b610a9b81610a03565b82525050565b600081519050919050565b600082825260208201905092915050565b60005b83811015610adb578082015181840152602081019050610ac0565b60008484015250505050565b6000601f19601f8301169050919050565b6000610b0382610aa1565b610b0d8185610aac565b9350610b1d818560208601610abd565b610b2681610ae7565b840191505092915050565b60008115159050919050565b610b4681610b31565b82525050565b600060c083016000830151610b646000860182610a92565b5060208301518482036020860152610b7c8282610af8565b91505060408301518482036040860152610b968282610af8565b91505060608301518482036060860152610bb08282610af8565b9150506080830151610bc56080860182610a92565b5060a0830151610bd860a0860182610b3d565b508091505092915050565b6000610bef8383610b4c565b905092915050565b6000602082019050919050565b6000610c0f82610a66565b610c198185610a71565b935083602082028501610c2b85610a82565b8060005b85811015610c675784840389528151610c488582610be3565b9450610c5383610bf7565b925060208a01995050600181019050610c2f565b50829750879550505050505092915050565b60006020820190508181036000830152610c938184610c04565b905092915050565b60008060408385031215610cb257610cb16109f9565b5b6000610cc085828601610a24565b9250506020610cd185828601610a24565b9150509250929050565b600080fd5b600080fd5b7f4e487b7100000000000000000000000000000000000000000000000000000000600052604160045260246000fd5b610d1d82610ae7565b810181811067ffffffffffffffff82111715610d3c57610d3b610ce5565b5b80604052505050565b6000610d4f6109ef565b9050610d5b8282610d14565b919050565b600067ffffffffffffffff821115610d7b57610d7a610ce5565b5b610d8482610ae7565b9050602081019050919050565b82818337600083830152505050565b6000610db3610dae84610d60565b610d45565b905082815260208101848484011115610dcf57610dce610ce0565b5b610dda848285610d91565b509392505050565b600082601f830112610df757610df6610cdb565b5b8135610e07848260208601610da0565b91505092915050565b60008060008060808587031215610e2a57610e296109f9565b5b600085013567ffffffffffffffff811115610e4857610e476109fe565b5b610e5487828801610de2565b945050602085013567ffffffffffffffff811115610e7557610e746109fe565b5b610e8187828801610de2565b935050604085013567ffffffffffffffff811115610ea257610ea16109fe565b5b610eae87828801610de2565b9250506060610ebf87828801610a24565b91505092959194509250565b7f4e487b7100000000000000000000000000000000000000000000000000000000600052602260045260246000fd5b60006002820490506001821680610f1257607f821691505b602082108103610f2557610f24610ecb565b5b50919050565b7f4e487b7100000000000000000000000000000000000000000000000000000000600052603260045260246000fd5b7f4e487b7100000000000000000000000000000000000000000000000000000000600052601160045260246000fd5b6000610f9482610a03565b91507fffffffffffffffffffffffffffffffffffffffffffffffffffffffffffffffff8203610fc657610fc5610f5a565b5b600182019050919050565b600082825260208201905092915050565b7f4e6f74696669636174696f6e206e6f7420666f756e6400000000000000000000600082015250565b6000611018601683610fd1565b915061102382610fe2565b602082019050919050565b600060208201905081810360008301526110478161100b565b9050919050565b7f496e76616c696420726563697069656e74204944000000000000000000000000600082015250565b6000611084601483610fd1565b915061108f8261104e565b602082019050919050565b600060208201905081810360008301526110b381611077565b9050919050565b7f5469746c652063616e6e6f7420626520656d7074790000000000000000000000600082015250565b60006110f0601583610fd1565b91506110fb826110ba565b602082019050919050565b6000602082019050818103600083015261111f816110e3565b9050919050565b7f446174652063616e6e6f7420626520656d707479000000000000000000000000600082015250565b600061115c601483610fd1565b915061116782611126565b602082019050919050565b6000602082019050818103600083015261118b8161114f565b9050919050565b60008190508160005260206000209050919050565b60006020601f8301049050919050565b600082821b905092915050565b6000600883026111f47fffffffffffffffffffffffffffffffffffffffffffffffffffffffffffffffff826111b7565b6111fe86836111b7565b95508019841693508086168417925050509392505050565b6000819050919050565b600061123b61123661123184610a03565b611216565b610a03565b9050919050565b6000819050919050565b61125583611220565b61126961126182611242565b8484546111c4565b825550505050565b600090565b61127e611271565b61128981848461124c565b505050565b5b818110156112ad576112a2600082611276565b60018101905061128f565b5050565b601f8211156112f2576112c381611192565b6112cc846111a7565b810160208510156112db578190505b6112ef6112e7856111a7565b83018261128e565b50505b505050565b600082821c905092915050565b6000611315600019846008026112f7565b1980831691505092915050565b600061132e8383611304565b9150826002028217905092915050565b61134782610aa1565b67ffffffffffffffff8111156113605761135f610ce5565b5b61136a8254610efa565b6113758282856112b1565b600060209050601f8311600181146113a85760008415611396578287015190505b6113a08582611322565b865550611408565b601f1984166113b686611192565b60005b828110156113de578489015182556001820191506020850194506020810190506113b9565b868310156113fb57848901516113f7601f891682611304565b8355505b6001600288020188555050505b505050505050565b61141981610a03565b82525050565b600061142a82610aa1565b6114348185610fd1565b9350611444818560208601610abd565b61144d81610ae7565b840191505092915050565b600060608201905061146d6000830186611410565b61147a6020830185611410565b818103604083015261148c818461141f565b905094935050505056fea26469706673582212207b67f15aaaab75dd16c67a7c308b0cce51d5038e8d6bbb3c316cbe6e3fc95b0964736f6c63430008130033",
  "immutableReferences": {},
  "source": "// SPDX-License-Identifier: MIT\npragma solidity >=0.4.22 <0.9.0;\n\ncontract NotificationManagement {\n    struct Notification {\n        uint notId;           // Unique notification ID\n        string notTitle;      // Title of the notification\n        string notDescription;// Description of the notification\n        string notDate;       // Date of the notification\n        uint notTo;           // Recipient's ID (e.g., user ID)\n        bool readStatus;      // Read status of the notification\n    }\n\n    uint private notificationCounter; // Counter for unique notification IDs\n    mapping(uint => Notification[]) private userNotifications; // Maps user ID to their notifications\n    event NotificationAdded(uint notId, uint notTo, string notTitle); // Event for notification addition\n\n    constructor() {\n        notificationCounter = 0;\n    }\n\n    // Add a new notification for a user\n    function addNotification(\n        string memory notTitle,\n        string memory notDescription,\n        string memory notDate,\n        uint notTo\n    ) public {\n        require(notTo > 0, \"Invalid recipient ID\");\n        require(bytes(notTitle).length > 0, \"Title cannot be empty\");\n        require(bytes(notDate).length > 0, \"Date cannot be empty\");\n\n        notificationCounter++;\n\n        Notification memory newNotification = Notification({\n            notId: notificationCounter,\n            notTitle: notTitle,\n            notDescription: notDescription,\n            notDate: notDate,\n            notTo: notTo,\n            readStatus: false\n        });\n\n        userNotifications[notTo].push(newNotification);\n\n        emit NotificationAdded(notificationCounter, notTo, notTitle);\n    }\n\n    // Retrieve all notifications for a specific user\n    function getNotifications(uint userId) public view returns (Notification[] memory) {\n        return userNotifications[userId];\n    }\n\n    // Mark a specific notification as read\n    function markAsRead(uint userId, uint notId) public {\n        Notification[] storage notifications = userNotifications[userId];\n        for (uint i = 0; i < notifications.length; i++) {\n            if (notifications[i].notId == notId) {\n                notifications[i].readStatus = true;\n                return;\n            }\n        }\n        revert(\"Notification not found\");\n    }\n\n    // Retrieve unread notifications for a user\n    function getUnreadNotifications(uint userId) public view returns (Notification[] memory) {\n        Notification[] storage notifications = userNotifications[userId];\n        uint unreadCount = 0;\n\n        // Count unread notifications\n        for (uint i = 0; i < notifications.length; i++) {\n            if (!notifications[i].readStatus) {\n                unreadCount++;\n            }\n        }\n\n        // Create an array to store unread notifications\n        Notification[] memory unreadNotifications = new Notification[](unreadCount);\n        uint index = 0;\n\n        // Add unread notifications to the array\n        for (uint i = 0; i < notifications.length; i++) {\n            if (!notifications[i].readStatus) {\n                unreadNotifications[index] = notifications[i];\n                index++;\n            }\n        }\n\n        return unreadNotifications;\n    }\n}\n",
  "sourcePath": "/Users/ms/Downloads/mediplus/contracts/NotificationManagement.sol",
  "compiler": {
    "name": "solc",
    "version": "0.8.19+commit.7dd6d404.Emscripten.clang"
  },
  "schemaVersion": "3.4.16",
  "updatedAt": "2025-01-17T11:15:03.652Z",
  "networkType": "ethereum",
  "devdoc": {
    "kind": "dev",
    "methods": {},
    "version": 1
  },
  "userdoc": {
    "kind": "user",
    "methods": {},
    "version": 1
  }
}