{
  "contractName": "UserManagement",
  "abi": [
    {
      "inputs": [],
      "stateMutability": "nonpayable",
      "type": "constructor"
    },
    {
      "inputs": [
        {
          "internalType": "string",
          "name": "username",
          "type": "string"
        },
        {
          "internalType": "string",
          "name": "password",
          "type": "string"
        }
      ],
      "name": "validateAdmin",
      "outputs": [
        {
          "internalType": "bool",
          "name": "",
          "type": "bool"
        }
      ],
      "stateMutability": "view",
      "type": "function",
      "constant": true
    },
    {
      "inputs": [
        {
          "internalType": "address",
          "name": "wallet",
          "type": "address"
        },
        {
          "internalType": "string",
          "name": "name",
          "type": "string"
        },
        {
          "internalType": "string",
          "name": "password",
          "type": "string"
        },
        {
          "internalType": "string",
          "name": "email",
          "type": "string"
        },
        {
          "internalType": "string",
          "name": "doclicense",
          "type": "string"
        },
        {
          "internalType": "string",
          "name": "docspecial",
          "type": "string"
        }
      ],
      "name": "addDoctor",
      "outputs": [],
      "stateMutability": "nonpayable",
      "type": "function"
    },
    {
      "inputs": [
        {
          "internalType": "address",
          "name": "wallet",
          "type": "address"
        },
        {
          "internalType": "string",
          "name": "name",
          "type": "string"
        },
        {
          "internalType": "string",
          "name": "password",
          "type": "string"
        },
        {
          "internalType": "string",
          "name": "email",
          "type": "string"
        }
      ],
      "name": "addPatient",
      "outputs": [],
      "stateMutability": "nonpayable",
      "type": "function"
    },
    {
      "inputs": [],
      "name": "viewAllDoctors",
      "outputs": [
        {
          "components": [
            {
              "internalType": "address",
              "name": "_doctorAddress",
              "type": "address"
            },
            {
              "internalType": "uint256",
              "name": "_doctorId",
              "type": "uint256"
            },
            {
              "internalType": "string",
              "name": "_doctorName",
              "type": "string"
            },
            {
              "internalType": "string",
              "name": "_doctorPassword",
              "type": "string"
            },
            {
              "internalType": "string",
              "name": "_doctorEmail",
              "type": "string"
            },
            {
              "internalType": "string",
              "name": "_doctorLicense",
              "type": "string"
            },
            {
              "internalType": "string",
              "name": "_doctorSpecialisation",
              "type": "string"
            },
            {
              "internalType": "bool",
              "name": "_exist",
              "type": "bool"
            }
          ],
          "internalType": "struct UserManagement.Doctor[]",
          "name": "",
          "type": "tuple[]"
        }
      ],
      "stateMutability": "view",
      "type": "function",
      "constant": true
    },
    {
      "inputs": [],
      "name": "viewAllPatients",
      "outputs": [
        {
          "components": [
            {
              "internalType": "address",
              "name": "_patientAddress",
              "type": "address"
            },
            {
              "internalType": "uint256",
              "name": "_patientId",
              "type": "uint256"
            },
            {
              "internalType": "string",
              "name": "_patientName",
              "type": "string"
            },
            {
              "internalType": "string",
              "name": "_patientPassword",
              "type": "string"
            },
            {
              "internalType": "string",
              "name": "_patientEmail",
              "type": "string"
            },
            {
              "internalType": "string",
              "name": "_patientGender",
              "type": "string"
            },
            {
              "internalType": "string",
              "name": "_patientPhone",
              "type": "string"
            },
            {
              "internalType": "string",
              "name": "_patientHomeAddress",
              "type": "string"
            },
            {
              "internalType": "string",
              "name": "_patientProfilePhoto",
              "type": "string"
            },
            {
              "internalType": "bool",
              "name": "_exist",
              "type": "bool"
            }
          ],
          "internalType": "struct UserManagement.Patient[]",
          "name": "",
          "type": "tuple[]"
        }
      ],
      "stateMutability": "view",
      "type": "function",
      "constant": true
    },
    {
      "inputs": [
        {
          "internalType": "address",
          "name": "wallet",
          "type": "address"
        }
      ],
      "name": "viewDoctorByWallet",
      "outputs": [
        {
          "components": [
            {
              "internalType": "address",
              "name": "_doctorAddress",
              "type": "address"
            },
            {
              "internalType": "uint256",
              "name": "_doctorId",
              "type": "uint256"
            },
            {
              "internalType": "string",
              "name": "_doctorName",
              "type": "string"
            },
            {
              "internalType": "string",
              "name": "_doctorPassword",
              "type": "string"
            },
            {
              "internalType": "string",
              "name": "_doctorEmail",
              "type": "string"
            },
            {
              "internalType": "string",
              "name": "_doctorLicense",
              "type": "string"
            },
            {
              "internalType": "string",
              "name": "_doctorSpecialisation",
              "type": "string"
            },
            {
              "internalType": "bool",
              "name": "_exist",
              "type": "bool"
            }
          ],
          "internalType": "struct UserManagement.Doctor",
          "name": "",
          "type": "tuple"
        }
      ],
      "stateMutability": "view",
      "type": "function",
      "constant": true
    },
    {
      "inputs": [
        {
          "internalType": "address",
          "name": "wallet",
          "type": "address"
        }
      ],
      "name": "viewPatientByWallet",
      "outputs": [
        {
          "components": [
            {
              "internalType": "address",
              "name": "_patientAddress",
              "type": "address"
            },
            {
              "internalType": "uint256",
              "name": "_patientId",
              "type": "uint256"
            },
            {
              "internalType": "string",
              "name": "_patientName",
              "type": "string"
            },
            {
              "internalType": "string",
              "name": "_patientPassword",
              "type": "string"
            },
            {
              "internalType": "string",
              "name": "_patientEmail",
              "type": "string"
            },
            {
              "internalType": "string",
              "name": "_patientGender",
              "type": "string"
            },
            {
              "internalType": "string",
              "name": "_patientPhone",
              "type": "string"
            },
            {
              "internalType": "string",
              "name": "_patientHomeAddress",
              "type": "string"
            },
            {
              "internalType": "string",
              "name": "_patientProfilePhoto",
              "type": "string"
            },
            {
              "internalType": "bool",
              "name": "_exist",
              "type": "bool"
            }
          ],
          "internalType": "struct UserManagement.Patient",
          "name": "",
          "type": "tuple"
        }
      ],
      "stateMutability": "view",
      "type": "function",
      "constant": true
    },
    {
      "inputs": [
        {
          "internalType": "uint256",
          "name": "docI",
          "type": "uint256"
        }
      ],
      "name": "viewDoctorById",
      "outputs": [
        {
          "components": [
            {
              "internalType": "address",
              "name": "_doctorAddress",
              "type": "address"
            },
            {
              "internalType": "uint256",
              "name": "_doctorId",
              "type": "uint256"
            },
            {
              "internalType": "string",
              "name": "_doctorName",
              "type": "string"
            },
            {
              "internalType": "string",
              "name": "_doctorPassword",
              "type": "string"
            },
            {
              "internalType": "string",
              "name": "_doctorEmail",
              "type": "string"
            },
            {
              "internalType": "string",
              "name": "_doctorLicense",
              "type": "string"
            },
            {
              "internalType": "string",
              "name": "_doctorSpecialisation",
              "type": "string"
            },
            {
              "internalType": "bool",
              "name": "_exist",
              "type": "bool"
            }
          ],
          "internalType": "struct UserManagement.Doctor",
          "name": "",
          "type": "tuple"
        }
      ],
      "stateMutability": "view",
      "type": "function",
      "constant": true
    },
    {
      "inputs": [
        {
          "internalType": "uint256",
          "name": "patI",
          "type": "uint256"
        }
      ],
      "name": "viewPatientById",
      "outputs": [
        {
          "components": [
            {
              "internalType": "address",
              "name": "_patientAddress",
              "type": "address"
            },
            {
              "internalType": "uint256",
              "name": "_patientId",
              "type": "uint256"
            },
            {
              "internalType": "string",
              "name": "_patientName",
              "type": "string"
            },
            {
              "internalType": "string",
              "name": "_patientPassword",
              "type": "string"
            },
            {
              "internalType": "string",
              "name": "_patientEmail",
              "type": "string"
            },
            {
              "internalType": "string",
              "name": "_patientGender",
              "type": "string"
            },
            {
              "internalType": "string",
              "name": "_patientPhone",
              "type": "string"
            },
            {
              "internalType": "string",
              "name": "_patientHomeAddress",
              "type": "string"
            },
            {
              "internalType": "string",
              "name": "_patientProfilePhoto",
              "type": "string"
            },
            {
              "internalType": "bool",
              "name": "_exist",
              "type": "bool"
            }
          ],
          "internalType": "struct UserManagement.Patient",
          "name": "",
          "type": "tuple"
        }
      ],
      "stateMutability": "view",
      "type": "function",
      "constant": true
    },
    {
      "inputs": [
        {
          "internalType": "string",
          "name": "email",
          "type": "string"
        },
        {
          "internalType": "string",
          "name": "password",
          "type": "string"
        }
      ],
      "name": "doctorLogin",
      "outputs": [
        {
          "internalType": "bool",
          "name": "",
          "type": "bool"
        }
      ],
      "stateMutability": "view",
      "type": "function",
      "constant": true
    },
    {
      "inputs": [
        {
          "internalType": "string",
          "name": "email",
          "type": "string"
        },
        {
          "internalType": "string",
          "name": "password",
          "type": "string"
        }
      ],
      "name": "patientLogin",
      "outputs": [
        {
          "internalType": "bool",
          "name": "",
          "type": "bool"
        }
      ],
      "stateMutability": "view",
      "type": "function",
      "constant": true
    },
    {
      "inputs": [
        {
          "internalType": "string",
          "name": "email",
          "type": "string"
        }
      ],
      "name": "viewPatientByEmail",
      "outputs": [
        {
          "components": [
            {
              "internalType": "address",
              "name": "_patientAddress",
              "type": "address"
            },
            {
              "internalType": "uint256",
              "name": "_patientId",
              "type": "uint256"
            },
            {
              "internalType": "string",
              "name": "_patientName",
              "type": "string"
            },
            {
              "internalType": "string",
              "name": "_patientPassword",
              "type": "string"
            },
            {
              "internalType": "string",
              "name": "_patientEmail",
              "type": "string"
            },
            {
              "internalType": "string",
              "name": "_patientGender",
              "type": "string"
            },
            {
              "internalType": "string",
              "name": "_patientPhone",
              "type": "string"
            },
            {
              "internalType": "string",
              "name": "_patientHomeAddress",
              "type": "string"
            },
            {
              "internalType": "string",
              "name": "_patientProfilePhoto",
              "type": "string"
            },
            {
              "internalType": "bool",
              "name": "_exist",
              "type": "bool"
            }
          ],
          "internalType": "struct UserManagement.Patient",
          "name": "",
          "type": "tuple"
        }
      ],
      "stateMutability": "view",
      "type": "function",
      "constant": true
    },
    {
      "inputs": [
        {
          "internalType": "string",
          "name": "name",
          "type": "string"
        },
        {
          "internalType": "string",
          "name": "email",
          "type": "string"
        },
        {
          "internalType": "string",
          "name": "gender",
          "type": "string"
        },
        {
          "internalType": "string",
          "name": "phone",
          "type": "string"
        },
        {
          "internalType": "string",
          "name": "homeAddress",
          "type": "string"
        }
      ],
      "name": "updatePatientByEmail",
      "outputs": [],
      "stateMutability": "nonpayable",
      "type": "function"
    },
    {
      "inputs": [
        {
          "internalType": "string",
          "name": "photo",
          "type": "string"
        },
        {
          "internalType": "string",
          "name": "email",
          "type": "string"
        }
      ],
      "name": "updatePatientPhoto",
      "outputs": [],
      "stateMutability": "nonpayable",
      "type": "function"
    },
    {
      "inputs": [
        {
          "internalType": "string",
          "name": "email",
          "type": "string"
        }
      ],
      "name": "viewDoctorByEmail",
      "outputs": [
        {
          "components": [
            {
              "internalType": "address",
              "name": "_doctorAddress",
              "type": "address"
            },
            {
              "internalType": "uint256",
              "name": "_doctorId",
              "type": "uint256"
            },
            {
              "internalType": "string",
              "name": "_doctorName",
              "type": "string"
            },
            {
              "internalType": "string",
              "name": "_doctorPassword",
              "type": "string"
            },
            {
              "internalType": "string",
              "name": "_doctorEmail",
              "type": "string"
            },
            {
              "internalType": "string",
              "name": "_doctorLicense",
              "type": "string"
            },
            {
              "internalType": "string",
              "name": "_doctorSpecialisation",
              "type": "string"
            },
            {
              "internalType": "bool",
              "name": "_exist",
              "type": "bool"
            }
          ],
          "internalType": "struct UserManagement.Doctor",
          "name": "",
          "type": "tuple"
        }
      ],
      "stateMutability": "view",
      "type": "function",
      "constant": true
    },
    {
      "inputs": [],
      "name": "viewAdmin",
      "outputs": [
        {
          "internalType": "address",
          "name": "",
          "type": "address"
        },
        {
          "internalType": "string",
          "name": "",
          "type": "string"
        }
      ],
      "stateMutability": "view",
      "type": "function",
      "constant": true
    },
    {
      "inputs": [
        {
          "internalType": "uint256",
          "name": "docI",
          "type": "uint256"
        }
      ],
      "name": "getDoctorNameById",
      "outputs": [
        {
          "internalType": "string",
          "name": "",
          "type": "string"
        }
      ],
      "stateMutability": "view",
      "type": "function",
      "constant": true
    },
    {
      "inputs": [
        {
          "internalType": "uint256",
          "name": "patI",
          "type": "uint256"
        }
      ],
      "name": "getPatientNameById",
      "outputs": [
        {
          "internalType": "string",
          "name": "",
          "type": "string"
        }
      ],
      "stateMutability": "view",
      "type": "function",
      "constant": true
    }
  ],
  "bytecode": "0x60806040526040518060400160405280600f81526020017f61646d696e40676d61696c2e636f6d0000000000000000000000000000000000815250600190816200004a919062000370565b506040518060400160405280600881526020017f61646d696e3132330000000000000000000000000000000000000000000000008152506002908162000091919062000370565b503480156200009f57600080fd5b50336000806101000a81548173ffffffffffffffffffffffffffffffffffffffff021916908373ffffffffffffffffffffffffffffffffffffffff1602179055506000600381905550600060048190555062000457565b600081519050919050565b7f4e487b7100000000000000000000000000000000000000000000000000000000600052604160045260246000fd5b7f4e487b7100000000000000000000000000000000000000000000000000000000600052602260045260246000fd5b600060028204905060018216806200017857607f821691505b6020821081036200018e576200018d62000130565b5b50919050565b60008190508160005260206000209050919050565b60006020601f8301049050919050565b600082821b905092915050565b600060088302620001f87fffffffffffffffffffffffffffffffffffffffffffffffffffffffffffffffff82620001b9565b620002048683620001b9565b95508019841693508086168417925050509392505050565b6000819050919050565b6000819050919050565b6000620002516200024b62000245846200021c565b62000226565b6200021c565b9050919050565b6000819050919050565b6200026d8362000230565b620002856200027c8262000258565b848454620001c6565b825550505050565b600090565b6200029c6200028d565b620002a981848462000262565b505050565b5b81811015620002d157620002c560008262000292565b600181019050620002af565b5050565b601f8211156200032057620002ea8162000194565b620002f584620001a9565b8101602085101562000305578190505b6200031d6200031485620001a9565b830182620002ae565b50505b505050565b600082821c905092915050565b6000620003456000198460080262000325565b1980831691505092915050565b600062000360838362000332565b9150826002028217905092915050565b6200037b82620000f6565b67ffffffffffffffff81111562000397576200039662000101565b5b620003a382546200015f565b620003b0828285620002d5565b600060209050601f831160018114620003e85760008415620003d3578287015190505b620003df858262000352565b8655506200044f565b601f198416620003f88662000194565b60005b828110156200042257848901518255600182019150602085019450602081019050620003fb565b868310156200044257848901516200043e601f89168262000332565b8355505b6001600288020188555050505b505050505050565b61575e80620004676000396000f3fe608060405234801561001057600080fd5b50600436106101165760003560e01c806388536168116100a2578063c58d703411610071578063c58d70341461032c578063d46d20311461035c578063e0964f9f1461037a578063ee38d02d14610396578063f775f6f6146103c657610116565b8063885361681461027d5780638effab65146102ad5780639910ed9a146102dd5780639c392c2a146102fc57610116565b8063664ca36b116100e9578063664ca36b1461019f57806370f3b206146101cf57806372ec794b146101ff5780637395be371461022f5780638609acde1461024d57610116565b80631128c9ea1461011b5780632660b7a2146101375780632c76361f1461016757806333931fe414610183575b600080fd5b61013560048036038101906101309190614449565b6103f6565b005b610151600480360381019061014c9190614598565b610687565b60405161015e9190614644565b60405180910390f35b610181600480360381019061017c9190614666565b6106a3565b005b61019d60048036038101906101989190614721565b610a40565b005b6101b960048036038101906101b49190614721565b610bd9565b6040516101c691906147b4565b60405180910390f35b6101e960048036038101906101e491906147cf565b611032565b6040516101f6919061493f565b60405180910390f35b61021960048036038101906102149190614961565b611470565b604051610226919061493f565b60405180910390f35b6102376118e2565b6040516102449190614b70565b60405180910390f35b61026760048036038101906102629190614598565b611e8c565b604051610274919061493f565b60405180910390f35b610297600480360381019061029291906147cf565b6122d9565b6040516102a49190614c96565b60405180910390f35b6102c760048036038101906102c29190614598565b61283b565b6040516102d49190614644565b60405180910390f35b6102e5612857565b6040516102f3929190614cc7565b60405180910390f35b61031660048036038101906103119190614961565b612912565b6040516103239190614c96565b60405180910390f35b61034660048036038101906103419190614721565b612ea8565b60405161035391906147b4565b60405180910390f35b610364612f0f565b6040516103719190614e85565b60405180910390f35b610394600480360381019061038f9190614ea7565b613395565b005b6103b060048036038101906103ab9190614721565b6136db565b6040516103bd91906147b4565b60405180910390f35b6103e060048036038101906103db9190614598565b613c58565b6040516103ed9190614c96565b60405180910390f35b600560008773ffffffffffffffffffffffffffffffffffffffff1673ffffffffffffffffffffffffffffffffffffffff16815260200190815260200160002060070160009054906101000a900460ff1615610486576040517f08c379a000000000000000000000000000000000000000000000000000000000815260040161047d90614ffa565b60405180910390fd5b6001600360008282546104999190615049565b9250508190555060006040518061010001604052808873ffffffffffffffffffffffffffffffffffffffff168152602001600354815260200187815260200186815260200185815260200184815260200183815260200160011515815250905080600560008973ffffffffffffffffffffffffffffffffffffffff1673ffffffffffffffffffffffffffffffffffffffff16815260200190815260200160002060008201518160000160006101000a81548173ffffffffffffffffffffffffffffffffffffffff021916908373ffffffffffffffffffffffffffffffffffffffff16021790555060208201518160010155604082015181600201908161059f9190615289565b5060608201518160030190816105b59190615289565b5060808201518160040190816105cb9190615289565b5060a08201518160050190816105e19190615289565b5060c08201518160060190816105f79190615289565b5060e08201518160070160006101000a81548160ff0219169083151502179055509050506006879080600181540180825580915050600190039060005260206000200160009091909190916101000a81548173ffffffffffffffffffffffffffffffffffffffff021916908373ffffffffffffffffffffffffffffffffffffffff16021790555050505050505050565b6060600061069483613c58565b90508060400151915050919050565b600760008573ffffffffffffffffffffffffffffffffffffffff1673ffffffffffffffffffffffffffffffffffffffff16815260200190815260200160002060090160009054906101000a900460ff1615610733576040517f08c379a000000000000000000000000000000000000000000000000000000000815260040161072a90614ffa565b60405180910390fd5b6001600460008282546107469190615049565b9250508190555060006040518061014001604052808673ffffffffffffffffffffffffffffffffffffffff16815260200160045481526020018581526020018481526020018381526020016040518060400160405280600281526020017f4e4100000000000000000000000000000000000000000000000000000000000081525081526020016040518060400160405280600281526020017f4e4100000000000000000000000000000000000000000000000000000000000081525081526020016040518060400160405280600281526020017f4e4100000000000000000000000000000000000000000000000000000000000081525081526020016040518060400160405280600281526020017f4e41000000000000000000000000000000000000000000000000000000000000815250815260200160011515815250905080600760008773ffffffffffffffffffffffffffffffffffffffff1673ffffffffffffffffffffffffffffffffffffffff16815260200190815260200160002060008201518160000160006101000a81548173ffffffffffffffffffffffffffffffffffffffff021916908373ffffffffffffffffffffffffffffffffffffffff16021790555060208201518160010155604082015181600201908161092c9190615289565b5060608201518160030190816109429190615289565b5060808201518160040190816109589190615289565b5060a082015181600501908161096e9190615289565b5060c08201518160060190816109849190615289565b5060e082015181600701908161099a9190615289565b506101008201518160080190816109b19190615289565b506101208201518160090160006101000a81548160ff0219169083151502179055509050506008859080600181540180825580915050600190039060005260206000200160009091909190916101000a81548173ffffffffffffffffffffffffffffffffffffffff021916908373ffffffffffffffffffffffffffffffffffffffff1602179055505050505050565b60005b600880549050811015610b995781805190602001206007600060088481548110610a7057610a6f61535b565b5b9060005260206000200160009054906101000a900473ffffffffffffffffffffffffffffffffffffffff1673ffffffffffffffffffffffffffffffffffffffff1673ffffffffffffffffffffffffffffffffffffffff168152602001908152602001600020600401604051610ae5919061542d565b604051809103902003610b8657826007600060088481548110610b0b57610b0a61535b565b5b9060005260206000200160009054906101000a900473ffffffffffffffffffffffffffffffffffffffff1673ffffffffffffffffffffffffffffffffffffffff1673ffffffffffffffffffffffffffffffffffffffff1681526020019081526020016000206008019081610b7f9190615289565b5050610bd5565b8080610b9190615444565b915050610a43565b506040517f08c379a0000000000000000000000000000000000000000000000000000000008152600401610bcc906154fe565b60405180910390fd5b5050565b600080600090505b6006805490508110156110265760006005600060068481548110610c0857610c0761535b565b5b9060005260206000200160009054906101000a900473ffffffffffffffffffffffffffffffffffffffff1673ffffffffffffffffffffffffffffffffffffffff1673ffffffffffffffffffffffffffffffffffffffff168152602001908152602001600020604051806101000160405290816000820160009054906101000a900473ffffffffffffffffffffffffffffffffffffffff1673ffffffffffffffffffffffffffffffffffffffff1673ffffffffffffffffffffffffffffffffffffffff16815260200160018201548152602001600282018054610ce9906150ac565b80601f0160208091040260200160405190810160405280929190818152602001828054610d15906150ac565b8015610d625780601f10610d3757610100808354040283529160200191610d62565b820191906000526020600020905b815481529060010190602001808311610d4557829003601f168201915b50505050508152602001600382018054610d7b906150ac565b80601f0160208091040260200160405190810160405280929190818152602001828054610da7906150ac565b8015610df45780601f10610dc957610100808354040283529160200191610df4565b820191906000526020600020905b815481529060010190602001808311610dd757829003601f168201915b50505050508152602001600482018054610e0d906150ac565b80601f0160208091040260200160405190810160405280929190818152602001828054610e39906150ac565b8015610e865780601f10610e5b57610100808354040283529160200191610e86565b820191906000526020600020905b815481529060010190602001808311610e6957829003601f168201915b50505050508152602001600582018054610e9f906150ac565b80601f0160208091040260200160405190810160405280929190818152602001828054610ecb906150ac565b8015610f185780601f10610eed57610100808354040283529160200191610f18565b820191906000526020600020905b815481529060010190602001808311610efb57829003601f168201915b50505050508152602001600682018054610f31906150ac565b80601f0160208091040260200160405190810160405280929190818152602001828054610f5d906150ac565b8015610faa5780601f10610f7f57610100808354040283529160200191610faa565b820191906000526020600020905b815481529060010190602001808311610f8d57829003601f168201915b505050505081526020016007820160009054906101000a900460ff1615151515815250509050848051906020012081608001518051906020012014801561100257508380519060200120816060015180519060200120145b156110125760019250505061102c565b50808061101e90615444565b915050610be1565b50600090505b92915050565b61103a6141c9565b600560008373ffffffffffffffffffffffffffffffffffffffff1673ffffffffffffffffffffffffffffffffffffffff16815260200190815260200160002060070160009054906101000a900460ff166110c9576040517f08c379a00000000000000000000000000000000000000000000000000000000081526004016110c09061556a565b60405180910390fd5b600560008373ffffffffffffffffffffffffffffffffffffffff1673ffffffffffffffffffffffffffffffffffffffff168152602001908152602001600020604051806101000160405290816000820160009054906101000a900473ffffffffffffffffffffffffffffffffffffffff1673ffffffffffffffffffffffffffffffffffffffff1673ffffffffffffffffffffffffffffffffffffffff16815260200160018201548152602001600282018054611184906150ac565b80601f01602080910402602001604051908101604052809291908181526020018280546111b0906150ac565b80156111fd5780601f106111d2576101008083540402835291602001916111fd565b820191906000526020600020905b8154815290600101906020018083116111e057829003601f168201915b50505050508152602001600382018054611216906150ac565b80601f0160208091040260200160405190810160405280929190818152602001828054611242906150ac565b801561128f5780601f106112645761010080835404028352916020019161128f565b820191906000526020600020905b81548152906001019060200180831161127257829003601f168201915b505050505081526020016004820180546112a8906150ac565b80601f01602080910402602001604051908101604052809291908181526020018280546112d4906150ac565b80156113215780601f106112f657610100808354040283529160200191611321565b820191906000526020600020905b81548152906001019060200180831161130457829003601f168201915b5050505050815260200160058201805461133a906150ac565b80601f0160208091040260200160405190810160405280929190818152602001828054611366906150ac565b80156113b35780601f10611388576101008083540402835291602001916113b3565b820191906000526020600020905b81548152906001019060200180831161139657829003601f168201915b505050505081526020016006820180546113cc906150ac565b80601f01602080910402602001604051908101604052809291908181526020018280546113f8906150ac565b80156114455780601f1061141a57610100808354040283529160200191611445565b820191906000526020600020905b81548152906001019060200180831161142857829003601f168201915b505050505081526020016007820160009054906101000a900460ff1615151515815250509050919050565b6114786141c9565b60005b6006805490508110156118a157600060056000600684815481106114a2576114a161535b565b5b9060005260206000200160009054906101000a900473ffffffffffffffffffffffffffffffffffffffff1673ffffffffffffffffffffffffffffffffffffffff1673ffffffffffffffffffffffffffffffffffffffff168152602001908152602001600020604051806101000160405290816000820160009054906101000a900473ffffffffffffffffffffffffffffffffffffffff1673ffffffffffffffffffffffffffffffffffffffff1673ffffffffffffffffffffffffffffffffffffffff16815260200160018201548152602001600282018054611583906150ac565b80601f01602080910402602001604051908101604052809291908181526020018280546115af906150ac565b80156115fc5780601f106115d1576101008083540402835291602001916115fc565b820191906000526020600020905b8154815290600101906020018083116115df57829003601f168201915b50505050508152602001600382018054611615906150ac565b80601f0160208091040260200160405190810160405280929190818152602001828054611641906150ac565b801561168e5780601f106116635761010080835404028352916020019161168e565b820191906000526020600020905b81548152906001019060200180831161167157829003601f168201915b505050505081526020016004820180546116a7906150ac565b80601f01602080910402602001604051908101604052809291908181526020018280546116d3906150ac565b80156117205780601f106116f557610100808354040283529160200191611720565b820191906000526020600020905b81548152906001019060200180831161170357829003601f168201915b50505050508152602001600582018054611739906150ac565b80601f0160208091040260200160405190810160405280929190818152602001828054611765906150ac565b80156117b25780601f10611787576101008083540402835291602001916117b2565b820191906000526020600020905b81548152906001019060200180831161179557829003601f168201915b505050505081526020016006820180546117cb906150ac565b80601f01602080910402602001604051908101604052809291908181526020018280546117f7906150ac565b80156118445780601f1061181957610100808354040283529160200191611844565b820191906000526020600020905b81548152906001019060200180831161182757829003601f168201915b505050505081526020016007820160009054906101000a900460ff161515151581525050905083805190602001208160800151805190602001200361188d5780925050506118dd565b50808061189990615444565b91505061147b565b506040517f08c379a00000000000000000000000000000000000000000000000000000000081526004016118d4906155fc565b60405180910390fd5b919050565b6060600060088054905067ffffffffffffffff8111156119055761190461431e565b5b60405190808252806020026020018201604052801561193e57816020015b61192b614226565b8152602001906001900390816119235790505b50905060005b600880549050811015611e845760076000600883815481106119695761196861535b565b5b9060005260206000200160009054906101000a900473ffffffffffffffffffffffffffffffffffffffff1673ffffffffffffffffffffffffffffffffffffffff1673ffffffffffffffffffffffffffffffffffffffff168152602001908152602001600020604051806101400160405290816000820160009054906101000a900473ffffffffffffffffffffffffffffffffffffffff1673ffffffffffffffffffffffffffffffffffffffff1673ffffffffffffffffffffffffffffffffffffffff16815260200160018201548152602001600282018054611a4a906150ac565b80601f0160208091040260200160405190810160405280929190818152602001828054611a76906150ac565b8015611ac35780601f10611a9857610100808354040283529160200191611ac3565b820191906000526020600020905b815481529060010190602001808311611aa657829003601f168201915b50505050508152602001600382018054611adc906150ac565b80601f0160208091040260200160405190810160405280929190818152602001828054611b08906150ac565b8015611b555780601f10611b2a57610100808354040283529160200191611b55565b820191906000526020600020905b815481529060010190602001808311611b3857829003601f168201915b50505050508152602001600482018054611b6e906150ac565b80601f0160208091040260200160405190810160405280929190818152602001828054611b9a906150ac565b8015611be75780601f10611bbc57610100808354040283529160200191611be7565b820191906000526020600020905b815481529060010190602001808311611bca57829003601f168201915b50505050508152602001600582018054611c00906150ac565b80601f0160208091040260200160405190810160405280929190818152602001828054611c2c906150ac565b8015611c795780601f10611c4e57610100808354040283529160200191611c79565b820191906000526020600020905b815481529060010190602001808311611c5c57829003601f168201915b50505050508152602001600682018054611c92906150ac565b80601f0160208091040260200160405190810160405280929190818152602001828054611cbe906150ac565b8015611d0b5780601f10611ce057610100808354040283529160200191611d0b565b820191906000526020600020905b815481529060010190602001808311611cee57829003601f168201915b50505050508152602001600782018054611d24906150ac565b80601f0160208091040260200160405190810160405280929190818152602001828054611d50906150ac565b8015611d9d5780601f10611d7257610100808354040283529160200191611d9d565b820191906000526020600020905b815481529060010190602001808311611d8057829003601f168201915b50505050508152602001600882018054611db6906150ac565b80601f0160208091040260200160405190810160405280929190818152602001828054611de2906150ac565b8015611e2f5780601f10611e0457610100808354040283529160200191611e2f565b820191906000526020600020905b815481529060010190602001808311611e1257829003601f168201915b505050505081526020016009820160009054906101000a900460ff161515151581525050828281518110611e6657611e6561535b565b5b60200260200101819052508080611e7c90615444565b915050611944565b508091505090565b611e946141c9565b600082118015611ea957506006805490508211155b611ee8576040517f08c379a0000000000000000000000000000000000000000000000000000000008152600401611edf90615668565b60405180910390fd5b600560006006600185611efb9190615688565b81548110611f0c57611f0b61535b565b5b9060005260206000200160009054906101000a900473ffffffffffffffffffffffffffffffffffffffff1673ffffffffffffffffffffffffffffffffffffffff1673ffffffffffffffffffffffffffffffffffffffff168152602001908152602001600020604051806101000160405290816000820160009054906101000a900473ffffffffffffffffffffffffffffffffffffffff1673ffffffffffffffffffffffffffffffffffffffff1673ffffffffffffffffffffffffffffffffffffffff16815260200160018201548152602001600282018054611fed906150ac565b80601f0160208091040260200160405190810160405280929190818152602001828054612019906150ac565b80156120665780601f1061203b57610100808354040283529160200191612066565b820191906000526020600020905b81548152906001019060200180831161204957829003601f168201915b5050505050815260200160038201805461207f906150ac565b80601f01602080910402602001604051908101604052809291908181526020018280546120ab906150ac565b80156120f85780601f106120cd576101008083540402835291602001916120f8565b820191906000526020600020905b8154815290600101906020018083116120db57829003601f168201915b50505050508152602001600482018054612111906150ac565b80601f016020809104026020016040519081016040528092919081815260200182805461213d906150ac565b801561218a5780601f1061215f5761010080835404028352916020019161218a565b820191906000526020600020905b81548152906001019060200180831161216d57829003601f168201915b505050505081526020016005820180546121a3906150ac565b80601f01602080910402602001604051908101604052809291908181526020018280546121cf906150ac565b801561221c5780601f106121f15761010080835404028352916020019161221c565b820191906000526020600020905b8154815290600101906020018083116121ff57829003601f168201915b50505050508152602001600682018054612235906150ac565b80601f0160208091040260200160405190810160405280929190818152602001828054612261906150ac565b80156122ae5780601f10612283576101008083540402835291602001916122ae565b820191906000526020600020905b81548152906001019060200180831161229157829003601f168201915b505050505081526020016007820160009054906101000a900460ff1615151515815250509050919050565b6122e1614226565b600760008373ffffffffffffffffffffffffffffffffffffffff1673ffffffffffffffffffffffffffffffffffffffff16815260200190815260200160002060090160009054906101000a900460ff16612370576040517f08c379a00000000000000000000000000000000000000000000000000000000081526004016123679061556a565b60405180910390fd5b600760008373ffffffffffffffffffffffffffffffffffffffff1673ffffffffffffffffffffffffffffffffffffffff168152602001908152602001600020604051806101400160405290816000820160009054906101000a900473ffffffffffffffffffffffffffffffffffffffff1673ffffffffffffffffffffffffffffffffffffffff1673ffffffffffffffffffffffffffffffffffffffff1681526020016001820154815260200160028201805461242b906150ac565b80601f0160208091040260200160405190810160405280929190818152602001828054612457906150ac565b80156124a45780601f10612479576101008083540402835291602001916124a4565b820191906000526020600020905b81548152906001019060200180831161248757829003601f168201915b505050505081526020016003820180546124bd906150ac565b80601f01602080910402602001604051908101604052809291908181526020018280546124e9906150ac565b80156125365780601f1061250b57610100808354040283529160200191612536565b820191906000526020600020905b81548152906001019060200180831161251957829003601f168201915b5050505050815260200160048201805461254f906150ac565b80601f016020809104026020016040519081016040528092919081815260200182805461257b906150ac565b80156125c85780601f1061259d576101008083540402835291602001916125c8565b820191906000526020600020905b8154815290600101906020018083116125ab57829003601f168201915b505050505081526020016005820180546125e1906150ac565b80601f016020809104026020016040519081016040528092919081815260200182805461260d906150ac565b801561265a5780601f1061262f5761010080835404028352916020019161265a565b820191906000526020600020905b81548152906001019060200180831161263d57829003601f168201915b50505050508152602001600682018054612673906150ac565b80601f016020809104026020016040519081016040528092919081815260200182805461269f906150ac565b80156126ec5780601f106126c1576101008083540402835291602001916126ec565b820191906000526020600020905b8154815290600101906020018083116126cf57829003601f168201915b50505050508152602001600782018054612705906150ac565b80601f0160208091040260200160405190810160405280929190818152602001828054612731906150ac565b801561277e5780601f106127535761010080835404028352916020019161277e565b820191906000526020600020905b81548152906001019060200180831161276157829003601f168201915b50505050508152602001600882018054612797906150ac565b80601f01602080910402602001604051908101604052809291908181526020018280546127c3906150ac565b80156128105780601f106127e557610100808354040283529160200191612810565b820191906000526020600020905b8154815290600101906020018083116127f357829003601f168201915b505050505081526020016009820160009054906101000a900460ff1615151515815250509050919050565b6060600061284883611e8c565b90508060400151915050919050565b6000606060008054906101000a900473ffffffffffffffffffffffffffffffffffffffff16600180805461288a906150ac565b80601f01602080910402602001604051908101604052809291908181526020018280546128b6906150ac565b80156129035780601f106128d857610100808354040283529160200191612903565b820191906000526020600020905b8154815290600101906020018083116128e657829003601f168201915b50505050509050915091509091565b61291a614226565b60005b600880549050811015612e6757600060076000600884815481106129445761294361535b565b5b9060005260206000200160009054906101000a900473ffffffffffffffffffffffffffffffffffffffff1673ffffffffffffffffffffffffffffffffffffffff1673ffffffffffffffffffffffffffffffffffffffff168152602001908152602001600020604051806101400160405290816000820160009054906101000a900473ffffffffffffffffffffffffffffffffffffffff1673ffffffffffffffffffffffffffffffffffffffff1673ffffffffffffffffffffffffffffffffffffffff16815260200160018201548152602001600282018054612a25906150ac565b80601f0160208091040260200160405190810160405280929190818152602001828054612a51906150ac565b8015612a9e5780601f10612a7357610100808354040283529160200191612a9e565b820191906000526020600020905b815481529060010190602001808311612a8157829003601f168201915b50505050508152602001600382018054612ab7906150ac565b80601f0160208091040260200160405190810160405280929190818152602001828054612ae3906150ac565b8015612b305780601f10612b0557610100808354040283529160200191612b30565b820191906000526020600020905b815481529060010190602001808311612b1357829003601f168201915b50505050508152602001600482018054612b49906150ac565b80601f0160208091040260200160405190810160405280929190818152602001828054612b75906150ac565b8015612bc25780601f10612b9757610100808354040283529160200191612bc2565b820191906000526020600020905b815481529060010190602001808311612ba557829003601f168201915b50505050508152602001600582018054612bdb906150ac565b80601f0160208091040260200160405190810160405280929190818152602001828054612c07906150ac565b8015612c545780601f10612c2957610100808354040283529160200191612c54565b820191906000526020600020905b815481529060010190602001808311612c3757829003601f168201915b50505050508152602001600682018054612c6d906150ac565b80601f0160208091040260200160405190810160405280929190818152602001828054612c99906150ac565b8015612ce65780601f10612cbb57610100808354040283529160200191612ce6565b820191906000526020600020905b815481529060010190602001808311612cc957829003601f168201915b50505050508152602001600782018054612cff906150ac565b80601f0160208091040260200160405190810160405280929190818152602001828054612d2b906150ac565b8015612d785780601f10612d4d57610100808354040283529160200191612d78565b820191906000526020600020905b815481529060010190602001808311612d5b57829003601f168201915b50505050508152602001600882018054612d91906150ac565b80601f0160208091040260200160405190810160405280929190818152602001828054612dbd906150ac565b8015612e0a5780601f10612ddf57610100808354040283529160200191612e0a565b820191906000526020600020905b815481529060010190602001808311612ded57829003601f168201915b505050505081526020016009820160009054906101000a900460ff1615151515815250509050838051906020012081608001518051906020012003612e53578092505050612ea3565b508080612e5f90615444565b91505061291d565b506040517f08c379a0000000000000000000000000000000000000000000000000000000008152600401612e9a906154fe565b60405180910390fd5b919050565b60006001604051612eb9919061542d565b6040518091039020838051906020012003612f04576002604051612edd919061542d565b6040518091039020828051906020012003612efb5760019050612f09565b60009050612f09565b600090505b92915050565b6060600060068054905067ffffffffffffffff811115612f3257612f3161431e565b5b604051908082528060200260200182016040528015612f6b57816020015b612f586141c9565b815260200190600190039081612f505790505b50905060005b60068054905081101561338d576005600060068381548110612f9657612f9561535b565b5b9060005260206000200160009054906101000a900473ffffffffffffffffffffffffffffffffffffffff1673ffffffffffffffffffffffffffffffffffffffff1673ffffffffffffffffffffffffffffffffffffffff168152602001908152602001600020604051806101000160405290816000820160009054906101000a900473ffffffffffffffffffffffffffffffffffffffff1673ffffffffffffffffffffffffffffffffffffffff1673ffffffffffffffffffffffffffffffffffffffff16815260200160018201548152602001600282018054613077906150ac565b80601f01602080910402602001604051908101604052809291908181526020018280546130a3906150ac565b80156130f05780601f106130c5576101008083540402835291602001916130f0565b820191906000526020600020905b8154815290600101906020018083116130d357829003601f168201915b50505050508152602001600382018054613109906150ac565b80601f0160208091040260200160405190810160405280929190818152602001828054613135906150ac565b80156131825780601f1061315757610100808354040283529160200191613182565b820191906000526020600020905b81548152906001019060200180831161316557829003601f168201915b5050505050815260200160048201805461319b906150ac565b80601f01602080910402602001604051908101604052809291908181526020018280546131c7906150ac565b80156132145780601f106131e957610100808354040283529160200191613214565b820191906000526020600020905b8154815290600101906020018083116131f757829003601f168201915b5050505050815260200160058201805461322d906150ac565b80601f0160208091040260200160405190810160405280929190818152602001828054613259906150ac565b80156132a65780601f1061327b576101008083540402835291602001916132a6565b820191906000526020600020905b81548152906001019060200180831161328957829003601f168201915b505050505081526020016006820180546132bf906150ac565b80601f01602080910402602001604051908101604052809291908181526020018280546132eb906150ac565b80156133385780601f1061330d57610100808354040283529160200191613338565b820191906000526020600020905b81548152906001019060200180831161331b57829003601f168201915b505050505081526020016007820160009054906101000a900460ff16151515158152505082828151811061336f5761336e61535b565b5b6020026020010181905250808061338590615444565b915050612f71565b508091505090565b60005b60088054905081101561369857848051906020012060076000600884815481106133c5576133c461535b565b5b9060005260206000200160009054906101000a900473ffffffffffffffffffffffffffffffffffffffff1673ffffffffffffffffffffffffffffffffffffffff1673ffffffffffffffffffffffffffffffffffffffff16815260200190815260200160002060040160405161343a919061542d565b604051809103902003613685578560076000600884815481106134605761345f61535b565b5b9060005260206000200160009054906101000a900473ffffffffffffffffffffffffffffffffffffffff1673ffffffffffffffffffffffffffffffffffffffff1673ffffffffffffffffffffffffffffffffffffffff16815260200190815260200160002060020190816134d49190615289565b508360076000600884815481106134ee576134ed61535b565b5b9060005260206000200160009054906101000a900473ffffffffffffffffffffffffffffffffffffffff1673ffffffffffffffffffffffffffffffffffffffff1673ffffffffffffffffffffffffffffffffffffffff16815260200190815260200160002060050190816135629190615289565b5082600760006008848154811061357c5761357b61535b565b5b9060005260206000200160009054906101000a900473ffffffffffffffffffffffffffffffffffffffff1673ffffffffffffffffffffffffffffffffffffffff1673ffffffffffffffffffffffffffffffffffffffff16815260200190815260200160002060060190816135f09190615289565b5081600760006008848154811061360a5761360961535b565b5b9060005260206000200160009054906101000a900473ffffffffffffffffffffffffffffffffffffffff1673ffffffffffffffffffffffffffffffffffffffff1673ffffffffffffffffffffffffffffffffffffffff168152602001908152602001600020600701908161367e9190615289565b50506136d4565b808061369090615444565b915050613398565b506040517f08c379a00000000000000000000000000000000000000000000000000000000081526004016136cb906154fe565b60405180910390fd5b5050505050565b600080600090505b600880549050811015613c4c576000600760006008848154811061370a5761370961535b565b5b9060005260206000200160009054906101000a900473ffffffffffffffffffffffffffffffffffffffff1673ffffffffffffffffffffffffffffffffffffffff1673ffffffffffffffffffffffffffffffffffffffff168152602001908152602001600020604051806101400160405290816000820160009054906101000a900473ffffffffffffffffffffffffffffffffffffffff1673ffffffffffffffffffffffffffffffffffffffff1673ffffffffffffffffffffffffffffffffffffffff168152602001600182015481526020016002820180546137eb906150ac565b80601f0160208091040260200160405190810160405280929190818152602001828054613817906150ac565b80156138645780601f1061383957610100808354040283529160200191613864565b820191906000526020600020905b81548152906001019060200180831161384757829003601f168201915b5050505050815260200160038201805461387d906150ac565b80601f01602080910402602001604051908101604052809291908181526020018280546138a9906150ac565b80156138f65780601f106138cb576101008083540402835291602001916138f6565b820191906000526020600020905b8154815290600101906020018083116138d957829003601f168201915b5050505050815260200160048201805461390f906150ac565b80601f016020809104026020016040519081016040528092919081815260200182805461393b906150ac565b80156139885780601f1061395d57610100808354040283529160200191613988565b820191906000526020600020905b81548152906001019060200180831161396b57829003601f168201915b505050505081526020016005820180546139a1906150ac565b80601f01602080910402602001604051908101604052809291908181526020018280546139cd906150ac565b8015613a1a5780601f106139ef57610100808354040283529160200191613a1a565b820191906000526020600020905b8154815290600101906020018083116139fd57829003601f168201915b50505050508152602001600682018054613a33906150ac565b80601f0160208091040260200160405190810160405280929190818152602001828054613a5f906150ac565b8015613aac5780601f10613a8157610100808354040283529160200191613aac565b820191906000526020600020905b815481529060010190602001808311613a8f57829003601f168201915b50505050508152602001600782018054613ac5906150ac565b80601f0160208091040260200160405190810160405280929190818152602001828054613af1906150ac565b8015613b3e5780601f10613b1357610100808354040283529160200191613b3e565b820191906000526020600020905b815481529060010190602001808311613b2157829003601f168201915b50505050508152602001600882018054613b57906150ac565b80601f0160208091040260200160405190810160405280929190818152602001828054613b83906150ac565b8015613bd05780601f10613ba557610100808354040283529160200191613bd0565b820191906000526020600020905b815481529060010190602001808311613bb357829003601f168201915b505050505081526020016009820160009054906101000a900460ff16151515158152505090508480519060200120816080015180519060200120148015613c2857508380519060200120816060015180519060200120145b15613c3857600192505050613c52565b508080613c4490615444565b9150506136e3565b50600090505b92915050565b613c60614226565b600082118015613c7557506008805490508211155b613cb4576040517f08c379a0000000000000000000000000000000000000000000000000000000008152600401613cab90615708565b60405180910390fd5b600760006008600185613cc79190615688565b81548110613cd857613cd761535b565b5b9060005260206000200160009054906101000a900473ffffffffffffffffffffffffffffffffffffffff1673ffffffffffffffffffffffffffffffffffffffff1673ffffffffffffffffffffffffffffffffffffffff168152602001908152602001600020604051806101400160405290816000820160009054906101000a900473ffffffffffffffffffffffffffffffffffffffff1673ffffffffffffffffffffffffffffffffffffffff1673ffffffffffffffffffffffffffffffffffffffff16815260200160018201548152602001600282018054613db9906150ac565b80601f0160208091040260200160405190810160405280929190818152602001828054613de5906150ac565b8015613e325780601f10613e0757610100808354040283529160200191613e32565b820191906000526020600020905b815481529060010190602001808311613e1557829003601f168201915b50505050508152602001600382018054613e4b906150ac565b80601f0160208091040260200160405190810160405280929190818152602001828054613e77906150ac565b8015613ec45780601f10613e9957610100808354040283529160200191613ec4565b820191906000526020600020905b815481529060010190602001808311613ea757829003601f168201915b50505050508152602001600482018054613edd906150ac565b80601f0160208091040260200160405190810160405280929190818152602001828054613f09906150ac565b8015613f565780601f10613f2b57610100808354040283529160200191613f56565b820191906000526020600020905b815481529060010190602001808311613f3957829003601f168201915b50505050508152602001600582018054613f6f906150ac565b80601f0160208091040260200160405190810160405280929190818152602001828054613f9b906150ac565b8015613fe85780601f10613fbd57610100808354040283529160200191613fe8565b820191906000526020600020905b815481529060010190602001808311613fcb57829003601f168201915b50505050508152602001600682018054614001906150ac565b80601f016020809104026020016040519081016040528092919081815260200182805461402d906150ac565b801561407a5780601f1061404f5761010080835404028352916020019161407a565b820191906000526020600020905b81548152906001019060200180831161405d57829003601f168201915b50505050508152602001600782018054614093906150ac565b80601f01602080910402602001604051908101604052809291908181526020018280546140bf906150ac565b801561410c5780601f106140e15761010080835404028352916020019161410c565b820191906000526020600020905b8154815290600101906020018083116140ef57829003601f168201915b50505050508152602001600882018054614125906150ac565b80601f0160208091040260200160405190810160405280929190818152602001828054614151906150ac565b801561419e5780601f106141735761010080835404028352916020019161419e565b820191906000526020600020905b81548152906001019060200180831161418157829003601f168201915b505050505081526020016009820160009054906101000a900460ff1615151515815250509050919050565b604051806101000160405280600073ffffffffffffffffffffffffffffffffffffffff1681526020016000815260200160608152602001606081526020016060815260200160608152602001606081526020016000151581525090565b604051806101400160405280600073ffffffffffffffffffffffffffffffffffffffff16815260200160008152602001606081526020016060815260200160608152602001606081526020016060815260200160608152602001606081526020016000151581525090565b6000604051905090565b600080fd5b600080fd5b600073ffffffffffffffffffffffffffffffffffffffff82169050919050565b60006142d0826142a5565b9050919050565b6142e0816142c5565b81146142eb57600080fd5b50565b6000813590506142fd816142d7565b92915050565b600080fd5b600080fd5b6000601f19601f8301169050919050565b7f4e487b7100000000000000000000000000000000000000000000000000000000600052604160045260246000fd5b6143568261430d565b810181811067ffffffffffffffff821117156143755761437461431e565b5b80604052505050565b6000614388614291565b9050614394828261434d565b919050565b600067ffffffffffffffff8211156143b4576143b361431e565b5b6143bd8261430d565b9050602081019050919050565b82818337600083830152505050565b60006143ec6143e784614399565b61437e565b90508281526020810184848401111561440857614407614308565b5b6144138482856143ca565b509392505050565b600082601f8301126144305761442f614303565b5b81356144408482602086016143d9565b91505092915050565b60008060008060008060c087890312156144665761446561429b565b5b600061447489828a016142ee565b965050602087013567ffffffffffffffff811115614495576144946142a0565b5b6144a189828a0161441b565b955050604087013567ffffffffffffffff8111156144c2576144c16142a0565b5b6144ce89828a0161441b565b945050606087013567ffffffffffffffff8111156144ef576144ee6142a0565b5b6144fb89828a0161441b565b935050608087013567ffffffffffffffff81111561451c5761451b6142a0565b5b61452889828a0161441b565b92505060a087013567ffffffffffffffff811115614549576145486142a0565b5b61455589828a0161441b565b9150509295509295509295565b6000819050919050565b61457581614562565b811461458057600080fd5b50565b6000813590506145928161456c565b92915050565b6000602082840312156145ae576145ad61429b565b5b60006145bc84828501614583565b91505092915050565b600081519050919050565b600082825260208201905092915050565b60005b838110156145ff5780820151818401526020810190506145e4565b60008484015250505050565b6000614616826145c5565b61462081856145d0565b93506146308185602086016145e1565b6146398161430d565b840191505092915050565b6000602082019050818103600083015261465e818461460b565b905092915050565b600080600080608085870312156146805761467f61429b565b5b600061468e878288016142ee565b945050602085013567ffffffffffffffff8111156146af576146ae6142a0565b5b6146bb8782880161441b565b935050604085013567ffffffffffffffff8111156146dc576146db6142a0565b5b6146e88782880161441b565b925050606085013567ffffffffffffffff811115614709576147086142a0565b5b6147158782880161441b565b91505092959194509250565b600080604083850312156147385761473761429b565b5b600083013567ffffffffffffffff811115614756576147556142a0565b5b6147628582860161441b565b925050602083013567ffffffffffffffff811115614783576147826142a0565b5b61478f8582860161441b565b9150509250929050565b60008115159050919050565b6147ae81614799565b82525050565b60006020820190506147c960008301846147a5565b92915050565b6000602082840312156147e5576147e461429b565b5b60006147f3848285016142ee565b91505092915050565b614805816142c5565b82525050565b61481481614562565b82525050565b600082825260208201905092915050565b6000614836826145c5565b614840818561481a565b93506148508185602086016145e1565b6148598161430d565b840191505092915050565b61486d81614799565b82525050565b60006101008301600083015161488c60008601826147fc565b50602083015161489f602086018261480b565b50604083015184820360408601526148b7828261482b565b915050606083015184820360608601526148d1828261482b565b915050608083015184820360808601526148eb828261482b565b91505060a083015184820360a0860152614905828261482b565b91505060c083015184820360c086015261491f828261482b565b91505060e083015161493460e0860182614864565b508091505092915050565b600060208201905081810360008301526149598184614873565b905092915050565b6000602082840312156149775761497661429b565b5b600082013567ffffffffffffffff811115614995576149946142a0565b5b6149a18482850161441b565b91505092915050565b600081519050919050565b600082825260208201905092915050565b6000819050602082019050919050565b6000610140830160008301516149ef60008601826147fc565b506020830151614a02602086018261480b565b5060408301518482036040860152614a1a828261482b565b91505060608301518482036060860152614a34828261482b565b91505060808301518482036080860152614a4e828261482b565b91505060a083015184820360a0860152614a68828261482b565b91505060c083015184820360c0860152614a82828261482b565b91505060e083015184820360e0860152614a9c828261482b565b915050610100830151848203610100860152614ab8828261482b565b915050610120830151614acf610120860182614864565b508091505092915050565b6000614ae683836149d6565b905092915050565b6000602082019050919050565b6000614b06826149aa565b614b1081856149b5565b935083602082028501614b22856149c6565b8060005b85811015614b5e5784840389528151614b3f8582614ada565b9450614b4a83614aee565b925060208a01995050600181019050614b26565b50829750879550505050505092915050565b60006020820190508181036000830152614b8a8184614afb565b905092915050565b600061014083016000830151614bab60008601826147fc565b506020830151614bbe602086018261480b565b5060408301518482036040860152614bd6828261482b565b91505060608301518482036060860152614bf0828261482b565b91505060808301518482036080860152614c0a828261482b565b91505060a083015184820360a0860152614c24828261482b565b91505060c083015184820360c0860152614c3e828261482b565b91505060e083015184820360e0860152614c58828261482b565b915050610100830151848203610100860152614c74828261482b565b915050610120830151614c8b610120860182614864565b508091505092915050565b60006020820190508181036000830152614cb08184614b92565b905092915050565b614cc1816142c5565b82525050565b6000604082019050614cdc6000830185614cb8565b8181036020830152614cee818461460b565b90509392505050565b600081519050919050565b600082825260208201905092915050565b6000819050602082019050919050565b600061010083016000830151614d3c60008601826147fc565b506020830151614d4f602086018261480b565b5060408301518482036040860152614d67828261482b565b91505060608301518482036060860152614d81828261482b565b91505060808301518482036080860152614d9b828261482b565b91505060a083015184820360a0860152614db5828261482b565b91505060c083015184820360c0860152614dcf828261482b565b91505060e0830151614de460e0860182614864565b508091505092915050565b6000614dfb8383614d23565b905092915050565b6000602082019050919050565b6000614e1b82614cf7565b614e258185614d02565b935083602082028501614e3785614d13565b8060005b85811015614e735784840389528151614e548582614def565b9450614e5f83614e03565b925060208a01995050600181019050614e3b565b50829750879550505050505092915050565b60006020820190508181036000830152614e9f8184614e10565b905092915050565b600080600080600060a08688031215614ec357614ec261429b565b5b600086013567ffffffffffffffff811115614ee157614ee06142a0565b5b614eed8882890161441b565b955050602086013567ffffffffffffffff811115614f0e57614f0d6142a0565b5b614f1a8882890161441b565b945050604086013567ffffffffffffffff811115614f3b57614f3a6142a0565b5b614f478882890161441b565b935050606086013567ffffffffffffffff811115614f6857614f676142a0565b5b614f748882890161441b565b925050608086013567ffffffffffffffff811115614f9557614f946142a0565b5b614fa18882890161441b565b9150509295509295909350565b7f4163636f756e7420657869737420666f7220746869732077616c6c6574000000600082015250565b6000614fe4601d836145d0565b9150614fef82614fae565b602082019050919050565b6000602082019050818103600083015261501381614fd7565b9050919050565b7f4e487b7100000000000000000000000000000000000000000000000000000000600052601160045260246000fd5b600061505482614562565b915061505f83614562565b92508282019050808211156150775761507661501a565b5b92915050565b7f4e487b7100000000000000000000000000000000000000000000000000000000600052602260045260246000fd5b600060028204905060018216806150c457607f821691505b6020821081036150d7576150d661507d565b5b50919050565b60008190508160005260206000209050919050565b60006020601f8301049050919050565b600082821b905092915050565b60006008830261513f7fffffffffffffffffffffffffffffffffffffffffffffffffffffffffffffffff82615102565b6151498683615102565b95508019841693508086168417925050509392505050565b6000819050919050565b600061518661518161517c84614562565b615161565b614562565b9050919050565b6000819050919050565b6151a08361516b565b6151b46151ac8261518d565b84845461510f565b825550505050565b600090565b6151c96151bc565b6151d4818484615197565b505050565b5b818110156151f8576151ed6000826151c1565b6001810190506151da565b5050565b601f82111561523d5761520e816150dd565b615217846150f2565b81016020851015615226578190505b61523a615232856150f2565b8301826151d9565b50505b505050565b600082821c905092915050565b600061526060001984600802615242565b1980831691505092915050565b6000615279838361524f565b9150826002028217905092915050565b615292826145c5565b67ffffffffffffffff8111156152ab576152aa61431e565b5b6152b582546150ac565b6152c08282856151fc565b600060209050601f8311600181146152f357600084156152e1578287015190505b6152eb858261526d565b865550615353565b601f198416615301866150dd565b60005b8281101561532957848901518255600182019150602085019450602081019050615304565b868310156153465784890151615342601f89168261524f565b8355505b6001600288020188555050505b505050505050565b7f4e487b7100000000000000000000000000000000000000000000000000000000600052603260045260246000fd5b600081905092915050565b60008190508160005260206000209050919050565b600081546153b7816150ac565b6153c1818661538a565b945060018216600081146153dc57600181146153f157615424565b60ff1983168652811515820286019350615424565b6153fa85615395565b60005b8381101561541c578154818901526001820191506020810190506153fd565b838801955050505b50505092915050565b600061543982846153aa565b915081905092915050565b600061544f82614562565b91507fffffffffffffffffffffffffffffffffffffffffffffffffffffffffffffffff82036154815761548061501a565b5b600182019050919050565b7f50617469656e7420776974682074686520676976656e20656d61696c20646f6560008201527f73206e6f74206578697374000000000000000000000000000000000000000000602082015250565b60006154e8602b836145d0565b91506154f38261548c565b604082019050919050565b60006020820190508181036000830152615517816154db565b9050919050565b7f4e6f206163636f756e74207769746820746861742077616c6c65740000000000600082015250565b6000615554601b836145d0565b915061555f8261551e565b602082019050919050565b6000602082019050818103600083015261558381615547565b9050919050565b7f446f63746f7220776974682074686520676976656e20656d61696c20646f657360008201527f206e6f7420657869737400000000000000000000000000000000000000000000602082015250565b60006155e6602a836145d0565b91506155f18261558a565b604082019050919050565b60006020820190508181036000830152615615816155d9565b9050919050565b7f496e76616c696420646f63746f72204944000000000000000000000000000000600082015250565b60006156526011836145d0565b915061565d8261561c565b602082019050919050565b6000602082019050818103600083015261568181615645565b9050919050565b600061569382614562565b915061569e83614562565b92508282039050818111156156b6576156b561501a565b5b92915050565b7f496e76616c69642070617469656e742049440000000000000000000000000000600082015250565b60006156f26012836145d0565b91506156fd826156bc565b602082019050919050565b60006020820190508181036000830152615721816156e5565b905091905056fea2646970667358221220ddd41c50eeafd7cbb5fa46921ffeaf208c4a6195e14be2d98f6a23ee77c25e7864736f6c63430008130033",
  "immutableReferences": {},
  "source": "// SPDX-License-Identifier: MIT\npragma solidity >=0.4.22 <0.9.0;\n\ncontract UserManagement {\n  address admin;\n  string adminUsername = \"admin@gmail.com\";\n  string adminPassword = \"admin123\";\n\n  uint docId;\n  uint patId;\n\n  struct Doctor {\n    address _doctorAddress; // Mandatory\n    uint _doctorId;\n    string _doctorName;\n    string _doctorPassword;\n    string _doctorEmail;\n    string _doctorLicense;\n    string _doctorSpecialisation;\n    bool _exist;\n  }\n\n  struct Patient {\n    address _patientAddress; // Mandatory\n    uint _patientId;\n    string _patientName;\n    string _patientPassword;\n    string _patientEmail;\n    string _patientGender;\n    string _patientPhone;\n    string _patientHomeAddress;\n    string _patientProfilePhoto;\n    bool _exist;\n  }\n\n  // Mapping variables\n  mapping(address => Doctor) _doctors;\n  address[] _doctorwallets;\n\n  mapping(address => Patient) _patients;\n  address[] _patientwallets;\n\n  constructor() {\n    admin = msg.sender; // msg.sender is a global variable where it is holding the address of contract invoker\n    docId = 0;\n    patId = 0;\n  }\n\n  // ValidateAdmin will verify login details of admin passed by frontend\n  function validateAdmin(string memory username, string memory password) public view returns (bool) {\n    if (keccak256(bytes(username)) == keccak256(bytes(adminUsername))) {\n      if (keccak256(bytes(password)) == keccak256(bytes(adminPassword))) {\n        return true;\n      } else {\n        return false;\n      }\n    } else {\n      return false;\n    }\n  }\n\n  // It will create an account of doctor\n  function addDoctor(address wallet, string memory name, string memory password, string memory email, string memory doclicense, string memory docspecial) public {\n    require(!_doctors[wallet]._exist, \"Account exist for this wallet\");\n    docId += 1;\n\n    Doctor memory new_doctor = Doctor(wallet, docId, name, password, email, doclicense, docspecial, true);\n    _doctors[wallet] = new_doctor;\n    _doctorwallets.push(wallet);\n  }\n\n  // It will create an account of patient\n  function addPatient(address wallet, string memory name, string memory password, string memory email) public {\n    require(!_patients[wallet]._exist, \"Account exist for this wallet\");\n    patId += 1;\n\n    Patient memory new_patient = Patient(wallet, patId, name, password, email,\"NA\",\"NA\",\"NA\",\"NA\",true);\n    _patients[wallet] = new_patient;\n    _patientwallets.push(wallet);\n  }\n\n  // It will return all the registered doctors\n  function viewAllDoctors() public view returns (Doctor[] memory) {\n    Doctor[] memory _doctorArray = new Doctor[](_doctorwallets.length);\n\n    for (uint256 i = 0; i < _doctorwallets.length; i++) {\n      _doctorArray[i] = _doctors[_doctorwallets[i]];\n    }\n\n    return _doctorArray;\n  }\n\n  // It will return all the registered patients\n  function viewAllPatients() public view returns (Patient[] memory) {\n    Patient[] memory _patientArray = new Patient[](_patientwallets.length);\n\n    for (uint256 i = 0; i < _patientwallets.length; i++) {\n      _patientArray[i] = _patients[_patientwallets[i]];\n    }\n\n    return _patientArray;\n  }\n\n  // It will return only one record of doctor based on wallet\n  function viewDoctorByWallet(address wallet) public view returns (Doctor memory) {\n    require(_doctors[wallet]._exist, \"No account with that wallet\"); // true\n    return _doctors[wallet];\n  }\n\n  // It will return only one record of patient based on wallet\n  function viewPatientByWallet(address wallet) public view returns (Patient memory) {\n    require(_patients[wallet]._exist, \"No account with that wallet\"); // true\n    return _patients[wallet];\n  }\n\n  // It will return only one record of doctor based on doctor id\n  function viewDoctorById(uint docI) public view returns (Doctor memory) {\n    require(docI > 0 && docI <= _doctorwallets.length, \"Invalid doctor ID\");\n    return _doctors[_doctorwallets[docI - 1]];\n  }\n\n  // It will return only one record of patient based on patient id\n  function viewPatientById(uint patI) public view returns (Patient memory) {\n    require(patI > 0 && patI <= _patientwallets.length, \"Invalid patient ID\");\n    return _patients[_patientwallets[patI - 1]];\n  }\n\n  // It will validate the login details of doctor\n  function doctorLogin(string memory email, string memory password) public view returns (bool) {\n    for (uint256 i = 0; i < _doctorwallets.length; i++) {\n      Doctor memory doc = _doctors[_doctorwallets[i]];\n      if (keccak256(bytes(doc._doctorEmail)) == keccak256(bytes(email)) && keccak256(bytes(doc._doctorPassword)) == keccak256(bytes(password))) {\n        return true;\n      }\n    }\n    return false;\n  }\n\n  // It will validate the login details of patient\n  function patientLogin(string memory email, string memory password) public view returns (bool) {\n    for (uint256 i = 0; i < _patientwallets.length; i++) {\n      Patient memory pat = _patients[_patientwallets[i]];\n      if (keccak256(bytes(pat._patientEmail)) == keccak256(bytes(email)) && keccak256(bytes(pat._patientPassword)) == keccak256(bytes(password))) {\n        return true;\n      }\n    }\n    return false;\n  }\n\n  function viewPatientByEmail(string memory email) public view returns (Patient memory) {\n    for (uint i = 0; i < _patientwallets.length; i++) {\n        Patient memory pat = _patients[_patientwallets[i]];\n        if (keccak256(bytes(pat._patientEmail)) == keccak256(bytes(email))) {\n            return pat;\n        }\n    }\n    revert(\"Patient with the given email does not exist\");\n  }\n\n  function updatePatientByEmail(string memory name,string memory email,string memory gender,string memory phone,string memory homeAddress) public {\n    for (uint i = 0; i < _patientwallets.length; i++) {\n        if (keccak256(bytes(_patients[_patientwallets[i]]._patientEmail)) == keccak256(bytes(email))) {\n            _patients[_patientwallets[i]]._patientName = name;\n            _patients[_patientwallets[i]]._patientGender = gender;\n            _patients[_patientwallets[i]]._patientPhone = phone;\n            _patients[_patientwallets[i]]._patientHomeAddress = homeAddress;\n            return; // Exit the function after updating\n        }\n    }\n\n    revert(\"Patient with the given email does not exist\");\n  }\n\n  function updatePatientPhoto(string memory photo,string memory email) public {\n    for (uint i = 0; i < _patientwallets.length; i++) {\n        if (keccak256(bytes(_patients[_patientwallets[i]]._patientEmail)) == keccak256(bytes(email))) {\n          _patients[_patientwallets[i]]._patientProfilePhoto=photo;\n          return;\n        }\n    }\n    revert(\"Patient with the given email does not exist\");\n  }\n\n  function viewDoctorByEmail(string memory email) public view returns (Doctor memory){\n    for(uint i=0; i<_doctorwallets.length;i++){\n      Doctor memory doc = _doctors[_doctorwallets[i]];\n      if (keccak256(bytes(doc._doctorEmail)) == keccak256(bytes(email))){\n        return doc;\n      }\n    }\n    revert(\"Doctor with the given email does not exist\");\n  }\n\n\n  // It has to return admin wallet address, admin username\n  function viewAdmin() public view returns (address, string memory) {\n    // Read Operation only\n    return (admin, adminUsername);\n  }\n\n  function getDoctorNameById(uint docI) public view returns (string memory) {\n    Doctor memory doctor = viewDoctorById(docI);\n    return doctor._doctorName;\n  }\n\n  // Retrieve patient name by ID\n  function getPatientNameById(uint patI) public view returns (string memory) {\n      Patient memory patient = viewPatientById(patI);\n      return patient._patientName;\n  }\n}\n",
  "sourcePath": "/Users/ms/Downloads/mediplus/contracts/UserManagement.sol",
  "compiler": {
    "name": "solc",
    "version": "0.8.19+commit.7dd6d404.Emscripten.clang"
  },
  "schemaVersion": "3.4.16",
  "updatedAt": "2025-01-16T14:38:38.498Z",
  "networkType": "ethereum",
  "devdoc": {
    "kind": "dev",
    "methods": {},
    "version": 1
  },
  "userdoc": {
    "kind": "user",
    "methods": {},
    "version": 1
  }
}