{
  "contractName": "UserManagement",
  "abi": [
    {
      "inputs": [],
      "stateMutability": "nonpayable",
      "type": "constructor"
    },
    {
      "inputs": [
        {
          "internalType": "string",
          "name": "username",
          "type": "string"
        },
        {
          "internalType": "string",
          "name": "password",
          "type": "string"
        }
      ],
      "name": "validateAdmin",
      "outputs": [
        {
          "internalType": "bool",
          "name": "",
          "type": "bool"
        }
      ],
      "stateMutability": "view",
      "type": "function",
      "constant": true
    },
    {
      "inputs": [
        {
          "internalType": "address",
          "name": "wallet",
          "type": "address"
        },
        {
          "internalType": "string",
          "name": "name",
          "type": "string"
        },
        {
          "internalType": "string",
          "name": "password",
          "type": "string"
        },
        {
          "internalType": "string",
          "name": "email",
          "type": "string"
        },
        {
          "internalType": "string",
          "name": "doclicense",
          "type": "string"
        },
        {
          "internalType": "string",
          "name": "docspecial",
          "type": "string"
        }
      ],
      "name": "addDoctor",
      "outputs": [],
      "stateMutability": "nonpayable",
      "type": "function"
    },
    {
      "inputs": [
        {
          "internalType": "address",
          "name": "wallet",
          "type": "address"
        },
        {
          "internalType": "string",
          "name": "name",
          "type": "string"
        },
        {
          "internalType": "string",
          "name": "password",
          "type": "string"
        },
        {
          "internalType": "string",
          "name": "email",
          "type": "string"
        }
      ],
      "name": "addPatient",
      "outputs": [],
      "stateMutability": "nonpayable",
      "type": "function"
    },
    {
      "inputs": [],
      "name": "viewAllDoctors",
      "outputs": [
        {
          "components": [
            {
              "internalType": "address",
              "name": "_doctorAddress",
              "type": "address"
            },
            {
              "internalType": "uint256",
              "name": "_doctorId",
              "type": "uint256"
            },
            {
              "internalType": "string",
              "name": "_doctorName",
              "type": "string"
            },
            {
              "internalType": "string",
              "name": "_doctorPassword",
              "type": "string"
            },
            {
              "internalType": "string",
              "name": "_doctorEmail",
              "type": "string"
            },
            {
              "internalType": "string",
              "name": "_doctorLicense",
              "type": "string"
            },
            {
              "internalType": "string",
              "name": "_doctorSpecialisation",
              "type": "string"
            },
            {
              "internalType": "bool",
              "name": "_exist",
              "type": "bool"
            }
          ],
          "internalType": "struct UserManagement.Doctor[]",
          "name": "",
          "type": "tuple[]"
        }
      ],
      "stateMutability": "view",
      "type": "function",
      "constant": true
    },
    {
      "inputs": [],
      "name": "viewAllPatients",
      "outputs": [
        {
          "components": [
            {
              "internalType": "address",
              "name": "_patientAddress",
              "type": "address"
            },
            {
              "internalType": "uint256",
              "name": "_patientId",
              "type": "uint256"
            },
            {
              "internalType": "string",
              "name": "_patientName",
              "type": "string"
            },
            {
              "internalType": "string",
              "name": "_patientPassword",
              "type": "string"
            },
            {
              "internalType": "string",
              "name": "_patientEmail",
              "type": "string"
            },
            {
              "internalType": "bool",
              "name": "_exist",
              "type": "bool"
            }
          ],
          "internalType": "struct UserManagement.Patient[]",
          "name": "",
          "type": "tuple[]"
        }
      ],
      "stateMutability": "view",
      "type": "function",
      "constant": true
    },
    {
      "inputs": [
        {
          "internalType": "address",
          "name": "wallet",
          "type": "address"
        }
      ],
      "name": "viewDoctorByWallet",
      "outputs": [
        {
          "components": [
            {
              "internalType": "address",
              "name": "_doctorAddress",
              "type": "address"
            },
            {
              "internalType": "uint256",
              "name": "_doctorId",
              "type": "uint256"
            },
            {
              "internalType": "string",
              "name": "_doctorName",
              "type": "string"
            },
            {
              "internalType": "string",
              "name": "_doctorPassword",
              "type": "string"
            },
            {
              "internalType": "string",
              "name": "_doctorEmail",
              "type": "string"
            },
            {
              "internalType": "string",
              "name": "_doctorLicense",
              "type": "string"
            },
            {
              "internalType": "string",
              "name": "_doctorSpecialisation",
              "type": "string"
            },
            {
              "internalType": "bool",
              "name": "_exist",
              "type": "bool"
            }
          ],
          "internalType": "struct UserManagement.Doctor",
          "name": "",
          "type": "tuple"
        }
      ],
      "stateMutability": "view",
      "type": "function",
      "constant": true
    },
    {
      "inputs": [
        {
          "internalType": "address",
          "name": "wallet",
          "type": "address"
        }
      ],
      "name": "viewPatientByWallet",
      "outputs": [
        {
          "components": [
            {
              "internalType": "address",
              "name": "_patientAddress",
              "type": "address"
            },
            {
              "internalType": "uint256",
              "name": "_patientId",
              "type": "uint256"
            },
            {
              "internalType": "string",
              "name": "_patientName",
              "type": "string"
            },
            {
              "internalType": "string",
              "name": "_patientPassword",
              "type": "string"
            },
            {
              "internalType": "string",
              "name": "_patientEmail",
              "type": "string"
            },
            {
              "internalType": "bool",
              "name": "_exist",
              "type": "bool"
            }
          ],
          "internalType": "struct UserManagement.Patient",
          "name": "",
          "type": "tuple"
        }
      ],
      "stateMutability": "view",
      "type": "function",
      "constant": true
    },
    {
      "inputs": [
        {
          "internalType": "uint256",
          "name": "docI",
          "type": "uint256"
        }
      ],
      "name": "viewDoctorById",
      "outputs": [
        {
          "components": [
            {
              "internalType": "address",
              "name": "_doctorAddress",
              "type": "address"
            },
            {
              "internalType": "uint256",
              "name": "_doctorId",
              "type": "uint256"
            },
            {
              "internalType": "string",
              "name": "_doctorName",
              "type": "string"
            },
            {
              "internalType": "string",
              "name": "_doctorPassword",
              "type": "string"
            },
            {
              "internalType": "string",
              "name": "_doctorEmail",
              "type": "string"
            },
            {
              "internalType": "string",
              "name": "_doctorLicense",
              "type": "string"
            },
            {
              "internalType": "string",
              "name": "_doctorSpecialisation",
              "type": "string"
            },
            {
              "internalType": "bool",
              "name": "_exist",
              "type": "bool"
            }
          ],
          "internalType": "struct UserManagement.Doctor",
          "name": "",
          "type": "tuple"
        }
      ],
      "stateMutability": "view",
      "type": "function",
      "constant": true
    },
    {
      "inputs": [
        {
          "internalType": "uint256",
          "name": "patI",
          "type": "uint256"
        }
      ],
      "name": "viewPatientById",
      "outputs": [
        {
          "components": [
            {
              "internalType": "address",
              "name": "_patientAddress",
              "type": "address"
            },
            {
              "internalType": "uint256",
              "name": "_patientId",
              "type": "uint256"
            },
            {
              "internalType": "string",
              "name": "_patientName",
              "type": "string"
            },
            {
              "internalType": "string",
              "name": "_patientPassword",
              "type": "string"
            },
            {
              "internalType": "string",
              "name": "_patientEmail",
              "type": "string"
            },
            {
              "internalType": "bool",
              "name": "_exist",
              "type": "bool"
            }
          ],
          "internalType": "struct UserManagement.Patient",
          "name": "",
          "type": "tuple"
        }
      ],
      "stateMutability": "view",
      "type": "function",
      "constant": true
    },
    {
      "inputs": [
        {
          "internalType": "string",
          "name": "email",
          "type": "string"
        },
        {
          "internalType": "string",
          "name": "password",
          "type": "string"
        }
      ],
      "name": "doctorLogin",
      "outputs": [
        {
          "internalType": "bool",
          "name": "",
          "type": "bool"
        }
      ],
      "stateMutability": "view",
      "type": "function",
      "constant": true
    },
    {
      "inputs": [
        {
          "internalType": "string",
          "name": "email",
          "type": "string"
        },
        {
          "internalType": "string",
          "name": "password",
          "type": "string"
        }
      ],
      "name": "patientLogin",
      "outputs": [
        {
          "internalType": "bool",
          "name": "",
          "type": "bool"
        }
      ],
      "stateMutability": "view",
      "type": "function",
      "constant": true
    },
    {
      "inputs": [],
      "name": "viewAdmin",
      "outputs": [
        {
          "internalType": "address",
          "name": "",
          "type": "address"
        },
        {
          "internalType": "string",
          "name": "",
          "type": "string"
        }
      ],
      "stateMutability": "view",
      "type": "function",
      "constant": true
    }
  ],
  "bytecode": "0x60806040526040518060400160405280600581526020017f61646d696e000000000000000000000000000000000000000000000000000000815250600190816200004a919062000370565b506040518060400160405280600881526020017f61646d696e3132330000000000000000000000000000000000000000000000008152506002908162000091919062000370565b503480156200009f57600080fd5b50336000806101000a81548173ffffffffffffffffffffffffffffffffffffffff021916908373ffffffffffffffffffffffffffffffffffffffff1602179055506000600381905550600060048190555062000457565b600081519050919050565b7f4e487b7100000000000000000000000000000000000000000000000000000000600052604160045260246000fd5b7f4e487b7100000000000000000000000000000000000000000000000000000000600052602260045260246000fd5b600060028204905060018216806200017857607f821691505b6020821081036200018e576200018d62000130565b5b50919050565b60008190508160005260206000209050919050565b60006020601f8301049050919050565b600082821b905092915050565b600060088302620001f87fffffffffffffffffffffffffffffffffffffffffffffffffffffffffffffffff82620001b9565b620002048683620001b9565b95508019841693508086168417925050509392505050565b6000819050919050565b6000819050919050565b6000620002516200024b62000245846200021c565b62000226565b6200021c565b9050919050565b6000819050919050565b6200026d8362000230565b620002856200027c8262000258565b848454620001c6565b825550505050565b600090565b6200029c6200028d565b620002a981848462000262565b505050565b5b81811015620002d157620002c560008262000292565b600181019050620002af565b5050565b601f8211156200032057620002ea8162000194565b620002f584620001a9565b8101602085101562000305578190505b6200031d6200031485620001a9565b830182620002ae565b50505b505050565b600082821c905092915050565b6000620003456000198460080262000325565b1980831691505092915050565b600062000360838362000332565b9150826002028217905092915050565b6200037b82620000f6565b67ffffffffffffffff81111562000397576200039662000101565b5b620003a382546200015f565b620003b0828285620002d5565b600060209050601f831160018114620003e85760008415620003d3578287015190505b620003df858262000352565b8655506200044f565b601f198416620003f88662000194565b60005b828110156200042257848901518255600182019150602085019450602081019050620003fb565b868310156200044257848901516200043e601f89168262000332565b8355505b6001600288020188555050505b505050505050565b6138ed80620004676000396000f3fe608060405234801561001057600080fd5b50600436106100b45760003560e01c80638853616811610071578063885361681461019f5780639910ed9a146101cf578063c58d7034146101ee578063d46d20311461021e578063ee38d02d1461023c578063f775f6f61461026c576100b4565b80631128c9ea146100b95780632c76361f146100d5578063664ca36b146100f157806370f3b206146101215780637395be37146101515780638609acde1461016f575b600080fd5b6100d360048036038101906100ce9190612948565b61029c565b005b6100ef60048036038101906100ea9190612a61565b61052d565b005b61010b60048036038101906101069190612b1c565b610783565b6040516101189190612baf565b60405180910390f35b61013b60048036038101906101369190612bca565b610bdc565b6040516101489190612d79565b60405180910390f35b61015961101a565b6040516101669190612ef4565b60405180910390f35b61018960048036038101906101849190612f42565b61137b565b6040516101969190612d79565b60405180910390f35b6101b960048036038101906101b49190612bca565b6117c8565b6040516101c69190613006565b60405180910390f35b6101d7611ae1565b6040516101e5929190613081565b60405180910390f35b61020860048036038101906102039190612b1c565b611b9c565b6040516102159190612baf565b60405180910390f35b610226611c03565b604051610233919061323f565b60405180910390f35b61025660048036038101906102519190612b1c565b612089565b6040516102639190612baf565b60405180910390f35b61028660048036038101906102819190612f42565b6123bd565b6040516102939190613006565b60405180910390f35b600560008773ffffffffffffffffffffffffffffffffffffffff1673ffffffffffffffffffffffffffffffffffffffff16815260200190815260200160002060070160009054906101000a900460ff161561032c576040517f08c379a0000000000000000000000000000000000000000000000000000000008152600401610323906132ad565b60405180910390fd5b60016003600082825461033f91906132fc565b9250508190555060006040518061010001604052808873ffffffffffffffffffffffffffffffffffffffff168152602001600354815260200187815260200186815260200185815260200184815260200183815260200160011515815250905080600560008973ffffffffffffffffffffffffffffffffffffffff1673ffffffffffffffffffffffffffffffffffffffff16815260200190815260200160002060008201518160000160006101000a81548173ffffffffffffffffffffffffffffffffffffffff021916908373ffffffffffffffffffffffffffffffffffffffff160217905550602082015181600101556040820151816002019081610445919061353c565b50606082015181600301908161045b919061353c565b506080820151816004019081610471919061353c565b5060a0820151816005019081610487919061353c565b5060c082015181600601908161049d919061353c565b5060e08201518160070160006101000a81548160ff0219169083151502179055509050506006879080600181540180825580915050600190039060005260206000200160009091909190916101000a81548173ffffffffffffffffffffffffffffffffffffffff021916908373ffffffffffffffffffffffffffffffffffffffff16021790555050505050505050565b600760008573ffffffffffffffffffffffffffffffffffffffff1673ffffffffffffffffffffffffffffffffffffffff16815260200190815260200160002060050160009054906101000a900460ff16156105bd576040517f08c379a00000000000000000000000000000000000000000000000000000000081526004016105b4906132ad565b60405180910390fd5b6001600460008282546105d091906132fc565b9250508190555060006040518060c001604052808673ffffffffffffffffffffffffffffffffffffffff168152602001600454815260200185815260200184815260200183815260200160011515815250905080600760008773ffffffffffffffffffffffffffffffffffffffff1673ffffffffffffffffffffffffffffffffffffffff16815260200190815260200160002060008201518160000160006101000a81548173ffffffffffffffffffffffffffffffffffffffff021916908373ffffffffffffffffffffffffffffffffffffffff1602179055506020820151816001015560408201518160020190816106c9919061353c565b5060608201518160030190816106df919061353c565b5060808201518160040190816106f5919061353c565b5060a08201518160050160006101000a81548160ff0219169083151502179055509050506008859080600181540180825580915050600190039060005260206000200160009091909190916101000a81548173ffffffffffffffffffffffffffffffffffffffff021916908373ffffffffffffffffffffffffffffffffffffffff1602179055505050505050565b600080600090505b600680549050811015610bd057600060056000600684815481106107b2576107b161360e565b5b9060005260206000200160009054906101000a900473ffffffffffffffffffffffffffffffffffffffff1673ffffffffffffffffffffffffffffffffffffffff1673ffffffffffffffffffffffffffffffffffffffff168152602001908152602001600020604051806101000160405290816000820160009054906101000a900473ffffffffffffffffffffffffffffffffffffffff1673ffffffffffffffffffffffffffffffffffffffff1673ffffffffffffffffffffffffffffffffffffffff168152602001600182015481526020016002820180546108939061335f565b80601f01602080910402602001604051908101604052809291908181526020018280546108bf9061335f565b801561090c5780601f106108e15761010080835404028352916020019161090c565b820191906000526020600020905b8154815290600101906020018083116108ef57829003601f168201915b505050505081526020016003820180546109259061335f565b80601f01602080910402602001604051908101604052809291908181526020018280546109519061335f565b801561099e5780601f106109735761010080835404028352916020019161099e565b820191906000526020600020905b81548152906001019060200180831161098157829003601f168201915b505050505081526020016004820180546109b79061335f565b80601f01602080910402602001604051908101604052809291908181526020018280546109e39061335f565b8015610a305780601f10610a0557610100808354040283529160200191610a30565b820191906000526020600020905b815481529060010190602001808311610a1357829003601f168201915b50505050508152602001600582018054610a499061335f565b80601f0160208091040260200160405190810160405280929190818152602001828054610a759061335f565b8015610ac25780601f10610a9757610100808354040283529160200191610ac2565b820191906000526020600020905b815481529060010190602001808311610aa557829003601f168201915b50505050508152602001600682018054610adb9061335f565b80601f0160208091040260200160405190810160405280929190818152602001828054610b079061335f565b8015610b545780601f10610b2957610100808354040283529160200191610b54565b820191906000526020600020905b815481529060010190602001808311610b3757829003601f168201915b505050505081526020016007820160009054906101000a900460ff16151515158152505090508480519060200120816080015180519060200120148015610bac57508380519060200120816060015180519060200120145b15610bbc57600192505050610bd6565b508080610bc89061363d565b91505061078b565b50600090505b92915050565b610be46126e5565b600560008373ffffffffffffffffffffffffffffffffffffffff1673ffffffffffffffffffffffffffffffffffffffff16815260200190815260200160002060070160009054906101000a900460ff16610c73576040517f08c379a0000000000000000000000000000000000000000000000000000000008152600401610c6a906136d1565b60405180910390fd5b600560008373ffffffffffffffffffffffffffffffffffffffff1673ffffffffffffffffffffffffffffffffffffffff168152602001908152602001600020604051806101000160405290816000820160009054906101000a900473ffffffffffffffffffffffffffffffffffffffff1673ffffffffffffffffffffffffffffffffffffffff1673ffffffffffffffffffffffffffffffffffffffff16815260200160018201548152602001600282018054610d2e9061335f565b80601f0160208091040260200160405190810160405280929190818152602001828054610d5a9061335f565b8015610da75780601f10610d7c57610100808354040283529160200191610da7565b820191906000526020600020905b815481529060010190602001808311610d8a57829003601f168201915b50505050508152602001600382018054610dc09061335f565b80601f0160208091040260200160405190810160405280929190818152602001828054610dec9061335f565b8015610e395780601f10610e0e57610100808354040283529160200191610e39565b820191906000526020600020905b815481529060010190602001808311610e1c57829003601f168201915b50505050508152602001600482018054610e529061335f565b80601f0160208091040260200160405190810160405280929190818152602001828054610e7e9061335f565b8015610ecb5780601f10610ea057610100808354040283529160200191610ecb565b820191906000526020600020905b815481529060010190602001808311610eae57829003601f168201915b50505050508152602001600582018054610ee49061335f565b80601f0160208091040260200160405190810160405280929190818152602001828054610f109061335f565b8015610f5d5780601f10610f3257610100808354040283529160200191610f5d565b820191906000526020600020905b815481529060010190602001808311610f4057829003601f168201915b50505050508152602001600682018054610f769061335f565b80601f0160208091040260200160405190810160405280929190818152602001828054610fa29061335f565b8015610fef5780601f10610fc457610100808354040283529160200191610fef565b820191906000526020600020905b815481529060010190602001808311610fd257829003601f168201915b505050505081526020016007820160009054906101000a900460ff1615151515815250509050919050565b6060600060088054905067ffffffffffffffff81111561103d5761103c61281d565b5b60405190808252806020026020018201604052801561107657816020015b611063612742565b81526020019060019003908161105b5790505b50905060005b6008805490508110156113735760076000600883815481106110a1576110a061360e565b5b9060005260206000200160009054906101000a900473ffffffffffffffffffffffffffffffffffffffff1673ffffffffffffffffffffffffffffffffffffffff1673ffffffffffffffffffffffffffffffffffffffff1681526020019081526020016000206040518060c00160405290816000820160009054906101000a900473ffffffffffffffffffffffffffffffffffffffff1673ffffffffffffffffffffffffffffffffffffffff1673ffffffffffffffffffffffffffffffffffffffff168152602001600182015481526020016002820180546111819061335f565b80601f01602080910402602001604051908101604052809291908181526020018280546111ad9061335f565b80156111fa5780601f106111cf576101008083540402835291602001916111fa565b820191906000526020600020905b8154815290600101906020018083116111dd57829003601f168201915b505050505081526020016003820180546112139061335f565b80601f016020809104026020016040519081016040528092919081815260200182805461123f9061335f565b801561128c5780601f106112615761010080835404028352916020019161128c565b820191906000526020600020905b81548152906001019060200180831161126f57829003601f168201915b505050505081526020016004820180546112a59061335f565b80601f01602080910402602001604051908101604052809291908181526020018280546112d19061335f565b801561131e5780601f106112f35761010080835404028352916020019161131e565b820191906000526020600020905b81548152906001019060200180831161130157829003601f168201915b505050505081526020016005820160009054906101000a900460ff1615151515815250508282815181106113555761135461360e565b5b6020026020010181905250808061136b9061363d565b91505061107c565b508091505090565b6113836126e5565b60008211801561139857506006805490508211155b6113d7576040517f08c379a00000000000000000000000000000000000000000000000000000000081526004016113ce9061373d565b60405180910390fd5b6005600060066001856113ea919061375d565b815481106113fb576113fa61360e565b5b9060005260206000200160009054906101000a900473ffffffffffffffffffffffffffffffffffffffff1673ffffffffffffffffffffffffffffffffffffffff1673ffffffffffffffffffffffffffffffffffffffff168152602001908152602001600020604051806101000160405290816000820160009054906101000a900473ffffffffffffffffffffffffffffffffffffffff1673ffffffffffffffffffffffffffffffffffffffff1673ffffffffffffffffffffffffffffffffffffffff168152602001600182015481526020016002820180546114dc9061335f565b80601f01602080910402602001604051908101604052809291908181526020018280546115089061335f565b80156115555780601f1061152a57610100808354040283529160200191611555565b820191906000526020600020905b81548152906001019060200180831161153857829003601f168201915b5050505050815260200160038201805461156e9061335f565b80601f016020809104026020016040519081016040528092919081815260200182805461159a9061335f565b80156115e75780601f106115bc576101008083540402835291602001916115e7565b820191906000526020600020905b8154815290600101906020018083116115ca57829003601f168201915b505050505081526020016004820180546116009061335f565b80601f016020809104026020016040519081016040528092919081815260200182805461162c9061335f565b80156116795780601f1061164e57610100808354040283529160200191611679565b820191906000526020600020905b81548152906001019060200180831161165c57829003601f168201915b505050505081526020016005820180546116929061335f565b80601f01602080910402602001604051908101604052809291908181526020018280546116be9061335f565b801561170b5780601f106116e05761010080835404028352916020019161170b565b820191906000526020600020905b8154815290600101906020018083116116ee57829003601f168201915b505050505081526020016006820180546117249061335f565b80601f01602080910402602001604051908101604052809291908181526020018280546117509061335f565b801561179d5780601f106117725761010080835404028352916020019161179d565b820191906000526020600020905b81548152906001019060200180831161178057829003601f168201915b505050505081526020016007820160009054906101000a900460ff1615151515815250509050919050565b6117d0612742565b600760008373ffffffffffffffffffffffffffffffffffffffff1673ffffffffffffffffffffffffffffffffffffffff16815260200190815260200160002060050160009054906101000a900460ff1661185f576040517f08c379a0000000000000000000000000000000000000000000000000000000008152600401611856906136d1565b60405180910390fd5b600760008373ffffffffffffffffffffffffffffffffffffffff1673ffffffffffffffffffffffffffffffffffffffff1681526020019081526020016000206040518060c00160405290816000820160009054906101000a900473ffffffffffffffffffffffffffffffffffffffff1673ffffffffffffffffffffffffffffffffffffffff1673ffffffffffffffffffffffffffffffffffffffff168152602001600182015481526020016002820180546119199061335f565b80601f01602080910402602001604051908101604052809291908181526020018280546119459061335f565b80156119925780601f1061196757610100808354040283529160200191611992565b820191906000526020600020905b81548152906001019060200180831161197557829003601f168201915b505050505081526020016003820180546119ab9061335f565b80601f01602080910402602001604051908101604052809291908181526020018280546119d79061335f565b8015611a245780601f106119f957610100808354040283529160200191611a24565b820191906000526020600020905b815481529060010190602001808311611a0757829003601f168201915b50505050508152602001600482018054611a3d9061335f565b80601f0160208091040260200160405190810160405280929190818152602001828054611a699061335f565b8015611ab65780601f10611a8b57610100808354040283529160200191611ab6565b820191906000526020600020905b815481529060010190602001808311611a9957829003601f168201915b505050505081526020016005820160009054906101000a900460ff1615151515815250509050919050565b6000606060008054906101000a900473ffffffffffffffffffffffffffffffffffffffff166001808054611b149061335f565b80601f0160208091040260200160405190810160405280929190818152602001828054611b409061335f565b8015611b8d5780601f10611b6257610100808354040283529160200191611b8d565b820191906000526020600020905b815481529060010190602001808311611b7057829003601f168201915b50505050509050915091509091565b60006001604051611bad9190613834565b6040518091039020838051906020012003611bf8576002604051611bd19190613834565b6040518091039020828051906020012003611bef5760019050611bfd565b60009050611bfd565b600090505b92915050565b6060600060068054905067ffffffffffffffff811115611c2657611c2561281d565b5b604051908082528060200260200182016040528015611c5f57816020015b611c4c6126e5565b815260200190600190039081611c445790505b50905060005b600680549050811015612081576005600060068381548110611c8a57611c8961360e565b5b9060005260206000200160009054906101000a900473ffffffffffffffffffffffffffffffffffffffff1673ffffffffffffffffffffffffffffffffffffffff1673ffffffffffffffffffffffffffffffffffffffff168152602001908152602001600020604051806101000160405290816000820160009054906101000a900473ffffffffffffffffffffffffffffffffffffffff1673ffffffffffffffffffffffffffffffffffffffff1673ffffffffffffffffffffffffffffffffffffffff16815260200160018201548152602001600282018054611d6b9061335f565b80601f0160208091040260200160405190810160405280929190818152602001828054611d979061335f565b8015611de45780601f10611db957610100808354040283529160200191611de4565b820191906000526020600020905b815481529060010190602001808311611dc757829003601f168201915b50505050508152602001600382018054611dfd9061335f565b80601f0160208091040260200160405190810160405280929190818152602001828054611e299061335f565b8015611e765780601f10611e4b57610100808354040283529160200191611e76565b820191906000526020600020905b815481529060010190602001808311611e5957829003601f168201915b50505050508152602001600482018054611e8f9061335f565b80601f0160208091040260200160405190810160405280929190818152602001828054611ebb9061335f565b8015611f085780601f10611edd57610100808354040283529160200191611f08565b820191906000526020600020905b815481529060010190602001808311611eeb57829003601f168201915b50505050508152602001600582018054611f219061335f565b80601f0160208091040260200160405190810160405280929190818152602001828054611f4d9061335f565b8015611f9a5780601f10611f6f57610100808354040283529160200191611f9a565b820191906000526020600020905b815481529060010190602001808311611f7d57829003601f168201915b50505050508152602001600682018054611fb39061335f565b80601f0160208091040260200160405190810160405280929190818152602001828054611fdf9061335f565b801561202c5780601f106120015761010080835404028352916020019161202c565b820191906000526020600020905b81548152906001019060200180831161200f57829003601f168201915b505050505081526020016007820160009054906101000a900460ff1615151515815250508282815181106120635761206261360e565b5b602002602001018190525080806120799061363d565b915050611c65565b508091505090565b600080600090505b6008805490508110156123b157600060076000600884815481106120b8576120b761360e565b5b9060005260206000200160009054906101000a900473ffffffffffffffffffffffffffffffffffffffff1673ffffffffffffffffffffffffffffffffffffffff1673ffffffffffffffffffffffffffffffffffffffff1681526020019081526020016000206040518060c00160405290816000820160009054906101000a900473ffffffffffffffffffffffffffffffffffffffff1673ffffffffffffffffffffffffffffffffffffffff1673ffffffffffffffffffffffffffffffffffffffff168152602001600182015481526020016002820180546121989061335f565b80601f01602080910402602001604051908101604052809291908181526020018280546121c49061335f565b80156122115780601f106121e657610100808354040283529160200191612211565b820191906000526020600020905b8154815290600101906020018083116121f457829003601f168201915b5050505050815260200160038201805461222a9061335f565b80601f01602080910402602001604051908101604052809291908181526020018280546122569061335f565b80156122a35780601f10612278576101008083540402835291602001916122a3565b820191906000526020600020905b81548152906001019060200180831161228657829003601f168201915b505050505081526020016004820180546122bc9061335f565b80601f01602080910402602001604051908101604052809291908181526020018280546122e89061335f565b80156123355780601f1061230a57610100808354040283529160200191612335565b820191906000526020600020905b81548152906001019060200180831161231857829003601f168201915b505050505081526020016005820160009054906101000a900460ff1615151515815250509050848051906020012081608001518051906020012014801561238d57508380519060200120816060015180519060200120145b1561239d576001925050506123b7565b5080806123a99061363d565b915050612091565b50600090505b92915050565b6123c5612742565b6000821180156123da57506008805490508211155b612419576040517f08c379a000000000000000000000000000000000000000000000000000000000815260040161241090613897565b60405180910390fd5b60076000600860018561242c919061375d565b8154811061243d5761243c61360e565b5b9060005260206000200160009054906101000a900473ffffffffffffffffffffffffffffffffffffffff1673ffffffffffffffffffffffffffffffffffffffff1673ffffffffffffffffffffffffffffffffffffffff1681526020019081526020016000206040518060c00160405290816000820160009054906101000a900473ffffffffffffffffffffffffffffffffffffffff1673ffffffffffffffffffffffffffffffffffffffff1673ffffffffffffffffffffffffffffffffffffffff1681526020016001820154815260200160028201805461251d9061335f565b80601f01602080910402602001604051908101604052809291908181526020018280546125499061335f565b80156125965780601f1061256b57610100808354040283529160200191612596565b820191906000526020600020905b81548152906001019060200180831161257957829003601f168201915b505050505081526020016003820180546125af9061335f565b80601f01602080910402602001604051908101604052809291908181526020018280546125db9061335f565b80156126285780601f106125fd57610100808354040283529160200191612628565b820191906000526020600020905b81548152906001019060200180831161260b57829003601f168201915b505050505081526020016004820180546126419061335f565b80601f016020809104026020016040519081016040528092919081815260200182805461266d9061335f565b80156126ba5780601f1061268f576101008083540402835291602001916126ba565b820191906000526020600020905b81548152906001019060200180831161269d57829003601f168201915b505050505081526020016005820160009054906101000a900460ff1615151515815250509050919050565b604051806101000160405280600073ffffffffffffffffffffffffffffffffffffffff1681526020016000815260200160608152602001606081526020016060815260200160608152602001606081526020016000151581525090565b6040518060c00160405280600073ffffffffffffffffffffffffffffffffffffffff168152602001600081526020016060815260200160608152602001606081526020016000151581525090565b6000604051905090565b600080fd5b600080fd5b600073ffffffffffffffffffffffffffffffffffffffff82169050919050565b60006127cf826127a4565b9050919050565b6127df816127c4565b81146127ea57600080fd5b50565b6000813590506127fc816127d6565b92915050565b600080fd5b600080fd5b6000601f19601f8301169050919050565b7f4e487b7100000000000000000000000000000000000000000000000000000000600052604160045260246000fd5b6128558261280c565b810181811067ffffffffffffffff821117156128745761287361281d565b5b80604052505050565b6000612887612790565b9050612893828261284c565b919050565b600067ffffffffffffffff8211156128b3576128b261281d565b5b6128bc8261280c565b9050602081019050919050565b82818337600083830152505050565b60006128eb6128e684612898565b61287d565b90508281526020810184848401111561290757612906612807565b5b6129128482856128c9565b509392505050565b600082601f83011261292f5761292e612802565b5b813561293f8482602086016128d8565b91505092915050565b60008060008060008060c087890312156129655761296461279a565b5b600061297389828a016127ed565b965050602087013567ffffffffffffffff8111156129945761299361279f565b5b6129a089828a0161291a565b955050604087013567ffffffffffffffff8111156129c1576129c061279f565b5b6129cd89828a0161291a565b945050606087013567ffffffffffffffff8111156129ee576129ed61279f565b5b6129fa89828a0161291a565b935050608087013567ffffffffffffffff811115612a1b57612a1a61279f565b5b612a2789828a0161291a565b92505060a087013567ffffffffffffffff811115612a4857612a4761279f565b5b612a5489828a0161291a565b9150509295509295509295565b60008060008060808587031215612a7b57612a7a61279a565b5b6000612a89878288016127ed565b945050602085013567ffffffffffffffff811115612aaa57612aa961279f565b5b612ab68782880161291a565b935050604085013567ffffffffffffffff811115612ad757612ad661279f565b5b612ae38782880161291a565b925050606085013567ffffffffffffffff811115612b0457612b0361279f565b5b612b108782880161291a565b91505092959194509250565b60008060408385031215612b3357612b3261279a565b5b600083013567ffffffffffffffff811115612b5157612b5061279f565b5b612b5d8582860161291a565b925050602083013567ffffffffffffffff811115612b7e57612b7d61279f565b5b612b8a8582860161291a565b9150509250929050565b60008115159050919050565b612ba981612b94565b82525050565b6000602082019050612bc46000830184612ba0565b92915050565b600060208284031215612be057612bdf61279a565b5b6000612bee848285016127ed565b91505092915050565b612c00816127c4565b82525050565b6000819050919050565b612c1981612c06565b82525050565b600081519050919050565b600082825260208201905092915050565b60005b83811015612c59578082015181840152602081019050612c3e565b60008484015250505050565b6000612c7082612c1f565b612c7a8185612c2a565b9350612c8a818560208601612c3b565b612c938161280c565b840191505092915050565b612ca781612b94565b82525050565b600061010083016000830151612cc66000860182612bf7565b506020830151612cd96020860182612c10565b5060408301518482036040860152612cf18282612c65565b91505060608301518482036060860152612d0b8282612c65565b91505060808301518482036080860152612d258282612c65565b91505060a083015184820360a0860152612d3f8282612c65565b91505060c083015184820360c0860152612d598282612c65565b91505060e0830151612d6e60e0860182612c9e565b508091505092915050565b60006020820190508181036000830152612d938184612cad565b905092915050565b600081519050919050565b600082825260208201905092915050565b6000819050602082019050919050565b600060c083016000830151612ddf6000860182612bf7565b506020830151612df26020860182612c10565b5060408301518482036040860152612e0a8282612c65565b91505060608301518482036060860152612e248282612c65565b91505060808301518482036080860152612e3e8282612c65565b91505060a0830151612e5360a0860182612c9e565b508091505092915050565b6000612e6a8383612dc7565b905092915050565b6000602082019050919050565b6000612e8a82612d9b565b612e948185612da6565b935083602082028501612ea685612db7565b8060005b85811015612ee25784840389528151612ec38582612e5e565b9450612ece83612e72565b925060208a01995050600181019050612eaa565b50829750879550505050505092915050565b60006020820190508181036000830152612f0e8184612e7f565b905092915050565b612f1f81612c06565b8114612f2a57600080fd5b50565b600081359050612f3c81612f16565b92915050565b600060208284031215612f5857612f5761279a565b5b6000612f6684828501612f2d565b91505092915050565b600060c083016000830151612f876000860182612bf7565b506020830151612f9a6020860182612c10565b5060408301518482036040860152612fb28282612c65565b91505060608301518482036060860152612fcc8282612c65565b91505060808301518482036080860152612fe68282612c65565b91505060a0830151612ffb60a0860182612c9e565b508091505092915050565b600060208201905081810360008301526130208184612f6f565b905092915050565b613031816127c4565b82525050565b600082825260208201905092915050565b600061305382612c1f565b61305d8185613037565b935061306d818560208601612c3b565b6130768161280c565b840191505092915050565b60006040820190506130966000830185613028565b81810360208301526130a88184613048565b90509392505050565b600081519050919050565b600082825260208201905092915050565b6000819050602082019050919050565b6000610100830160008301516130f66000860182612bf7565b5060208301516131096020860182612c10565b50604083015184820360408601526131218282612c65565b9150506060830151848203606086015261313b8282612c65565b915050608083015184820360808601526131558282612c65565b91505060a083015184820360a086015261316f8282612c65565b91505060c083015184820360c08601526131898282612c65565b91505060e083015161319e60e0860182612c9e565b508091505092915050565b60006131b583836130dd565b905092915050565b6000602082019050919050565b60006131d5826130b1565b6131df81856130bc565b9350836020820285016131f1856130cd565b8060005b8581101561322d578484038952815161320e85826131a9565b9450613219836131bd565b925060208a019950506001810190506131f5565b50829750879550505050505092915050565b6000602082019050818103600083015261325981846131ca565b905092915050565b7f4163636f756e7420657869737420666f7220746869732077616c6c6574000000600082015250565b6000613297601d83613037565b91506132a282613261565b602082019050919050565b600060208201905081810360008301526132c68161328a565b9050919050565b7f4e487b7100000000000000000000000000000000000000000000000000000000600052601160045260246000fd5b600061330782612c06565b915061331283612c06565b925082820190508082111561332a576133296132cd565b5b92915050565b7f4e487b7100000000000000000000000000000000000000000000000000000000600052602260045260246000fd5b6000600282049050600182168061337757607f821691505b60208210810361338a57613389613330565b5b50919050565b60008190508160005260206000209050919050565b60006020601f8301049050919050565b600082821b905092915050565b6000600883026133f27fffffffffffffffffffffffffffffffffffffffffffffffffffffffffffffffff826133b5565b6133fc86836133b5565b95508019841693508086168417925050509392505050565b6000819050919050565b600061343961343461342f84612c06565b613414565b612c06565b9050919050565b6000819050919050565b6134538361341e565b61346761345f82613440565b8484546133c2565b825550505050565b600090565b61347c61346f565b61348781848461344a565b505050565b5b818110156134ab576134a0600082613474565b60018101905061348d565b5050565b601f8211156134f0576134c181613390565b6134ca846133a5565b810160208510156134d9578190505b6134ed6134e5856133a5565b83018261348c565b50505b505050565b600082821c905092915050565b6000613513600019846008026134f5565b1980831691505092915050565b600061352c8383613502565b9150826002028217905092915050565b61354582612c1f565b67ffffffffffffffff81111561355e5761355d61281d565b5b613568825461335f565b6135738282856134af565b600060209050601f8311600181146135a65760008415613594578287015190505b61359e8582613520565b865550613606565b601f1984166135b486613390565b60005b828110156135dc578489015182556001820191506020850194506020810190506135b7565b868310156135f957848901516135f5601f891682613502565b8355505b6001600288020188555050505b505050505050565b7f4e487b7100000000000000000000000000000000000000000000000000000000600052603260045260246000fd5b600061364882612c06565b91507fffffffffffffffffffffffffffffffffffffffffffffffffffffffffffffffff820361367a576136796132cd565b5b600182019050919050565b7f4e6f206163636f756e74207769746820746861742077616c6c65740000000000600082015250565b60006136bb601b83613037565b91506136c682613685565b602082019050919050565b600060208201905081810360008301526136ea816136ae565b9050919050565b7f496e76616c696420646f63746f72204944000000000000000000000000000000600082015250565b6000613727601183613037565b9150613732826136f1565b602082019050919050565b600060208201905081810360008301526137568161371a565b9050919050565b600061376882612c06565b915061377383612c06565b925082820390508181111561378b5761378a6132cd565b5b92915050565b600081905092915050565b60008190508160005260206000209050919050565b600081546137be8161335f565b6137c88186613791565b945060018216600081146137e357600181146137f85761382b565b60ff198316865281151582028601935061382b565b6138018561379c565b60005b8381101561382357815481890152600182019150602081019050613804565b838801955050505b50505092915050565b600061384082846137b1565b915081905092915050565b7f496e76616c69642070617469656e742049440000000000000000000000000000600082015250565b6000613881601283613037565b915061388c8261384b565b602082019050919050565b600060208201905081810360008301526138b081613874565b905091905056fea2646970667358221220bd8d90759b1c23386ee0060f0b3da31dc15c68eaa9e6d94573fb46977e38fc6b64736f6c63430008130033",
  "immutableReferences": {},
  "source": "// SPDX-License-Identifier: MIT\npragma solidity >=0.4.22 <0.9.0;\n\ncontract UserManagement {\n  address admin;\n  string adminUsername = \"admin\";\n  string adminPassword = \"admin123\";\n\n  uint docId;\n  uint patId;\n\n  struct Doctor {\n    address _doctorAddress; // Mandatory\n    uint _doctorId;\n    string _doctorName;\n    string _doctorPassword;\n    string _doctorEmail;\n    string _doctorLicense;\n    string _doctorSpecialisation;\n    bool _exist;\n  }\n\n  struct Patient {\n    address _patientAddress; // Mandatory\n    uint _patientId;\n    string _patientName;\n    string _patientPassword;\n    string _patientEmail;\n    bool _exist;\n  }\n\n  // Mapping variables\n  mapping(address => Doctor) _doctors;\n  address[] _doctorwallets;\n\n  mapping(address => Patient) _patients;\n  address[] _patientwallets;\n\n  constructor() {\n    admin = msg.sender; // msg.sender is a global variable where it is holding the address of contract invoker\n    docId = 0;\n    patId = 0;\n  }\n\n  // ValidateAdmin will verify login details of admin passed by frontend\n  function validateAdmin(string memory username, string memory password) public view returns (bool) {\n    if (keccak256(bytes(username)) == keccak256(bytes(adminUsername))) {\n      if (keccak256(bytes(password)) == keccak256(bytes(adminPassword))) {\n        return true;\n      } else {\n        return false;\n      }\n    } else {\n      return false;\n    }\n  }\n\n  // It will create an account of doctor\n  function addDoctor(address wallet, string memory name, string memory password, string memory email, string memory doclicense, string memory docspecial) public {\n    require(!_doctors[wallet]._exist, \"Account exist for this wallet\");\n    docId += 1;\n\n    Doctor memory new_doctor = Doctor(wallet, docId, name, password, email, doclicense, docspecial, true);\n    _doctors[wallet] = new_doctor;\n    _doctorwallets.push(wallet);\n  }\n\n  // It will create an account of patient\n  function addPatient(address wallet, string memory name, string memory password, string memory email) public {\n    require(!_patients[wallet]._exist, \"Account exist for this wallet\");\n    patId += 1;\n\n    Patient memory new_patient = Patient(wallet, patId, name, password, email, true);\n    _patients[wallet] = new_patient;\n    _patientwallets.push(wallet);\n  }\n\n  // It will return all the registered doctors\n  function viewAllDoctors() public view returns (Doctor[] memory) {\n    Doctor[] memory _doctorArray = new Doctor[](_doctorwallets.length);\n\n    for (uint256 i = 0; i < _doctorwallets.length; i++) {\n      _doctorArray[i] = _doctors[_doctorwallets[i]];\n    }\n\n    return _doctorArray;\n  }\n\n  // It will return all the registered patients\n  function viewAllPatients() public view returns (Patient[] memory) {\n    Patient[] memory _patientArray = new Patient[](_patientwallets.length);\n\n    for (uint256 i = 0; i < _patientwallets.length; i++) {\n      _patientArray[i] = _patients[_patientwallets[i]];\n    }\n\n    return _patientArray;\n  }\n\n  // It will return only one record of doctor based on wallet\n  function viewDoctorByWallet(address wallet) public view returns (Doctor memory) {\n    require(_doctors[wallet]._exist, \"No account with that wallet\"); // true\n    return _doctors[wallet];\n  }\n\n  // It will return only one record of patient based on wallet\n  function viewPatientByWallet(address wallet) public view returns (Patient memory) {\n    require(_patients[wallet]._exist, \"No account with that wallet\"); // true\n    return _patients[wallet];\n  }\n\n  // It will return only one record of doctor based on doctor id\n  function viewDoctorById(uint docI) public view returns (Doctor memory) {\n    require(docI > 0 && docI <= _doctorwallets.length, \"Invalid doctor ID\");\n    return _doctors[_doctorwallets[docI - 1]];\n  }\n\n  // It will return only one record of patient based on patient id\n  function viewPatientById(uint patI) public view returns (Patient memory) {\n    require(patI > 0 && patI <= _patientwallets.length, \"Invalid patient ID\");\n    return _patients[_patientwallets[patI - 1]];\n  }\n\n  // It will validate the login details of doctor\n  function doctorLogin(string memory email, string memory password) public view returns (bool) {\n    for (uint256 i = 0; i < _doctorwallets.length; i++) {\n      Doctor memory doc = _doctors[_doctorwallets[i]];\n      if (keccak256(bytes(doc._doctorEmail)) == keccak256(bytes(email)) && keccak256(bytes(doc._doctorPassword)) == keccak256(bytes(password))) {\n        return true;\n      }\n    }\n    return false;\n  }\n\n  // It will validate the login details of patient\n  function patientLogin(string memory email, string memory password) public view returns (bool) {\n    for (uint256 i = 0; i < _patientwallets.length; i++) {\n      Patient memory pat = _patients[_patientwallets[i]];\n      if (keccak256(bytes(pat._patientEmail)) == keccak256(bytes(email)) && keccak256(bytes(pat._patientPassword)) == keccak256(bytes(password))) {\n        return true;\n      }\n    }\n    return false;\n  }\n\n  // It has to return admin wallet address, admin username\n  function viewAdmin() public view returns (address, string memory) {\n    // Read Operation only\n    return (admin, adminUsername);\n  }\n}\n",
  "sourcePath": "/Users/ms/Downloads/mediplus/contracts/UserManagement.sol",
  "compiler": {
    "name": "solc",
    "version": "0.8.19+commit.7dd6d404.Emscripten.clang"
  },
  "schemaVersion": "3.4.16",
  "updatedAt": "2025-01-15T14:27:24.453Z",
  "networkType": "ethereum",
  "devdoc": {
    "kind": "dev",
    "methods": {},
    "version": 1
  },
  "userdoc": {
    "kind": "user",
    "methods": {},
    "version": 1
  }
}