{
  "contractName": "UserManagement",
  "abi": [
    {
      "inputs": [],
      "stateMutability": "nonpayable",
      "type": "constructor"
    },
    {
      "inputs": [
        {
          "internalType": "string",
          "name": "username",
          "type": "string"
        },
        {
          "internalType": "string",
          "name": "password",
          "type": "string"
        }
      ],
      "name": "validateAdmin",
      "outputs": [
        {
          "internalType": "bool",
          "name": "",
          "type": "bool"
        }
      ],
      "stateMutability": "view",
      "type": "function",
      "constant": true
    },
    {
      "inputs": [
        {
          "internalType": "address",
          "name": "wallet",
          "type": "address"
        },
        {
          "internalType": "string",
          "name": "name",
          "type": "string"
        },
        {
          "internalType": "string",
          "name": "password",
          "type": "string"
        },
        {
          "internalType": "string",
          "name": "email",
          "type": "string"
        },
        {
          "internalType": "string",
          "name": "doclicense",
          "type": "string"
        },
        {
          "internalType": "string",
          "name": "docspecial",
          "type": "string"
        }
      ],
      "name": "addDoctor",
      "outputs": [],
      "stateMutability": "nonpayable",
      "type": "function"
    },
    {
      "inputs": [
        {
          "internalType": "address",
          "name": "wallet",
          "type": "address"
        },
        {
          "internalType": "string",
          "name": "name",
          "type": "string"
        },
        {
          "internalType": "string",
          "name": "password",
          "type": "string"
        },
        {
          "internalType": "string",
          "name": "email",
          "type": "string"
        }
      ],
      "name": "addPatient",
      "outputs": [],
      "stateMutability": "nonpayable",
      "type": "function"
    },
    {
      "inputs": [],
      "name": "viewAllDoctors",
      "outputs": [
        {
          "components": [
            {
              "internalType": "address",
              "name": "_doctorAddress",
              "type": "address"
            },
            {
              "internalType": "uint256",
              "name": "_doctorId",
              "type": "uint256"
            },
            {
              "internalType": "string",
              "name": "_doctorName",
              "type": "string"
            },
            {
              "internalType": "string",
              "name": "_doctorPassword",
              "type": "string"
            },
            {
              "internalType": "string",
              "name": "_doctorEmail",
              "type": "string"
            },
            {
              "internalType": "string",
              "name": "_doctorLicense",
              "type": "string"
            },
            {
              "internalType": "string",
              "name": "_doctorSpecialisation",
              "type": "string"
            },
            {
              "internalType": "bool",
              "name": "_exist",
              "type": "bool"
            }
          ],
          "internalType": "struct UserManagement.Doctor[]",
          "name": "",
          "type": "tuple[]"
        }
      ],
      "stateMutability": "view",
      "type": "function",
      "constant": true
    },
    {
      "inputs": [],
      "name": "viewAllPatients",
      "outputs": [
        {
          "components": [
            {
              "internalType": "address",
              "name": "_patientAddress",
              "type": "address"
            },
            {
              "internalType": "uint256",
              "name": "_patientId",
              "type": "uint256"
            },
            {
              "internalType": "string",
              "name": "_patientName",
              "type": "string"
            },
            {
              "internalType": "string",
              "name": "_patientPassword",
              "type": "string"
            },
            {
              "internalType": "string",
              "name": "_patientEmail",
              "type": "string"
            },
            {
              "internalType": "string",
              "name": "_patientGender",
              "type": "string"
            },
            {
              "internalType": "string",
              "name": "_patientPhone",
              "type": "string"
            },
            {
              "internalType": "string",
              "name": "_patientHomeAddress",
              "type": "string"
            },
            {
              "internalType": "string",
              "name": "_patientProfilePhoto",
              "type": "string"
            },
            {
              "internalType": "bool",
              "name": "_exist",
              "type": "bool"
            }
          ],
          "internalType": "struct UserManagement.Patient[]",
          "name": "",
          "type": "tuple[]"
        }
      ],
      "stateMutability": "view",
      "type": "function",
      "constant": true
    },
    {
      "inputs": [
        {
          "internalType": "address",
          "name": "wallet",
          "type": "address"
        }
      ],
      "name": "viewDoctorByWallet",
      "outputs": [
        {
          "components": [
            {
              "internalType": "address",
              "name": "_doctorAddress",
              "type": "address"
            },
            {
              "internalType": "uint256",
              "name": "_doctorId",
              "type": "uint256"
            },
            {
              "internalType": "string",
              "name": "_doctorName",
              "type": "string"
            },
            {
              "internalType": "string",
              "name": "_doctorPassword",
              "type": "string"
            },
            {
              "internalType": "string",
              "name": "_doctorEmail",
              "type": "string"
            },
            {
              "internalType": "string",
              "name": "_doctorLicense",
              "type": "string"
            },
            {
              "internalType": "string",
              "name": "_doctorSpecialisation",
              "type": "string"
            },
            {
              "internalType": "bool",
              "name": "_exist",
              "type": "bool"
            }
          ],
          "internalType": "struct UserManagement.Doctor",
          "name": "",
          "type": "tuple"
        }
      ],
      "stateMutability": "view",
      "type": "function",
      "constant": true
    },
    {
      "inputs": [
        {
          "internalType": "address",
          "name": "wallet",
          "type": "address"
        }
      ],
      "name": "viewPatientByWallet",
      "outputs": [
        {
          "components": [
            {
              "internalType": "address",
              "name": "_patientAddress",
              "type": "address"
            },
            {
              "internalType": "uint256",
              "name": "_patientId",
              "type": "uint256"
            },
            {
              "internalType": "string",
              "name": "_patientName",
              "type": "string"
            },
            {
              "internalType": "string",
              "name": "_patientPassword",
              "type": "string"
            },
            {
              "internalType": "string",
              "name": "_patientEmail",
              "type": "string"
            },
            {
              "internalType": "string",
              "name": "_patientGender",
              "type": "string"
            },
            {
              "internalType": "string",
              "name": "_patientPhone",
              "type": "string"
            },
            {
              "internalType": "string",
              "name": "_patientHomeAddress",
              "type": "string"
            },
            {
              "internalType": "string",
              "name": "_patientProfilePhoto",
              "type": "string"
            },
            {
              "internalType": "bool",
              "name": "_exist",
              "type": "bool"
            }
          ],
          "internalType": "struct UserManagement.Patient",
          "name": "",
          "type": "tuple"
        }
      ],
      "stateMutability": "view",
      "type": "function",
      "constant": true
    },
    {
      "inputs": [
        {
          "internalType": "uint256",
          "name": "docI",
          "type": "uint256"
        }
      ],
      "name": "viewDoctorById",
      "outputs": [
        {
          "components": [
            {
              "internalType": "address",
              "name": "_doctorAddress",
              "type": "address"
            },
            {
              "internalType": "uint256",
              "name": "_doctorId",
              "type": "uint256"
            },
            {
              "internalType": "string",
              "name": "_doctorName",
              "type": "string"
            },
            {
              "internalType": "string",
              "name": "_doctorPassword",
              "type": "string"
            },
            {
              "internalType": "string",
              "name": "_doctorEmail",
              "type": "string"
            },
            {
              "internalType": "string",
              "name": "_doctorLicense",
              "type": "string"
            },
            {
              "internalType": "string",
              "name": "_doctorSpecialisation",
              "type": "string"
            },
            {
              "internalType": "bool",
              "name": "_exist",
              "type": "bool"
            }
          ],
          "internalType": "struct UserManagement.Doctor",
          "name": "",
          "type": "tuple"
        }
      ],
      "stateMutability": "view",
      "type": "function",
      "constant": true
    },
    {
      "inputs": [
        {
          "internalType": "uint256",
          "name": "patI",
          "type": "uint256"
        }
      ],
      "name": "viewPatientById",
      "outputs": [
        {
          "components": [
            {
              "internalType": "address",
              "name": "_patientAddress",
              "type": "address"
            },
            {
              "internalType": "uint256",
              "name": "_patientId",
              "type": "uint256"
            },
            {
              "internalType": "string",
              "name": "_patientName",
              "type": "string"
            },
            {
              "internalType": "string",
              "name": "_patientPassword",
              "type": "string"
            },
            {
              "internalType": "string",
              "name": "_patientEmail",
              "type": "string"
            },
            {
              "internalType": "string",
              "name": "_patientGender",
              "type": "string"
            },
            {
              "internalType": "string",
              "name": "_patientPhone",
              "type": "string"
            },
            {
              "internalType": "string",
              "name": "_patientHomeAddress",
              "type": "string"
            },
            {
              "internalType": "string",
              "name": "_patientProfilePhoto",
              "type": "string"
            },
            {
              "internalType": "bool",
              "name": "_exist",
              "type": "bool"
            }
          ],
          "internalType": "struct UserManagement.Patient",
          "name": "",
          "type": "tuple"
        }
      ],
      "stateMutability": "view",
      "type": "function",
      "constant": true
    },
    {
      "inputs": [
        {
          "internalType": "string",
          "name": "email",
          "type": "string"
        },
        {
          "internalType": "string",
          "name": "password",
          "type": "string"
        }
      ],
      "name": "doctorLogin",
      "outputs": [
        {
          "internalType": "bool",
          "name": "",
          "type": "bool"
        }
      ],
      "stateMutability": "view",
      "type": "function",
      "constant": true
    },
    {
      "inputs": [
        {
          "internalType": "string",
          "name": "email",
          "type": "string"
        },
        {
          "internalType": "string",
          "name": "password",
          "type": "string"
        }
      ],
      "name": "patientLogin",
      "outputs": [
        {
          "internalType": "bool",
          "name": "",
          "type": "bool"
        }
      ],
      "stateMutability": "view",
      "type": "function",
      "constant": true
    },
    {
      "inputs": [
        {
          "internalType": "string",
          "name": "email",
          "type": "string"
        }
      ],
      "name": "viewPatientByEmail",
      "outputs": [
        {
          "components": [
            {
              "internalType": "address",
              "name": "_patientAddress",
              "type": "address"
            },
            {
              "internalType": "uint256",
              "name": "_patientId",
              "type": "uint256"
            },
            {
              "internalType": "string",
              "name": "_patientName",
              "type": "string"
            },
            {
              "internalType": "string",
              "name": "_patientPassword",
              "type": "string"
            },
            {
              "internalType": "string",
              "name": "_patientEmail",
              "type": "string"
            },
            {
              "internalType": "string",
              "name": "_patientGender",
              "type": "string"
            },
            {
              "internalType": "string",
              "name": "_patientPhone",
              "type": "string"
            },
            {
              "internalType": "string",
              "name": "_patientHomeAddress",
              "type": "string"
            },
            {
              "internalType": "string",
              "name": "_patientProfilePhoto",
              "type": "string"
            },
            {
              "internalType": "bool",
              "name": "_exist",
              "type": "bool"
            }
          ],
          "internalType": "struct UserManagement.Patient",
          "name": "",
          "type": "tuple"
        }
      ],
      "stateMutability": "view",
      "type": "function",
      "constant": true
    },
    {
      "inputs": [
        {
          "internalType": "string",
          "name": "name",
          "type": "string"
        },
        {
          "internalType": "string",
          "name": "email",
          "type": "string"
        },
        {
          "internalType": "string",
          "name": "gender",
          "type": "string"
        },
        {
          "internalType": "string",
          "name": "phone",
          "type": "string"
        },
        {
          "internalType": "string",
          "name": "homeAddress",
          "type": "string"
        }
      ],
      "name": "updatePatientByEmail",
      "outputs": [],
      "stateMutability": "nonpayable",
      "type": "function"
    },
    {
      "inputs": [
        {
          "internalType": "string",
          "name": "photo",
          "type": "string"
        },
        {
          "internalType": "string",
          "name": "email",
          "type": "string"
        }
      ],
      "name": "updatePatientPhoto",
      "outputs": [],
      "stateMutability": "nonpayable",
      "type": "function"
    },
    {
      "inputs": [
        {
          "internalType": "string",
          "name": "email",
          "type": "string"
        }
      ],
      "name": "viewDoctorByEmail",
      "outputs": [
        {
          "components": [
            {
              "internalType": "address",
              "name": "_doctorAddress",
              "type": "address"
            },
            {
              "internalType": "uint256",
              "name": "_doctorId",
              "type": "uint256"
            },
            {
              "internalType": "string",
              "name": "_doctorName",
              "type": "string"
            },
            {
              "internalType": "string",
              "name": "_doctorPassword",
              "type": "string"
            },
            {
              "internalType": "string",
              "name": "_doctorEmail",
              "type": "string"
            },
            {
              "internalType": "string",
              "name": "_doctorLicense",
              "type": "string"
            },
            {
              "internalType": "string",
              "name": "_doctorSpecialisation",
              "type": "string"
            },
            {
              "internalType": "bool",
              "name": "_exist",
              "type": "bool"
            }
          ],
          "internalType": "struct UserManagement.Doctor",
          "name": "",
          "type": "tuple"
        }
      ],
      "stateMutability": "view",
      "type": "function",
      "constant": true
    },
    {
      "inputs": [],
      "name": "viewAdmin",
      "outputs": [
        {
          "internalType": "address",
          "name": "",
          "type": "address"
        },
        {
          "internalType": "string",
          "name": "",
          "type": "string"
        }
      ],
      "stateMutability": "view",
      "type": "function",
      "constant": true
    },
    {
      "inputs": [
        {
          "internalType": "uint256",
          "name": "docI",
          "type": "uint256"
        }
      ],
      "name": "getDoctorNameById",
      "outputs": [
        {
          "internalType": "string",
          "name": "",
          "type": "string"
        }
      ],
      "stateMutability": "view",
      "type": "function",
      "constant": true
    },
    {
      "inputs": [
        {
          "internalType": "uint256",
          "name": "patI",
          "type": "uint256"
        }
      ],
      "name": "getPatientNameById",
      "outputs": [
        {
          "internalType": "string",
          "name": "",
          "type": "string"
        }
      ],
      "stateMutability": "view",
      "type": "function",
      "constant": true
    }
  ],
  "bytecode": "0x60806040526040518060400160405280600f81526020017f61646d696e40676d61696c2e636f6d0000000000000000000000000000000000815250600190816200004a919062000368565b506040518060400160405280600881526020017f61646d696e3132330000000000000000000000000000000000000000000000008152506002908162000091919062000368565b503480156200009f57600080fd5b50336000806101000a81548173ffffffffffffffffffffffffffffffffffffffff021916908373ffffffffffffffffffffffffffffffffffffffff16021790555060006003819055506200044f565b600081519050919050565b7f4e487b7100000000000000000000000000000000000000000000000000000000600052604160045260246000fd5b7f4e487b7100000000000000000000000000000000000000000000000000000000600052602260045260246000fd5b600060028204905060018216806200017057607f821691505b60208210810362000186576200018562000128565b5b50919050565b60008190508160005260206000209050919050565b60006020601f8301049050919050565b600082821b905092915050565b600060088302620001f07fffffffffffffffffffffffffffffffffffffffffffffffffffffffffffffffff82620001b1565b620001fc8683620001b1565b95508019841693508086168417925050509392505050565b6000819050919050565b6000819050919050565b600062000249620002436200023d8462000214565b6200021e565b62000214565b9050919050565b6000819050919050565b620002658362000228565b6200027d620002748262000250565b848454620001be565b825550505050565b600090565b6200029462000285565b620002a18184846200025a565b505050565b5b81811015620002c957620002bd6000826200028a565b600181019050620002a7565b5050565b601f8211156200031857620002e2816200018c565b620002ed84620001a1565b81016020851015620002fd578190505b620003156200030c85620001a1565b830182620002a6565b50505b505050565b600082821c905092915050565b60006200033d600019846008026200031d565b1980831691505092915050565b60006200035883836200032a565b9150826002028217905092915050565b6200037382620000ee565b67ffffffffffffffff8111156200038f576200038e620000f9565b5b6200039b825462000157565b620003a8828285620002cd565b600060209050601f831160018114620003e05760008415620003cb578287015190505b620003d785826200034a565b86555062000447565b601f198416620003f0866200018c565b60005b828110156200041a57848901518255600182019150602085019450602081019050620003f3565b868310156200043a578489015162000436601f8916826200032a565b8355505b6001600288020188555050505b505050505050565b615902806200045f6000396000f3fe608060405234801561001057600080fd5b50600436106101165760003560e01c806388536168116100a2578063c58d703411610071578063c58d70341461032c578063d46d20311461035c578063e0964f9f1461037a578063ee38d02d14610396578063f775f6f6146103c657610116565b8063885361681461027d5780638effab65146102ad5780639910ed9a146102dd5780639c392c2a146102fc57610116565b8063664ca36b116100e9578063664ca36b1461019f57806370f3b206146101cf57806372ec794b146101ff5780637395be371461022f5780638609acde1461024d57610116565b80631128c9ea1461011b5780632660b7a2146101375780632c76361f1461016757806333931fe414610183575b600080fd5b610135600480360381019061013091906144fd565b6103f6565b005b610151600480360381019061014c919061464c565b610687565b60405161015e91906146f8565b60405180910390f35b610181600480360381019061017c919061471a565b6106a3565b005b61019d600480360381019061019891906147d5565b610a40565b005b6101b960048036038101906101b491906147d5565b610bd9565b6040516101c69190614868565b60405180910390f35b6101e960048036038101906101e49190614883565b611032565b6040516101f691906149f3565b60405180910390f35b61021960048036038101906102149190614a15565b611470565b60405161022691906149f3565b60405180910390f35b6102376118e2565b6040516102449190614c24565b60405180910390f35b6102676004803603810190610262919061464c565b611e8c565b60405161027491906149f3565b60405180910390f35b61029760048036038101906102929190614883565b612333565b6040516102a49190614d4a565b60405180910390f35b6102c760048036038101906102c2919061464c565b612895565b6040516102d491906146f8565b60405180910390f35b6102e56128b1565b6040516102f3929190614d7b565b60405180910390f35b61031660048036038101906103119190614a15565b61296c565b6040516103239190614d4a565b60405180910390f35b610346600480360381019061034191906147d5565b612f02565b6040516103539190614868565b60405180910390f35b610364612f69565b6040516103719190614f39565b60405180910390f35b610394600480360381019061038f9190614f5b565b6133ef565b005b6103b060048036038101906103ab91906147d5565b613735565b6040516103bd9190614868565b60405180910390f35b6103e060048036038101906103db919061464c565b613cb2565b6040516103ed9190614d4a565b60405180910390f35b600460008773ffffffffffffffffffffffffffffffffffffffff1673ffffffffffffffffffffffffffffffffffffffff16815260200190815260200160002060070160009054906101000a900460ff1615610486576040517f08c379a000000000000000000000000000000000000000000000000000000000815260040161047d906150ae565b60405180910390fd5b60016003600082825461049991906150fd565b9250508190555060006040518061010001604052808873ffffffffffffffffffffffffffffffffffffffff168152602001600354815260200187815260200186815260200185815260200184815260200183815260200160011515815250905080600460008973ffffffffffffffffffffffffffffffffffffffff1673ffffffffffffffffffffffffffffffffffffffff16815260200190815260200160002060008201518160000160006101000a81548173ffffffffffffffffffffffffffffffffffffffff021916908373ffffffffffffffffffffffffffffffffffffffff16021790555060208201518160010155604082015181600201908161059f919061533d565b5060608201518160030190816105b5919061533d565b5060808201518160040190816105cb919061533d565b5060a08201518160050190816105e1919061533d565b5060c08201518160060190816105f7919061533d565b5060e08201518160070160006101000a81548160ff0219169083151502179055509050506005879080600181540180825580915050600190039060005260206000200160009091909190916101000a81548173ffffffffffffffffffffffffffffffffffffffff021916908373ffffffffffffffffffffffffffffffffffffffff16021790555050505050505050565b6060600061069483613cb2565b90508060400151915050919050565b600660008573ffffffffffffffffffffffffffffffffffffffff1673ffffffffffffffffffffffffffffffffffffffff16815260200190815260200160002060090160009054906101000a900460ff1615610733576040517f08c379a000000000000000000000000000000000000000000000000000000000815260040161072a906150ae565b60405180910390fd5b60016003600082825461074691906150fd565b9250508190555060006040518061014001604052808673ffffffffffffffffffffffffffffffffffffffff16815260200160035481526020018581526020018481526020018381526020016040518060400160405280600281526020017f4e4100000000000000000000000000000000000000000000000000000000000081525081526020016040518060400160405280600281526020017f4e4100000000000000000000000000000000000000000000000000000000000081525081526020016040518060400160405280600281526020017f4e4100000000000000000000000000000000000000000000000000000000000081525081526020016040518060400160405280600281526020017f4e41000000000000000000000000000000000000000000000000000000000000815250815260200160011515815250905080600660008773ffffffffffffffffffffffffffffffffffffffff1673ffffffffffffffffffffffffffffffffffffffff16815260200190815260200160002060008201518160000160006101000a81548173ffffffffffffffffffffffffffffffffffffffff021916908373ffffffffffffffffffffffffffffffffffffffff16021790555060208201518160010155604082015181600201908161092c919061533d565b506060820151816003019081610942919061533d565b506080820151816004019081610958919061533d565b5060a082015181600501908161096e919061533d565b5060c0820151816006019081610984919061533d565b5060e082015181600701908161099a919061533d565b506101008201518160080190816109b1919061533d565b506101208201518160090160006101000a81548160ff0219169083151502179055509050506007859080600181540180825580915050600190039060005260206000200160009091909190916101000a81548173ffffffffffffffffffffffffffffffffffffffff021916908373ffffffffffffffffffffffffffffffffffffffff1602179055505050505050565b60005b600780549050811015610b995781805190602001206006600060078481548110610a7057610a6f61540f565b5b9060005260206000200160009054906101000a900473ffffffffffffffffffffffffffffffffffffffff1673ffffffffffffffffffffffffffffffffffffffff1673ffffffffffffffffffffffffffffffffffffffff168152602001908152602001600020600401604051610ae591906154e1565b604051809103902003610b8657826006600060078481548110610b0b57610b0a61540f565b5b9060005260206000200160009054906101000a900473ffffffffffffffffffffffffffffffffffffffff1673ffffffffffffffffffffffffffffffffffffffff1673ffffffffffffffffffffffffffffffffffffffff1681526020019081526020016000206008019081610b7f919061533d565b5050610bd5565b8080610b91906154f8565b915050610a43565b506040517f08c379a0000000000000000000000000000000000000000000000000000000008152600401610bcc906155b2565b60405180910390fd5b5050565b600080600090505b6005805490508110156110265760006004600060058481548110610c0857610c0761540f565b5b9060005260206000200160009054906101000a900473ffffffffffffffffffffffffffffffffffffffff1673ffffffffffffffffffffffffffffffffffffffff1673ffffffffffffffffffffffffffffffffffffffff168152602001908152602001600020604051806101000160405290816000820160009054906101000a900473ffffffffffffffffffffffffffffffffffffffff1673ffffffffffffffffffffffffffffffffffffffff1673ffffffffffffffffffffffffffffffffffffffff16815260200160018201548152602001600282018054610ce990615160565b80601f0160208091040260200160405190810160405280929190818152602001828054610d1590615160565b8015610d625780601f10610d3757610100808354040283529160200191610d62565b820191906000526020600020905b815481529060010190602001808311610d4557829003601f168201915b50505050508152602001600382018054610d7b90615160565b80601f0160208091040260200160405190810160405280929190818152602001828054610da790615160565b8015610df45780601f10610dc957610100808354040283529160200191610df4565b820191906000526020600020905b815481529060010190602001808311610dd757829003601f168201915b50505050508152602001600482018054610e0d90615160565b80601f0160208091040260200160405190810160405280929190818152602001828054610e3990615160565b8015610e865780601f10610e5b57610100808354040283529160200191610e86565b820191906000526020600020905b815481529060010190602001808311610e6957829003601f168201915b50505050508152602001600582018054610e9f90615160565b80601f0160208091040260200160405190810160405280929190818152602001828054610ecb90615160565b8015610f185780601f10610eed57610100808354040283529160200191610f18565b820191906000526020600020905b815481529060010190602001808311610efb57829003601f168201915b50505050508152602001600682018054610f3190615160565b80601f0160208091040260200160405190810160405280929190818152602001828054610f5d90615160565b8015610faa5780601f10610f7f57610100808354040283529160200191610faa565b820191906000526020600020905b815481529060010190602001808311610f8d57829003601f168201915b505050505081526020016007820160009054906101000a900460ff1615151515815250509050848051906020012081608001518051906020012014801561100257508380519060200120816060015180519060200120145b156110125760019250505061102c565b50808061101e906154f8565b915050610be1565b50600090505b92915050565b61103a61427d565b600460008373ffffffffffffffffffffffffffffffffffffffff1673ffffffffffffffffffffffffffffffffffffffff16815260200190815260200160002060070160009054906101000a900460ff166110c9576040517f08c379a00000000000000000000000000000000000000000000000000000000081526004016110c09061561e565b60405180910390fd5b600460008373ffffffffffffffffffffffffffffffffffffffff1673ffffffffffffffffffffffffffffffffffffffff168152602001908152602001600020604051806101000160405290816000820160009054906101000a900473ffffffffffffffffffffffffffffffffffffffff1673ffffffffffffffffffffffffffffffffffffffff1673ffffffffffffffffffffffffffffffffffffffff1681526020016001820154815260200160028201805461118490615160565b80601f01602080910402602001604051908101604052809291908181526020018280546111b090615160565b80156111fd5780601f106111d2576101008083540402835291602001916111fd565b820191906000526020600020905b8154815290600101906020018083116111e057829003601f168201915b5050505050815260200160038201805461121690615160565b80601f016020809104026020016040519081016040528092919081815260200182805461124290615160565b801561128f5780601f106112645761010080835404028352916020019161128f565b820191906000526020600020905b81548152906001019060200180831161127257829003601f168201915b505050505081526020016004820180546112a890615160565b80601f01602080910402602001604051908101604052809291908181526020018280546112d490615160565b80156113215780601f106112f657610100808354040283529160200191611321565b820191906000526020600020905b81548152906001019060200180831161130457829003601f168201915b5050505050815260200160058201805461133a90615160565b80601f016020809104026020016040519081016040528092919081815260200182805461136690615160565b80156113b35780601f10611388576101008083540402835291602001916113b3565b820191906000526020600020905b81548152906001019060200180831161139657829003601f168201915b505050505081526020016006820180546113cc90615160565b80601f01602080910402602001604051908101604052809291908181526020018280546113f890615160565b80156114455780601f1061141a57610100808354040283529160200191611445565b820191906000526020600020905b81548152906001019060200180831161142857829003601f168201915b505050505081526020016007820160009054906101000a900460ff1615151515815250509050919050565b61147861427d565b60005b6005805490508110156118a157600060046000600584815481106114a2576114a161540f565b5b9060005260206000200160009054906101000a900473ffffffffffffffffffffffffffffffffffffffff1673ffffffffffffffffffffffffffffffffffffffff1673ffffffffffffffffffffffffffffffffffffffff168152602001908152602001600020604051806101000160405290816000820160009054906101000a900473ffffffffffffffffffffffffffffffffffffffff1673ffffffffffffffffffffffffffffffffffffffff1673ffffffffffffffffffffffffffffffffffffffff1681526020016001820154815260200160028201805461158390615160565b80601f01602080910402602001604051908101604052809291908181526020018280546115af90615160565b80156115fc5780601f106115d1576101008083540402835291602001916115fc565b820191906000526020600020905b8154815290600101906020018083116115df57829003601f168201915b5050505050815260200160038201805461161590615160565b80601f016020809104026020016040519081016040528092919081815260200182805461164190615160565b801561168e5780601f106116635761010080835404028352916020019161168e565b820191906000526020600020905b81548152906001019060200180831161167157829003601f168201915b505050505081526020016004820180546116a790615160565b80601f01602080910402602001604051908101604052809291908181526020018280546116d390615160565b80156117205780601f106116f557610100808354040283529160200191611720565b820191906000526020600020905b81548152906001019060200180831161170357829003601f168201915b5050505050815260200160058201805461173990615160565b80601f016020809104026020016040519081016040528092919081815260200182805461176590615160565b80156117b25780601f10611787576101008083540402835291602001916117b2565b820191906000526020600020905b81548152906001019060200180831161179557829003601f168201915b505050505081526020016006820180546117cb90615160565b80601f01602080910402602001604051908101604052809291908181526020018280546117f790615160565b80156118445780601f1061181957610100808354040283529160200191611844565b820191906000526020600020905b81548152906001019060200180831161182757829003601f168201915b505050505081526020016007820160009054906101000a900460ff161515151581525050905083805190602001208160800151805190602001200361188d5780925050506118dd565b508080611899906154f8565b91505061147b565b506040517f08c379a00000000000000000000000000000000000000000000000000000000081526004016118d4906156b0565b60405180910390fd5b919050565b6060600060078054905067ffffffffffffffff811115611905576119046143d2565b5b60405190808252806020026020018201604052801561193e57816020015b61192b6142da565b8152602001906001900390816119235790505b50905060005b600780549050811015611e845760066000600783815481106119695761196861540f565b5b9060005260206000200160009054906101000a900473ffffffffffffffffffffffffffffffffffffffff1673ffffffffffffffffffffffffffffffffffffffff1673ffffffffffffffffffffffffffffffffffffffff168152602001908152602001600020604051806101400160405290816000820160009054906101000a900473ffffffffffffffffffffffffffffffffffffffff1673ffffffffffffffffffffffffffffffffffffffff1673ffffffffffffffffffffffffffffffffffffffff16815260200160018201548152602001600282018054611a4a90615160565b80601f0160208091040260200160405190810160405280929190818152602001828054611a7690615160565b8015611ac35780601f10611a9857610100808354040283529160200191611ac3565b820191906000526020600020905b815481529060010190602001808311611aa657829003601f168201915b50505050508152602001600382018054611adc90615160565b80601f0160208091040260200160405190810160405280929190818152602001828054611b0890615160565b8015611b555780601f10611b2a57610100808354040283529160200191611b55565b820191906000526020600020905b815481529060010190602001808311611b3857829003601f168201915b50505050508152602001600482018054611b6e90615160565b80601f0160208091040260200160405190810160405280929190818152602001828054611b9a90615160565b8015611be75780601f10611bbc57610100808354040283529160200191611be7565b820191906000526020600020905b815481529060010190602001808311611bca57829003601f168201915b50505050508152602001600582018054611c0090615160565b80601f0160208091040260200160405190810160405280929190818152602001828054611c2c90615160565b8015611c795780601f10611c4e57610100808354040283529160200191611c79565b820191906000526020600020905b815481529060010190602001808311611c5c57829003601f168201915b50505050508152602001600682018054611c9290615160565b80601f0160208091040260200160405190810160405280929190818152602001828054611cbe90615160565b8015611d0b5780601f10611ce057610100808354040283529160200191611d0b565b820191906000526020600020905b815481529060010190602001808311611cee57829003601f168201915b50505050508152602001600782018054611d2490615160565b80601f0160208091040260200160405190810160405280929190818152602001828054611d5090615160565b8015611d9d5780601f10611d7257610100808354040283529160200191611d9d565b820191906000526020600020905b815481529060010190602001808311611d8057829003601f168201915b50505050508152602001600882018054611db690615160565b80601f0160208091040260200160405190810160405280929190818152602001828054611de290615160565b8015611e2f5780601f10611e0457610100808354040283529160200191611e2f565b820191906000526020600020905b815481529060010190602001808311611e1257829003601f168201915b505050505081526020016009820160009054906101000a900460ff161515151581525050828281518110611e6657611e6561540f565b5b60200260200101819052508080611e7c906154f8565b915050611944565b508091505090565b611e9461427d565b60008211611ed7576040517f08c379a0000000000000000000000000000000000000000000000000000000008152600401611ece9061571c565b60405180910390fd5b60005b6005805490508110156122f25760006004600060058481548110611f0157611f0061540f565b5b9060005260206000200160009054906101000a900473ffffffffffffffffffffffffffffffffffffffff1673ffffffffffffffffffffffffffffffffffffffff1673ffffffffffffffffffffffffffffffffffffffff168152602001908152602001600020604051806101000160405290816000820160009054906101000a900473ffffffffffffffffffffffffffffffffffffffff1673ffffffffffffffffffffffffffffffffffffffff1673ffffffffffffffffffffffffffffffffffffffff16815260200160018201548152602001600282018054611fe290615160565b80601f016020809104026020016040519081016040528092919081815260200182805461200e90615160565b801561205b5780601f106120305761010080835404028352916020019161205b565b820191906000526020600020905b81548152906001019060200180831161203e57829003601f168201915b5050505050815260200160038201805461207490615160565b80601f01602080910402602001604051908101604052809291908181526020018280546120a090615160565b80156120ed5780601f106120c2576101008083540402835291602001916120ed565b820191906000526020600020905b8154815290600101906020018083116120d057829003601f168201915b5050505050815260200160048201805461210690615160565b80601f016020809104026020016040519081016040528092919081815260200182805461213290615160565b801561217f5780601f106121545761010080835404028352916020019161217f565b820191906000526020600020905b81548152906001019060200180831161216257829003601f168201915b5050505050815260200160058201805461219890615160565b80601f01602080910402602001604051908101604052809291908181526020018280546121c490615160565b80156122115780601f106121e657610100808354040283529160200191612211565b820191906000526020600020905b8154815290600101906020018083116121f457829003601f168201915b5050505050815260200160068201805461222a90615160565b80601f016020809104026020016040519081016040528092919081815260200182805461225690615160565b80156122a35780601f10612278576101008083540402835291602001916122a3565b820191906000526020600020905b81548152906001019060200180831161228657829003601f168201915b505050505081526020016007820160009054906101000a900460ff1615151515815250509050838160200151036122de57809250505061232e565b5080806122ea906154f8565b915050611eda565b506040517f08c379a0000000000000000000000000000000000000000000000000000000008152600401612325906157ae565b60405180910390fd5b919050565b61233b6142da565b600660008373ffffffffffffffffffffffffffffffffffffffff1673ffffffffffffffffffffffffffffffffffffffff16815260200190815260200160002060090160009054906101000a900460ff166123ca576040517f08c379a00000000000000000000000000000000000000000000000000000000081526004016123c19061561e565b60405180910390fd5b600660008373ffffffffffffffffffffffffffffffffffffffff1673ffffffffffffffffffffffffffffffffffffffff168152602001908152602001600020604051806101400160405290816000820160009054906101000a900473ffffffffffffffffffffffffffffffffffffffff1673ffffffffffffffffffffffffffffffffffffffff1673ffffffffffffffffffffffffffffffffffffffff1681526020016001820154815260200160028201805461248590615160565b80601f01602080910402602001604051908101604052809291908181526020018280546124b190615160565b80156124fe5780601f106124d3576101008083540402835291602001916124fe565b820191906000526020600020905b8154815290600101906020018083116124e157829003601f168201915b5050505050815260200160038201805461251790615160565b80601f016020809104026020016040519081016040528092919081815260200182805461254390615160565b80156125905780601f1061256557610100808354040283529160200191612590565b820191906000526020600020905b81548152906001019060200180831161257357829003601f168201915b505050505081526020016004820180546125a990615160565b80601f01602080910402602001604051908101604052809291908181526020018280546125d590615160565b80156126225780601f106125f757610100808354040283529160200191612622565b820191906000526020600020905b81548152906001019060200180831161260557829003601f168201915b5050505050815260200160058201805461263b90615160565b80601f016020809104026020016040519081016040528092919081815260200182805461266790615160565b80156126b45780601f10612689576101008083540402835291602001916126b4565b820191906000526020600020905b81548152906001019060200180831161269757829003601f168201915b505050505081526020016006820180546126cd90615160565b80601f01602080910402602001604051908101604052809291908181526020018280546126f990615160565b80156127465780601f1061271b57610100808354040283529160200191612746565b820191906000526020600020905b81548152906001019060200180831161272957829003601f168201915b5050505050815260200160078201805461275f90615160565b80601f016020809104026020016040519081016040528092919081815260200182805461278b90615160565b80156127d85780601f106127ad576101008083540402835291602001916127d8565b820191906000526020600020905b8154815290600101906020018083116127bb57829003601f168201915b505050505081526020016008820180546127f190615160565b80601f016020809104026020016040519081016040528092919081815260200182805461281d90615160565b801561286a5780601f1061283f5761010080835404028352916020019161286a565b820191906000526020600020905b81548152906001019060200180831161284d57829003601f168201915b505050505081526020016009820160009054906101000a900460ff1615151515815250509050919050565b606060006128a283611e8c565b90508060400151915050919050565b6000606060008054906101000a900473ffffffffffffffffffffffffffffffffffffffff1660018080546128e490615160565b80601f016020809104026020016040519081016040528092919081815260200182805461291090615160565b801561295d5780601f106129325761010080835404028352916020019161295d565b820191906000526020600020905b81548152906001019060200180831161294057829003601f168201915b50505050509050915091509091565b6129746142da565b60005b600780549050811015612ec1576000600660006007848154811061299e5761299d61540f565b5b9060005260206000200160009054906101000a900473ffffffffffffffffffffffffffffffffffffffff1673ffffffffffffffffffffffffffffffffffffffff1673ffffffffffffffffffffffffffffffffffffffff168152602001908152602001600020604051806101400160405290816000820160009054906101000a900473ffffffffffffffffffffffffffffffffffffffff1673ffffffffffffffffffffffffffffffffffffffff1673ffffffffffffffffffffffffffffffffffffffff16815260200160018201548152602001600282018054612a7f90615160565b80601f0160208091040260200160405190810160405280929190818152602001828054612aab90615160565b8015612af85780601f10612acd57610100808354040283529160200191612af8565b820191906000526020600020905b815481529060010190602001808311612adb57829003601f168201915b50505050508152602001600382018054612b1190615160565b80601f0160208091040260200160405190810160405280929190818152602001828054612b3d90615160565b8015612b8a5780601f10612b5f57610100808354040283529160200191612b8a565b820191906000526020600020905b815481529060010190602001808311612b6d57829003601f168201915b50505050508152602001600482018054612ba390615160565b80601f0160208091040260200160405190810160405280929190818152602001828054612bcf90615160565b8015612c1c5780601f10612bf157610100808354040283529160200191612c1c565b820191906000526020600020905b815481529060010190602001808311612bff57829003601f168201915b50505050508152602001600582018054612c3590615160565b80601f0160208091040260200160405190810160405280929190818152602001828054612c6190615160565b8015612cae5780601f10612c8357610100808354040283529160200191612cae565b820191906000526020600020905b815481529060010190602001808311612c9157829003601f168201915b50505050508152602001600682018054612cc790615160565b80601f0160208091040260200160405190810160405280929190818152602001828054612cf390615160565b8015612d405780601f10612d1557610100808354040283529160200191612d40565b820191906000526020600020905b815481529060010190602001808311612d2357829003601f168201915b50505050508152602001600782018054612d5990615160565b80601f0160208091040260200160405190810160405280929190818152602001828054612d8590615160565b8015612dd25780601f10612da757610100808354040283529160200191612dd2565b820191906000526020600020905b815481529060010190602001808311612db557829003601f168201915b50505050508152602001600882018054612deb90615160565b80601f0160208091040260200160405190810160405280929190818152602001828054612e1790615160565b8015612e645780601f10612e3957610100808354040283529160200191612e64565b820191906000526020600020905b815481529060010190602001808311612e4757829003601f168201915b505050505081526020016009820160009054906101000a900460ff1615151515815250509050838051906020012081608001518051906020012003612ead578092505050612efd565b508080612eb9906154f8565b915050612977565b506040517f08c379a0000000000000000000000000000000000000000000000000000000008152600401612ef4906155b2565b60405180910390fd5b919050565b60006001604051612f1391906154e1565b6040518091039020838051906020012003612f5e576002604051612f3791906154e1565b6040518091039020828051906020012003612f555760019050612f63565b60009050612f63565b600090505b92915050565b6060600060058054905067ffffffffffffffff811115612f8c57612f8b6143d2565b5b604051908082528060200260200182016040528015612fc557816020015b612fb261427d565b815260200190600190039081612faa5790505b50905060005b6005805490508110156133e7576004600060058381548110612ff057612fef61540f565b5b9060005260206000200160009054906101000a900473ffffffffffffffffffffffffffffffffffffffff1673ffffffffffffffffffffffffffffffffffffffff1673ffffffffffffffffffffffffffffffffffffffff168152602001908152602001600020604051806101000160405290816000820160009054906101000a900473ffffffffffffffffffffffffffffffffffffffff1673ffffffffffffffffffffffffffffffffffffffff1673ffffffffffffffffffffffffffffffffffffffff168152602001600182015481526020016002820180546130d190615160565b80601f01602080910402602001604051908101604052809291908181526020018280546130fd90615160565b801561314a5780601f1061311f5761010080835404028352916020019161314a565b820191906000526020600020905b81548152906001019060200180831161312d57829003601f168201915b5050505050815260200160038201805461316390615160565b80601f016020809104026020016040519081016040528092919081815260200182805461318f90615160565b80156131dc5780601f106131b1576101008083540402835291602001916131dc565b820191906000526020600020905b8154815290600101906020018083116131bf57829003601f168201915b505050505081526020016004820180546131f590615160565b80601f016020809104026020016040519081016040528092919081815260200182805461322190615160565b801561326e5780601f106132435761010080835404028352916020019161326e565b820191906000526020600020905b81548152906001019060200180831161325157829003601f168201915b5050505050815260200160058201805461328790615160565b80601f01602080910402602001604051908101604052809291908181526020018280546132b390615160565b80156133005780601f106132d557610100808354040283529160200191613300565b820191906000526020600020905b8154815290600101906020018083116132e357829003601f168201915b5050505050815260200160068201805461331990615160565b80601f016020809104026020016040519081016040528092919081815260200182805461334590615160565b80156133925780601f1061336757610100808354040283529160200191613392565b820191906000526020600020905b81548152906001019060200180831161337557829003601f168201915b505050505081526020016007820160009054906101000a900460ff1615151515815250508282815181106133c9576133c861540f565b5b602002602001018190525080806133df906154f8565b915050612fcb565b508091505090565b60005b6007805490508110156136f2578480519060200120600660006007848154811061341f5761341e61540f565b5b9060005260206000200160009054906101000a900473ffffffffffffffffffffffffffffffffffffffff1673ffffffffffffffffffffffffffffffffffffffff1673ffffffffffffffffffffffffffffffffffffffff16815260200190815260200160002060040160405161349491906154e1565b6040518091039020036136df578560066000600784815481106134ba576134b961540f565b5b9060005260206000200160009054906101000a900473ffffffffffffffffffffffffffffffffffffffff1673ffffffffffffffffffffffffffffffffffffffff1673ffffffffffffffffffffffffffffffffffffffff168152602001908152602001600020600201908161352e919061533d565b508360066000600784815481106135485761354761540f565b5b9060005260206000200160009054906101000a900473ffffffffffffffffffffffffffffffffffffffff1673ffffffffffffffffffffffffffffffffffffffff1673ffffffffffffffffffffffffffffffffffffffff16815260200190815260200160002060050190816135bc919061533d565b508260066000600784815481106135d6576135d561540f565b5b9060005260206000200160009054906101000a900473ffffffffffffffffffffffffffffffffffffffff1673ffffffffffffffffffffffffffffffffffffffff1673ffffffffffffffffffffffffffffffffffffffff168152602001908152602001600020600601908161364a919061533d565b508160066000600784815481106136645761366361540f565b5b9060005260206000200160009054906101000a900473ffffffffffffffffffffffffffffffffffffffff1673ffffffffffffffffffffffffffffffffffffffff1673ffffffffffffffffffffffffffffffffffffffff16815260200190815260200160002060070190816136d8919061533d565b505061372e565b80806136ea906154f8565b9150506133f2565b506040517f08c379a0000000000000000000000000000000000000000000000000000000008152600401613725906155b2565b60405180910390fd5b5050505050565b600080600090505b600780549050811015613ca657600060066000600784815481106137645761376361540f565b5b9060005260206000200160009054906101000a900473ffffffffffffffffffffffffffffffffffffffff1673ffffffffffffffffffffffffffffffffffffffff1673ffffffffffffffffffffffffffffffffffffffff168152602001908152602001600020604051806101400160405290816000820160009054906101000a900473ffffffffffffffffffffffffffffffffffffffff1673ffffffffffffffffffffffffffffffffffffffff1673ffffffffffffffffffffffffffffffffffffffff1681526020016001820154815260200160028201805461384590615160565b80601f016020809104026020016040519081016040528092919081815260200182805461387190615160565b80156138be5780601f10613893576101008083540402835291602001916138be565b820191906000526020600020905b8154815290600101906020018083116138a157829003601f168201915b505050505081526020016003820180546138d790615160565b80601f016020809104026020016040519081016040528092919081815260200182805461390390615160565b80156139505780601f1061392557610100808354040283529160200191613950565b820191906000526020600020905b81548152906001019060200180831161393357829003601f168201915b5050505050815260200160048201805461396990615160565b80601f016020809104026020016040519081016040528092919081815260200182805461399590615160565b80156139e25780601f106139b7576101008083540402835291602001916139e2565b820191906000526020600020905b8154815290600101906020018083116139c557829003601f168201915b505050505081526020016005820180546139fb90615160565b80601f0160208091040260200160405190810160405280929190818152602001828054613a2790615160565b8015613a745780601f10613a4957610100808354040283529160200191613a74565b820191906000526020600020905b815481529060010190602001808311613a5757829003601f168201915b50505050508152602001600682018054613a8d90615160565b80601f0160208091040260200160405190810160405280929190818152602001828054613ab990615160565b8015613b065780601f10613adb57610100808354040283529160200191613b06565b820191906000526020600020905b815481529060010190602001808311613ae957829003601f168201915b50505050508152602001600782018054613b1f90615160565b80601f0160208091040260200160405190810160405280929190818152602001828054613b4b90615160565b8015613b985780601f10613b6d57610100808354040283529160200191613b98565b820191906000526020600020905b815481529060010190602001808311613b7b57829003601f168201915b50505050508152602001600882018054613bb190615160565b80601f0160208091040260200160405190810160405280929190818152602001828054613bdd90615160565b8015613c2a5780601f10613bff57610100808354040283529160200191613c2a565b820191906000526020600020905b815481529060010190602001808311613c0d57829003601f168201915b505050505081526020016009820160009054906101000a900460ff16151515158152505090508480519060200120816080015180519060200120148015613c8257508380519060200120816060015180519060200120145b15613c9257600192505050613cac565b508080613c9e906154f8565b91505061373d565b50600090505b92915050565b613cba6142da565b60008211613cfd576040517f08c379a0000000000000000000000000000000000000000000000000000000008152600401613cf49061581a565b60405180910390fd5b60005b60078054905081101561423c5760006006600060078481548110613d2757613d2661540f565b5b9060005260206000200160009054906101000a900473ffffffffffffffffffffffffffffffffffffffff1673ffffffffffffffffffffffffffffffffffffffff1673ffffffffffffffffffffffffffffffffffffffff168152602001908152602001600020604051806101400160405290816000820160009054906101000a900473ffffffffffffffffffffffffffffffffffffffff1673ffffffffffffffffffffffffffffffffffffffff1673ffffffffffffffffffffffffffffffffffffffff16815260200160018201548152602001600282018054613e0890615160565b80601f0160208091040260200160405190810160405280929190818152602001828054613e3490615160565b8015613e815780601f10613e5657610100808354040283529160200191613e81565b820191906000526020600020905b815481529060010190602001808311613e6457829003601f168201915b50505050508152602001600382018054613e9a90615160565b80601f0160208091040260200160405190810160405280929190818152602001828054613ec690615160565b8015613f135780601f10613ee857610100808354040283529160200191613f13565b820191906000526020600020905b815481529060010190602001808311613ef657829003601f168201915b50505050508152602001600482018054613f2c90615160565b80601f0160208091040260200160405190810160405280929190818152602001828054613f5890615160565b8015613fa55780601f10613f7a57610100808354040283529160200191613fa5565b820191906000526020600020905b815481529060010190602001808311613f8857829003601f168201915b50505050508152602001600582018054613fbe90615160565b80601f0160208091040260200160405190810160405280929190818152602001828054613fea90615160565b80156140375780601f1061400c57610100808354040283529160200191614037565b820191906000526020600020905b81548152906001019060200180831161401a57829003601f168201915b5050505050815260200160068201805461405090615160565b80601f016020809104026020016040519081016040528092919081815260200182805461407c90615160565b80156140c95780601f1061409e576101008083540402835291602001916140c9565b820191906000526020600020905b8154815290600101906020018083116140ac57829003601f168201915b505050505081526020016007820180546140e290615160565b80601f016020809104026020016040519081016040528092919081815260200182805461410e90615160565b801561415b5780601f106141305761010080835404028352916020019161415b565b820191906000526020600020905b81548152906001019060200180831161413e57829003601f168201915b5050505050815260200160088201805461417490615160565b80601f01602080910402602001604051908101604052809291908181526020018280546141a090615160565b80156141ed5780601f106141c2576101008083540402835291602001916141ed565b820191906000526020600020905b8154815290600101906020018083116141d057829003601f168201915b505050505081526020016009820160009054906101000a900460ff161515151581525050905083816020015103614228578092505050614278565b508080614234906154f8565b915050613d00565b506040517f08c379a000000000000000000000000000000000000000000000000000000000815260040161426f906158ac565b60405180910390fd5b919050565b604051806101000160405280600073ffffffffffffffffffffffffffffffffffffffff1681526020016000815260200160608152602001606081526020016060815260200160608152602001606081526020016000151581525090565b604051806101400160405280600073ffffffffffffffffffffffffffffffffffffffff16815260200160008152602001606081526020016060815260200160608152602001606081526020016060815260200160608152602001606081526020016000151581525090565b6000604051905090565b600080fd5b600080fd5b600073ffffffffffffffffffffffffffffffffffffffff82169050919050565b600061438482614359565b9050919050565b61439481614379565b811461439f57600080fd5b50565b6000813590506143b18161438b565b92915050565b600080fd5b600080fd5b6000601f19601f8301169050919050565b7f4e487b7100000000000000000000000000000000000000000000000000000000600052604160045260246000fd5b61440a826143c1565b810181811067ffffffffffffffff82111715614429576144286143d2565b5b80604052505050565b600061443c614345565b90506144488282614401565b919050565b600067ffffffffffffffff821115614468576144676143d2565b5b614471826143c1565b9050602081019050919050565b82818337600083830152505050565b60006144a061449b8461444d565b614432565b9050828152602081018484840111156144bc576144bb6143bc565b5b6144c784828561447e565b509392505050565b600082601f8301126144e4576144e36143b7565b5b81356144f484826020860161448d565b91505092915050565b60008060008060008060c0878903121561451a5761451961434f565b5b600061452889828a016143a2565b965050602087013567ffffffffffffffff81111561454957614548614354565b5b61455589828a016144cf565b955050604087013567ffffffffffffffff81111561457657614575614354565b5b61458289828a016144cf565b945050606087013567ffffffffffffffff8111156145a3576145a2614354565b5b6145af89828a016144cf565b935050608087013567ffffffffffffffff8111156145d0576145cf614354565b5b6145dc89828a016144cf565b92505060a087013567ffffffffffffffff8111156145fd576145fc614354565b5b61460989828a016144cf565b9150509295509295509295565b6000819050919050565b61462981614616565b811461463457600080fd5b50565b60008135905061464681614620565b92915050565b6000602082840312156146625761466161434f565b5b600061467084828501614637565b91505092915050565b600081519050919050565b600082825260208201905092915050565b60005b838110156146b3578082015181840152602081019050614698565b60008484015250505050565b60006146ca82614679565b6146d48185614684565b93506146e4818560208601614695565b6146ed816143c1565b840191505092915050565b6000602082019050818103600083015261471281846146bf565b905092915050565b600080600080608085870312156147345761473361434f565b5b6000614742878288016143a2565b945050602085013567ffffffffffffffff81111561476357614762614354565b5b61476f878288016144cf565b935050604085013567ffffffffffffffff8111156147905761478f614354565b5b61479c878288016144cf565b925050606085013567ffffffffffffffff8111156147bd576147bc614354565b5b6147c9878288016144cf565b91505092959194509250565b600080604083850312156147ec576147eb61434f565b5b600083013567ffffffffffffffff81111561480a57614809614354565b5b614816858286016144cf565b925050602083013567ffffffffffffffff81111561483757614836614354565b5b614843858286016144cf565b9150509250929050565b60008115159050919050565b6148628161484d565b82525050565b600060208201905061487d6000830184614859565b92915050565b6000602082840312156148995761489861434f565b5b60006148a7848285016143a2565b91505092915050565b6148b981614379565b82525050565b6148c881614616565b82525050565b600082825260208201905092915050565b60006148ea82614679565b6148f481856148ce565b9350614904818560208601614695565b61490d816143c1565b840191505092915050565b6149218161484d565b82525050565b60006101008301600083015161494060008601826148b0565b50602083015161495360208601826148bf565b506040830151848203604086015261496b82826148df565b9150506060830151848203606086015261498582826148df565b9150506080830151848203608086015261499f82826148df565b91505060a083015184820360a08601526149b982826148df565b91505060c083015184820360c08601526149d382826148df565b91505060e08301516149e860e0860182614918565b508091505092915050565b60006020820190508181036000830152614a0d8184614927565b905092915050565b600060208284031215614a2b57614a2a61434f565b5b600082013567ffffffffffffffff811115614a4957614a48614354565b5b614a55848285016144cf565b91505092915050565b600081519050919050565b600082825260208201905092915050565b6000819050602082019050919050565b600061014083016000830151614aa360008601826148b0565b506020830151614ab660208601826148bf565b5060408301518482036040860152614ace82826148df565b91505060608301518482036060860152614ae882826148df565b91505060808301518482036080860152614b0282826148df565b91505060a083015184820360a0860152614b1c82826148df565b91505060c083015184820360c0860152614b3682826148df565b91505060e083015184820360e0860152614b5082826148df565b915050610100830151848203610100860152614b6c82826148df565b915050610120830151614b83610120860182614918565b508091505092915050565b6000614b9a8383614a8a565b905092915050565b6000602082019050919050565b6000614bba82614a5e565b614bc48185614a69565b935083602082028501614bd685614a7a565b8060005b85811015614c125784840389528151614bf38582614b8e565b9450614bfe83614ba2565b925060208a01995050600181019050614bda565b50829750879550505050505092915050565b60006020820190508181036000830152614c3e8184614baf565b905092915050565b600061014083016000830151614c5f60008601826148b0565b506020830151614c7260208601826148bf565b5060408301518482036040860152614c8a82826148df565b91505060608301518482036060860152614ca482826148df565b91505060808301518482036080860152614cbe82826148df565b91505060a083015184820360a0860152614cd882826148df565b91505060c083015184820360c0860152614cf282826148df565b91505060e083015184820360e0860152614d0c82826148df565b915050610100830151848203610100860152614d2882826148df565b915050610120830151614d3f610120860182614918565b508091505092915050565b60006020820190508181036000830152614d648184614c46565b905092915050565b614d7581614379565b82525050565b6000604082019050614d906000830185614d6c565b8181036020830152614da281846146bf565b90509392505050565b600081519050919050565b600082825260208201905092915050565b6000819050602082019050919050565b600061010083016000830151614df060008601826148b0565b506020830151614e0360208601826148bf565b5060408301518482036040860152614e1b82826148df565b91505060608301518482036060860152614e3582826148df565b91505060808301518482036080860152614e4f82826148df565b91505060a083015184820360a0860152614e6982826148df565b91505060c083015184820360c0860152614e8382826148df565b91505060e0830151614e9860e0860182614918565b508091505092915050565b6000614eaf8383614dd7565b905092915050565b6000602082019050919050565b6000614ecf82614dab565b614ed98185614db6565b935083602082028501614eeb85614dc7565b8060005b85811015614f275784840389528151614f088582614ea3565b9450614f1383614eb7565b925060208a01995050600181019050614eef565b50829750879550505050505092915050565b60006020820190508181036000830152614f538184614ec4565b905092915050565b600080600080600060a08688031215614f7757614f7661434f565b5b600086013567ffffffffffffffff811115614f9557614f94614354565b5b614fa1888289016144cf565b955050602086013567ffffffffffffffff811115614fc257614fc1614354565b5b614fce888289016144cf565b945050604086013567ffffffffffffffff811115614fef57614fee614354565b5b614ffb888289016144cf565b935050606086013567ffffffffffffffff81111561501c5761501b614354565b5b615028888289016144cf565b925050608086013567ffffffffffffffff81111561504957615048614354565b5b615055888289016144cf565b9150509295509295909350565b7f4163636f756e7420657869737420666f7220746869732077616c6c6574000000600082015250565b6000615098601d83614684565b91506150a382615062565b602082019050919050565b600060208201905081810360008301526150c78161508b565b9050919050565b7f4e487b7100000000000000000000000000000000000000000000000000000000600052601160045260246000fd5b600061510882614616565b915061511383614616565b925082820190508082111561512b5761512a6150ce565b5b92915050565b7f4e487b7100000000000000000000000000000000000000000000000000000000600052602260045260246000fd5b6000600282049050600182168061517857607f821691505b60208210810361518b5761518a615131565b5b50919050565b60008190508160005260206000209050919050565b60006020601f8301049050919050565b600082821b905092915050565b6000600883026151f37fffffffffffffffffffffffffffffffffffffffffffffffffffffffffffffffff826151b6565b6151fd86836151b6565b95508019841693508086168417925050509392505050565b6000819050919050565b600061523a61523561523084614616565b615215565b614616565b9050919050565b6000819050919050565b6152548361521f565b61526861526082615241565b8484546151c3565b825550505050565b600090565b61527d615270565b61528881848461524b565b505050565b5b818110156152ac576152a1600082615275565b60018101905061528e565b5050565b601f8211156152f1576152c281615191565b6152cb846151a6565b810160208510156152da578190505b6152ee6152e6856151a6565b83018261528d565b50505b505050565b600082821c905092915050565b6000615314600019846008026152f6565b1980831691505092915050565b600061532d8383615303565b9150826002028217905092915050565b61534682614679565b67ffffffffffffffff81111561535f5761535e6143d2565b5b6153698254615160565b6153748282856152b0565b600060209050601f8311600181146153a75760008415615395578287015190505b61539f8582615321565b865550615407565b601f1984166153b586615191565b60005b828110156153dd578489015182556001820191506020850194506020810190506153b8565b868310156153fa57848901516153f6601f891682615303565b8355505b6001600288020188555050505b505050505050565b7f4e487b7100000000000000000000000000000000000000000000000000000000600052603260045260246000fd5b600081905092915050565b60008190508160005260206000209050919050565b6000815461546b81615160565b615475818661543e565b9450600182166000811461549057600181146154a5576154d8565b60ff19831686528115158202860193506154d8565b6154ae85615449565b60005b838110156154d0578154818901526001820191506020810190506154b1565b838801955050505b50505092915050565b60006154ed828461545e565b915081905092915050565b600061550382614616565b91507fffffffffffffffffffffffffffffffffffffffffffffffffffffffffffffffff8203615535576155346150ce565b5b600182019050919050565b7f50617469656e7420776974682074686520676976656e20656d61696c20646f6560008201527f73206e6f74206578697374000000000000000000000000000000000000000000602082015250565b600061559c602b83614684565b91506155a782615540565b604082019050919050565b600060208201905081810360008301526155cb8161558f565b9050919050565b7f4e6f206163636f756e74207769746820746861742077616c6c65740000000000600082015250565b6000615608601b83614684565b9150615613826155d2565b602082019050919050565b60006020820190508181036000830152615637816155fb565b9050919050565b7f446f63746f7220776974682074686520676976656e20656d61696c20646f657360008201527f206e6f7420657869737400000000000000000000000000000000000000000000602082015250565b600061569a602a83614684565b91506156a58261563e565b604082019050919050565b600060208201905081810360008301526156c98161568d565b9050919050565b7f496e76616c696420646f63746f72204944000000000000000000000000000000600082015250565b6000615706601183614684565b9150615711826156d0565b602082019050919050565b60006020820190508181036000830152615735816156f9565b9050919050565b7f446f63746f7220776974682074686520676976656e20494420646f6573206e6f60008201527f7420657869737400000000000000000000000000000000000000000000000000602082015250565b6000615798602783614684565b91506157a38261573c565b604082019050919050565b600060208201905081810360008301526157c78161578b565b9050919050565b7f496e76616c69642070617469656e742049440000000000000000000000000000600082015250565b6000615804601283614684565b915061580f826157ce565b602082019050919050565b60006020820190508181036000830152615833816157f7565b9050919050565b7f50617469656e7420776974682074686520676976656e20494420646f6573206e60008201527f6f74206578697374000000000000000000000000000000000000000000000000602082015250565b6000615896602883614684565b91506158a18261583a565b604082019050919050565b600060208201905081810360008301526158c581615889565b905091905056fea26469706673582212201069a0b3f01026e94e85f64631603bd0a7cda4a71bccf73b58b330d4a004b07864736f6c63430008130033",
  "immutableReferences": {},
  "source": "// SPDX-License-Identifier: MIT\npragma solidity >=0.4.22 <0.9.0;\n\ncontract UserManagement {\n  address admin;\n  string adminUsername = \"admin@gmail.com\";\n  string adminPassword = \"admin123\";\n\n  uint userd;\n\n  struct Doctor {\n    address _doctorAddress; // Mandatory\n    uint _doctorId;\n    string _doctorName;\n    string _doctorPassword;\n    string _doctorEmail;\n    string _doctorLicense;\n    string _doctorSpecialisation;\n    bool _exist;\n  }\n\n  struct Patient {\n    address _patientAddress; // Mandatory\n    uint _patientId;\n    string _patientName;\n    string _patientPassword;\n    string _patientEmail;\n    string _patientGender;\n    string _patientPhone;\n    string _patientHomeAddress;\n    string _patientProfilePhoto;\n    bool _exist;\n  }\n\n  // Mapping variables\n  mapping(address => Doctor) _doctors;\n  address[] _doctorwallets;\n\n  mapping(address => Patient) _patients;\n  address[] _patientwallets;\n\n  constructor() {\n    admin = msg.sender; // msg.sender is a global variable where it is holding the address of contract invoker\n    userd=0;\n  }\n\n  // ValidateAdmin will verify login details of admin passed by frontend\n  function validateAdmin(string memory username, string memory password) public view returns (bool) {\n    if (keccak256(bytes(username)) == keccak256(bytes(adminUsername))) {\n      if (keccak256(bytes(password)) == keccak256(bytes(adminPassword))) {\n        return true;\n      } else {\n        return false;\n      }\n    } else {\n      return false;\n    }\n  }\n\n  // It will create an account of doctor\n  function addDoctor(address wallet, string memory name, string memory password, string memory email, string memory doclicense, string memory docspecial) public {\n    require(!_doctors[wallet]._exist, \"Account exist for this wallet\");\n    userd += 1;\n\n    Doctor memory new_doctor = Doctor(wallet, userd, name, password, email, doclicense, docspecial, true);\n    _doctors[wallet] = new_doctor;\n    _doctorwallets.push(wallet);\n  }\n\n  // It will create an account of patient\n  function addPatient(address wallet, string memory name, string memory password, string memory email) public {\n    require(!_patients[wallet]._exist, \"Account exist for this wallet\");\n    userd += 1;\n\n    Patient memory new_patient = Patient(wallet, userd, name, password, email,\"NA\",\"NA\",\"NA\",\"NA\",true);\n    _patients[wallet] = new_patient;\n    _patientwallets.push(wallet);\n  }\n\n  // It will return all the registered doctors\n  function viewAllDoctors() public view returns (Doctor[] memory) {\n    Doctor[] memory _doctorArray = new Doctor[](_doctorwallets.length);\n\n    for (uint256 i = 0; i < _doctorwallets.length; i++) {\n      _doctorArray[i] = _doctors[_doctorwallets[i]];\n    }\n\n    return _doctorArray;\n  }\n\n  // It will return all the registered patients\n  function viewAllPatients() public view returns (Patient[] memory) {\n    Patient[] memory _patientArray = new Patient[](_patientwallets.length);\n\n    for (uint256 i = 0; i < _patientwallets.length; i++) {\n      _patientArray[i] = _patients[_patientwallets[i]];\n    }\n\n    return _patientArray;\n  }\n\n  // It will return only one record of doctor based on wallet\n  function viewDoctorByWallet(address wallet) public view returns (Doctor memory) {\n    require(_doctors[wallet]._exist, \"No account with that wallet\"); // true\n    return _doctors[wallet];\n  }\n\n  // It will return only one record of patient based on wallet\n  function viewPatientByWallet(address wallet) public view returns (Patient memory) {\n    require(_patients[wallet]._exist, \"No account with that wallet\"); // true\n    return _patients[wallet];\n  }\n\n  // It will return only one record of doctor based on doctor id\n  function viewDoctorById(uint docI) public view returns (Doctor memory) {\n    require(docI > 0, \"Invalid doctor ID\");\n\n    // Iterate through all registered doctors to find the one with the matching ID\n    for (uint256 i = 0; i < _doctorwallets.length; i++) {\n        Doctor memory doctor = _doctors[_doctorwallets[i]];\n        if (doctor._doctorId == docI) {\n            return doctor;\n        }\n    }\n\n    // Revert if no doctor is found with the given ID\n    revert(\"Doctor with the given ID does not exist\");\n  }\n\n\n  // It will return only one record of patient based on patient id\n  function viewPatientById(uint patI) public view returns (Patient memory) {\n    require(patI > 0, \"Invalid patient ID\");\n\n    // Iterate through all registered patients to find the one with the matching ID\n    for (uint256 i = 0; i < _patientwallets.length; i++) {\n        Patient memory patient = _patients[_patientwallets[i]];\n        if (patient._patientId == patI) {\n            return patient;\n        }\n    }\n\n    // Revert if no patient is found with the given ID\n    revert(\"Patient with the given ID does not exist\");\n  }\n\n\n  // It will validate the login details of doctor\n  function doctorLogin(string memory email, string memory password) public view returns (bool) {\n    for (uint256 i = 0; i < _doctorwallets.length; i++) {\n      Doctor memory doc = _doctors[_doctorwallets[i]];\n      if (keccak256(bytes(doc._doctorEmail)) == keccak256(bytes(email)) && keccak256(bytes(doc._doctorPassword)) == keccak256(bytes(password))) {\n        return true;\n      }\n    }\n    return false;\n  }\n\n  // It will validate the login details of patient\n  function patientLogin(string memory email, string memory password) public view returns (bool) {\n    for (uint256 i = 0; i < _patientwallets.length; i++) {\n      Patient memory pat = _patients[_patientwallets[i]];\n      if (keccak256(bytes(pat._patientEmail)) == keccak256(bytes(email)) && keccak256(bytes(pat._patientPassword)) == keccak256(bytes(password))) {\n        return true;\n      }\n    }\n    return false;\n  }\n\n  function viewPatientByEmail(string memory email) public view returns (Patient memory) {\n    for (uint i = 0; i < _patientwallets.length; i++) {\n        Patient memory pat = _patients[_patientwallets[i]];\n        if (keccak256(bytes(pat._patientEmail)) == keccak256(bytes(email))) {\n            return pat;\n        }\n    }\n    revert(\"Patient with the given email does not exist\");\n  }\n\n  function updatePatientByEmail(string memory name,string memory email,string memory gender,string memory phone,string memory homeAddress) public {\n    for (uint i = 0; i < _patientwallets.length; i++) {\n        if (keccak256(bytes(_patients[_patientwallets[i]]._patientEmail)) == keccak256(bytes(email))) {\n            _patients[_patientwallets[i]]._patientName = name;\n            _patients[_patientwallets[i]]._patientGender = gender;\n            _patients[_patientwallets[i]]._patientPhone = phone;\n            _patients[_patientwallets[i]]._patientHomeAddress = homeAddress;\n            return; // Exit the function after updating\n        }\n    }\n\n    revert(\"Patient with the given email does not exist\");\n  }\n\n  function updatePatientPhoto(string memory photo,string memory email) public {\n    for (uint i = 0; i < _patientwallets.length; i++) {\n        if (keccak256(bytes(_patients[_patientwallets[i]]._patientEmail)) == keccak256(bytes(email))) {\n          _patients[_patientwallets[i]]._patientProfilePhoto=photo;\n          return;\n        }\n    }\n    revert(\"Patient with the given email does not exist\");\n  }\n\n  function viewDoctorByEmail(string memory email) public view returns (Doctor memory){\n    for(uint i=0; i<_doctorwallets.length;i++){\n      Doctor memory doc = _doctors[_doctorwallets[i]];\n      if (keccak256(bytes(doc._doctorEmail)) == keccak256(bytes(email))){\n        return doc;\n      }\n    }\n    revert(\"Doctor with the given email does not exist\");\n  }\n\n\n  // It has to return admin wallet address, admin username\n  function viewAdmin() public view returns (address, string memory) {\n    // Read Operation only\n    return (admin, adminUsername);\n  }\n\n  function getDoctorNameById(uint docI) public view returns (string memory) {\n    Doctor memory doctor = viewDoctorById(docI);\n    return doctor._doctorName;\n  }\n\n  // Retrieve patient name by ID\n  function getPatientNameById(uint patI) public view returns (string memory) {\n      Patient memory patient = viewPatientById(patI);\n      return patient._patientName;\n  }\n}\n",
  "sourcePath": "/Users/ms/Downloads/mediplus/contracts/UserManagement.sol",
  "compiler": {
    "name": "solc",
    "version": "0.8.19+commit.7dd6d404.Emscripten.clang"
  },
  "schemaVersion": "3.4.16",
  "updatedAt": "2025-01-17T11:15:03.000Z",
  "networkType": "ethereum",
  "devdoc": {
    "kind": "dev",
    "methods": {},
    "version": 1
  },
  "userdoc": {
    "kind": "user",
    "methods": {},
    "version": 1
  }
}